:100000000C9475000C9492000C9492000C94920045
:100010000C9492000C9492000C9492000C94920018
:100020000C9492000C9492000C9492000C94CD03CA
:100030000C9492000C9492000C9492000C949200F8
:100040000C9492000C9492000C949E000C949200DC
:100050000C9494000C9492000C9492000C949200D6
:100060000C9492000C94920007634236B79BD8A779
:100070001A39685618AEBAAB558C1D3CB7CC5763CD
:10008000BD6DEDFD753EF6177231BF000000803F7B
:1000900008000000BE922449123EABAAAA2ABECD97
:1000A000CCCC4C3E00000080BEABAAAAAA3E000009
:1000B0000000BF000000803F000000000008417801
:1000C000D3BB4387D1133D190E3CC3BD4282AD2B38
:1000D0003E68EC8276BED98FE1A93E4C80EFFFBE30
:1000E00001C4FF7F3F000000000011241FBECFEFBE
:1000F000D8E0DEBFCDBF11E0A0E0B1E0E2E1F6E183
:1001000002C005900D92A831B107D9F721E0A8E10E
:10011000B1E001C01D92A932B207E1F70E947D0251
:100120000C94070B0C9400001F920F920FB60F92C5
:1001300011240F900FBE0F901F9018951F920F92D1
:100140000FB60F921124CF92DF92EF92FF921F937E
:100150002F933F934F935F936F937F938F939F93CF
:10016000AF93BF93CF93DF93EF93FF93109223014D
:100170001091C600809124018130A9F028F08230CE
:10018000D1F08330B1F18BC01D3409F088C081E01B
:100190008093240110921C0110921D0110921E01E7
:1001A00010921F017CC060ED610F6093200182E01E
:1001B0008093240174C083E0809324011D3239F4BC
:1001C0008FEF9FEF90931B0180931A010BC01B329E
:1001D00039F481E090E090931B0180931A0102C0F2
:1001E0001092240183E090E090931901809318010C
:1001F00056C0C0911801D09119012197D0931901CF
:10020000C0931801BE010D2E000C880B990B0E94A3
:100210006A059B01AC0160E070E080E291E40E941D
:1002200063066B017C01612F70E060537109072E3A
:10023000000C880B990B0E946A05A70196010E9489
:10024000F60520911C0130911D0140911E01509135
:100250001F010E9454046B017C0160931C01709388
:100260001D0180931E0190931F01CD2BC1F4C0E2AC
:10027000D1E060911A0170911B01072E000C880BD0
:10028000990B0E946A05A70196010E94F6050E943B
:1002900032057A8369831092240181E08B83FF9178
:1002A000EF91DF91CF91BF91AF919F918F917F910E
:1002B0006F915F914F913F912F911F91FF90EF9020
:1002C000DF90CF900F900FBE0F901F901895CF9298
:1002D000DF92EF92FF92CF93DF93EC016B817C81F1
:1002E000072E000C880B990B0E946A056B017C019C
:1002F00069817A81072E000C880B990B0E946A0590
:100300002DEC3CEC4CE45EE30E94F6059B01AC0155
:10031000C701B6010E9453046B017C016B877C8787
:100320008D879E876F81788589859A850E946A0569
:10033000A70196010E9454040E943205AB01772365
:1003400024F444275527461B570B2D813E81421725
:10035000530724F46F83788789879A8769897A8914
:10036000072E000C880B990B0E946A05A7019601C5
:100370000E94F6056B017C010E943205788B6F8725
:100380006F81788589859A850E946A052B893C89C9
:100390004D895E890E94F605A70196010E945404CA
:1003A000DF91CF91FF90EF90DF90CF900895EF9283
:1003B000FF920F93CF937A01C22F0E943205AB01B7
:1003C0001616170644F42BB1C22BCBB92BB10095EE
:1003D00002230BB90BC02BB1C095C223CBB92BB1F3
:1003E000022B0BB944275527461B570BF7014083B7
:1003F000CF910F91FF90EF9008950F931F93CF939C
:10040000DF93FC01248535852130310581F02230D0
:10041000310509F457C0232B09F06AC0208121302F
:1004200009F066C021E030E03587248761C0142FD1
:10043000062FEC016381748181819281681B790BA5
:10044000072E000C880B990B0E946A052E853F85AC
:10045000488959890E94C0040E9432059B017E830D
:100460006D8382E090E09D878C871216130634F42A
:1004700065B1602B65B981E08F8309C033233CF4FB
:1004800085B1602F6095682365B98FEF8F8385B143
:10049000412F4095482345B98D819E8199231CF4B5
:1004A0009195819591099E838D8369817A81072E2B
:1004B000000C880B990B0E946A05688779878A87E8
:1004C0009B8716C025B1242381F0FC01258136814C
:1004D0002150310936832583232B39F41586148660
:1004E0001082238134813283218385B1482745B925
:1004F000DF91CF911F910F910895CF93DF93CDB7E7
:10050000DEB7C157D1090FB6F894DEBF0FBECDBF1D
:1005100078940E94A10380E895E20E94F203559826
:1005200052988AB1886C8AB9E0EBF0E080818362EE
:100530008083E1EBF0E0808181608083FE01319671
:1005400089E1DF011D928A95E9F785E090E09B8BB8
:100550008A8B8DEC9CECACECBDE38C8B9D8BAE8BD5
:10056000BF8B8FEF90E09F838E8384B18F6084B9BF
:1005700082E17996DF01282F1D922A95E9F74AE05A
:1005800057ED63E27DE348A759A76AA77BA7729658
:10059000DF011D928A95E9F789E29CE5AFE0BEE3B1
:1005A0008AAF9BAFACAFBDAF812C912C5401412CD5
:1005B000512C3201E12CF12C10E00F2EF0E2CF2E65
:1005C000F1E0DF2EF02D7296E296FFAFEEAFE297EC
:1005D00033243394212CD60113968C9113978130B8
:1005E00009F040C012968C9112978F9311968C91BE
:1005F00011978F938C911F928F93E0E0F1E0FF931E
:10060000EF93E2968FADE2978F93E1969FADE197DE
:100610009F930E940D08D60113961C9213970FB654
:10062000F894DEBF0FBECDBF8C91813061F018F021
:10063000823081F017C0D60111968D919C9112974E
:100640009D838C830FC0F601818192819E8F8D8F57
:100650003A8E08C0D60111968D919C91129798AB55
:100660008FA73CA60E94C403DC01CB018419950925
:10067000A609B709853F9140A105B10540F00E9448
:10068000C4032B013C018B8D9C8D0E944E040E9463
:10069000C403DC01CB0188199909AA09BB09029797
:1006A000A105B105B8F00E94C4034B015C01CE0165
:1006B00001960E9467010E9432057B01432D62E092
:1006C000CE014A960E94FD0144E068E0CE018C967E
:1006D0000E94FD01F1E0EF16FFEFFF0624F4EE2487
:1006E000E394FF24FA942FEFE216F10421F01CF0BA
:1006F000EE24EA94F22CB7010F2C000C880B990B16
:100700000E946A0500E820E444EB50E00E94D70113
:1007100089B1111112C04A9B5ECF4D9B07C08A81DF
:100720009B8101969B838A83132D55CF8A819B8160
:1007300001979B838A83132D4ECF4A994CCF10E0AB
:100740004ACF10928000E1E8F0E01082109285001C
:100750001092840089EF90E0909389008093880044
:10076000808188608083808183608083EFE6F0E011
:100770008081826080831092250110922601109260
:10078000270110922801089560912501709126019A
:10079000809127019091280108951F920F920FB622
:1007A0000F9211248F939F93AF93BF938091250154
:1007B00090912601A0912701B09128010196A11DD9
:1007C000B11D8093250190932601A0932701B0933A
:1007D0002801BF91AF919F918F910F900FBE0F9005
:1007E0001F90189528E92093C10026E02093C200AD
:1007F000BC0180E090E00E94680520E030E040E825
:1008000051E40E94F6059B01AC0160E074E284E7CC
:100810009BE40E94C00420E030E040E85FE30E94D7
:1008200053040E9439057093C5006093C400089575
:10083000E0ECF0E0908195FFFDCF8093C600089535
:100840008AE00E94180408950F931F93CF93DF93BB
:10085000CDB7DEB72A970FB6F894DEBF0FBECDBF77
:100860004AE0BE016F5F7F4F0E94E80789818823BD
:1008700051F08E010E5F1F4F0E941804F801819104
:100880008F018111F9CF2A960FB6F894DEBF0FBE03
:10089000CDBFDF91CF911F910F9108950E94240445
:1008A0000E94200408955058BB27AA270E946B0479
:1008B0000C94BC050E94AE0538F00E94B50520F0EE
:1008C00039F49F3F19F426F40C94AB050EF4E0952F
:1008D000E7FB0C94A505E92F0E94CD0558F3BA1744
:1008E000620773078407950720F079F4A6F50C9446
:1008F000EF050EF4E0950B2EBA2FA02D0B01B901D8
:1009000090010C01CA01A0011124FF27591B99F085
:10091000593F50F4503E68F11A16F040A22F232F91
:10092000342F4427585FF3CF469537952795A795E1
:10093000F0405395C9F77EF41F16BA0B620B730B88
:10094000840BBAF09150A1F0FF0FBB1F661F771FF9
:10095000881FC2F70EC0BA0F621F731F841F48F4AE
:10096000879577956795B795F7959E3F08F0B0CF37
:100970009395880F08F09927EE0F9795879508951E
:100980000E94D4040C94BC050E94B50558F00E9446
:10099000AE0540F029F45F3F29F00C94A5055111F4
:1009A0000C94F0050C94AB050E94CD0568F39923D7
:1009B000B1F3552391F3951B550BBB27AA2762175B
:1009C0007307840738F09F5F5F4F220F331F441F68
:1009D000AA1FA9F335D00E2E3AF0E0E832D091509C
:1009E0005040E695001CCAF72BD0FE2F29D0660F89
:1009F000771F881FBB1F261737074807AB07B0E8CC
:100A000009F0BB0B802DBF01FF2793585F4F3AF0D1
:100A10009E3F510578F00C94A5050C94F0055F3FBE
:100A2000E4F3983ED4F3869577956795B795F79557
:100A30009F5FC9F7880F911D9695879597F908953F
:100A4000E1E0660F771F881FBB1F621773078407DB
:100A5000BA0720F0621B730B840BBA0BEE1F88F7EA
:100A6000E09508950E9439056894B1110C94F00541
:100A700008950E94D50588F09F5798F0B92F9927BF
:100A8000B751B0F0E1F0660F771F881F991F1AF079
:100A9000BA95C9F714C0B13091F00E94EF05B1E0EA
:100AA00008950C94EF05672F782F8827B85F39F0E9
:100AB000B93FCCF3869577956795B395D9F73EF412
:100AC00090958095709561957F4F8F4F9F4F0895BA
:100AD000E89409C097FB3EF49095809570956195D8
:100AE0007F4F8F4F9F4F9923A9F0F92F96E9BB278E
:100AF0009395F695879577956795B795F111F8CF0A
:100B0000FAF4BB0F11F460FF1BC06F5F7F4F8F4F74
:100B10009F4F16C0882311F096E911C0772321F06A
:100B20009EE8872F762F05C0662371F096E8862F02
:100B300070E060E02AF09A95660F771F881FDAF759
:100B4000880F9695879597F9089597F99F6780E89C
:100B500070E060E008959FEF80EC089500240A940F
:100B60001616170618060906089500240A94121688
:100B70001306140605060895092E0394000C11F4BB
:100B8000882352F0BB0F40F4BF2B11F460FF04C068
:100B90006F5F7F4F8F4F9F4F089557FD9058440FC1
:100BA000551F59F05F3F71F04795880F97FB991FCC
:100BB00061F09F3F79F08795089512161306140689
:100BC000551FF2CF4695F1DF08C016161706180616
:100BD000991FF1CF86957105610508940895E894F1
:100BE000BB2766277727CB0197F908950E9409064E
:100BF0000C94BC050E94AE0538F00E94B50520F0AB
:100C0000952311F00C94A5050C94AB0511240C94BC
:100C1000F0050E94CD0570F3959FC1F3950F50E04C
:100C2000551F629FF001729FBB27F00DB11D639F9E
:100C3000AA27F00DB11DAA1F649F6627B00DA11D44
:100C4000661F829F2227B00DA11D621F739FB00DEA
:100C5000A11D621F839FA00D611D221F749F33275A
:100C6000A00D611D231F849F600D211D822F762FF3
:100C70006A2F11249F5750409AF0F1F088234AF0D0
:100C8000EE0FFF1FBB1F661F771F881F915050403C
:100C9000A9F79E3F510580F00C94A5050C94F00532
:100CA0005F3FE4F3983ED4F3869577956795B795C3
:100CB000F795E7959F5FC1F7FE2B880F911D9695DD
:100CC000879597F90895FA01EE0FFF1F30962105D9
:100CD0003105A1F16115710561F48038BFE39B070F
:100CE00049F168949038810561F08038BFEF9B0727
:100CF00041F099234AF5FF3FE1053105210519F13E
:100D0000E8940894E795D901AA2329F4AB2FBE2FC4
:100D1000F85FD0F310C0FF5F70F4A695E0F7F739E5
:100D200050F019F0FF3A38F49F779F930DD00F9051
:100D300007FC9058089546F00C94AB0560E070E015
:100D400080E89FE308954FE79F775F934F933F932A
:100D50002F930E945E072F913F914F915F910E94C8
:100D6000F6050C94BB0629F416F00C94A5050C941A
:100D7000EF050C94AB050E94D505A8F39638A0F7B3
:100D800007F80F92E8942BE33AEA48EB5FE70E94FA
:100D90000C060F920F920F924DB75EB70F920E9402
:100DA000A607E8E6F0E00E94ED064F915F91EF9113
:100DB000FF91E595EE1FFF1F49F0FE57E0684427BD
:100DC000EE0F441FFA95E1F74195550B0E9420075D
:100DD0000F9007FE0C9414070895DF93CF931F9391
:100DE0000F93FF92EF92DF927B018C01689406C013
:100DF000DA2EEF010E940906FE01E894A5912591E3
:100E0000359145915591A6F3EF010E946B04FE01C7
:100E10009701A801DA9469F7DF90EF90FF900F91A6
:100E20001F91CF91DF9108959B01AC0160E070E0CC
:100E300080E89FE30C94C0040C94A5050C94DA0799
:100E40000E94D505D8F39923C9F3940F511DA3F33C
:100E50009150504094F059F0882332F0660F771F7C
:100E6000881F91505040C1F79E3F51052CF7880FC5
:100E7000911D9695879597F908955F3FACF0983E40
:100E80009CF0BB27869577956795B79508F4B16078
:100E90009395C1F7BB0F58F711F460FFE8CF6F5F70
:100EA0007F4F8F4F9F4FE3CF0C94F00516F00C94BB
:100EB000DA070C94AB0568940C94A5050E94D5053F
:100EC000A8F39923C1F3AEF3DF93CF931F930F934E
:100ED000FF92C92FDD2788232AF02197660F771FFD
:100EE000881FDAF720E030E040E85FEB9FE38839C5
:100EF00020F0803E38F021968F770E945404E0E97C
:100F0000F0E004C00E945404EDEBF0E00E94ED0616
:100F10008B01BE01EC01FB2E6F5771097595771F90
:100F2000880B990B0E946A0528E132E741E35FE3F1
:100F30000E940906AF2D9801AE01FF900F911F91FD
:100F4000CF91DF910E946B040C94BC05FA01DC0187
:100F5000AA0FBB1F9B01AC01BF5728F422273327E0
:100F60004427507820C0B75190F4AB2F0024469509
:100F700037952795011CA395D2F3002071F0220F1D
:100F8000331F441FB395DAF30ED00C945304613031
:100F90007105A0E88A07B94630F49B01AC016627C9
:100FA000772788279078309621F0208331834283F9
:100FB000538308959F3F31F0915020F487957795A2
:100FC0006795B795880F911D9695879597F9089520
:100FD000BB274A3031F4992322F4BDE290958195E4
:100FE0009F4F0C94F407BB27FB015527AA27880FB6
:100FF000991FAA1FA41710F0A41B83955051B9F78D
:10100000A05DAA3308F0A95DA193009779F7B1110B
:10101000B1931192CB010C94260AAEE0B0E0E3E16B
:10102000F8E00C94DE0A0D891E8986E08C831A8311
:1010300009838FEF9FE79E838D83AE01475E5F4FED
:101040006F89788DCE0101960E942F08EF81F88577
:10105000E00FF11F10822E96E4E00C94FA0AABE048
:10106000B0E0E5E3F8E00C94D00A6C017B018A0162
:10107000FC0117821682838181FFCCC1CE010196CB
:101080003C01F6019381F70193FD859193FF8191D6
:101090007F01882309F4BAC1853239F493FD859123
:1010A00093FF81917F01853229F4B60190E00E947F
:1010B000360AE7CF912C212C312CFFE1F315D8F023
:1010C0008B3279F038F4803279F08332A1F4232D19
:1010D00020611DC08D3261F0803369F4232D2160C1
:1010E00016C0832D8260382EE32DE4603E2E2AC088
:1010F000F32DF8601DC037FC2DC020ED280F2A30DD
:1011000040F08E32B9F436FC81C1232D2064322E9A
:1011100019C036FE06C08AE0989E200D1124922E3A
:1011200011C0EAE02E9E200D1124222EF32DF06234
:101130003F2E08C08C3621F4832D8068382E02C0E3
:10114000883641F4F70193FD859193FF81917F01EA
:101150008111B3CF982F9F7D9554933028F40C5F65
:101160001F4F9FE399830DC0833631F0833771F0B1
:10117000833509F059C021C0F801808189830E5F51
:101180001F4F88248394912C530113C02801F2E04F
:101190004F0E511CF801A080B18036FE03C0692DAE
:1011A00070E002C06FEF7FEFC5010E941B0A4C0187
:1011B0008201F32DFF773F2E16C0280122E0420E58
:1011C000511CF801A080B18036FE03C0692D70E08B
:1011D00002C06FEF7FEFC5010E94100A4C01F32D92
:1011E000F0683F2E820133FC1BC0822D90E08816F0
:1011F0009906B0F4B60180E290E00E94360A2A9483
:10120000F4CFF50137FC859137FE81915F01B6017E
:1012100090E00E94360A21102A9421E0821A910857
:101220008114910471F7E8C0843611F0893641F5D4
:10123000F80137FE07C060817181828193810C5F64
:101240001F4F08C060817181072E000C880B990B1D
:101250000E5F1F4FF32DFF763F2E97FF09C090952D
:101260008095709561957F4F8F4F9F4FF0683F2E0F
:101270002AE030E0A3010E94720A882E861845C039
:10128000853731F4232D2F7EB22E2AE030E025C0A1
:10129000932D997FB92E8F36C1F018F4883579F0E7
:1012A000B5C0803719F0883721F0B0C0E92FE06170
:1012B000BE2EB4FE0DC0FB2DF460BF2E09C034FE5F
:1012C0000AC0292F2660B22E06C028E030E005C0F3
:1012D00020E130E002C020E132E0F801B7FE07C0B3
:1012E00060817181828193810C5F1F4F06C0608194
:1012F000718180E090E00E5F1F4FA3010E94720A8F
:10130000882E8618FB2DFF773F2E36FE0DC0232D2D
:101310002E7FA22E891458F434FE0BC032FC09C073
:10132000832D8E7EA82E05C0B82CA32C03C0B82C0C
:1013300001C0B92CA4FE0FC0FE01E80DF11D808193
:10134000803321F49A2D997EA92E09C0A2FE06C0F1
:10135000B394B39404C08A2D867809F0B394A3FCA7
:1013600011C0A0FE06C0B21488F4280C922C9B1861
:101370000EC0B21460F4B60180E290E00E94360A1A
:10138000B394F7CFB21418F42B1802C0982C212C68
:10139000A4FE10C0B60180E390E00E94360AA2FECF
:1013A00017C0A1FC03C088E790E002C088E590E088
:1013B000B6010CC08A2D867859F0A1FE02C08BE2DE
:1013C00001C080E2A7FC8DE2B60190E00E94360ADF
:1013D000891438F4B60180E390E00E94360A9A94AA
:1013E000F7CF8A94F301E80DF11D8081B60190E0FA
:1013F0000E94360A8110F5CF222009F442CEB601B0
:1014000080E290E00E94360A2A94F6CFF6018681A7
:10141000978102C08FEF9FEF2B96E2E10C94EC0ACC
:10142000FC010590615070400110D8F780959095AF
:101430008E0F9F1F0895FC016150704001900110B4
:10144000D8F7809590958E0F9F1F0895DC01FC01C1
:10145000672F71917723E1F7329704C07C916D93E8
:1014600070836291AE17BF07C8F308950F931F935F
:10147000CF93DF93FB01238121FD03C08FEF9FEF0B
:101480002CC022FF16C04681578124813581421726
:10149000530744F4A081B1819D012F5F3F4F3183F9
:1014A00020838C93268137812F5F3F4F378326839C
:1014B00014C08B01EC01FB010084F185E02D09953E
:1014C000892BE1F6D80116968D919C91179701967C
:1014D00017969C938E931697CE01DF91CF911F9113
:1014E0000F910895FA01AA27283051F1203181F196
:1014F000E8946F936E7F6E5F7F4F8F4F9F4FAF4F1C
:10150000B1E03ED0B4E03CD0670F781F891F9A1F2E
:10151000A11D680F791F8A1F911DA11D6A0F711DE2
:10152000811D911DA11D20D009F468943F912AE0EE
:10153000269F11243019305D3193DEF6CF010895D6
:10154000462F4770405D4193B3E00FD0C9F7F6CF07
:10155000462F4F70405D4A3318F0495D31FD4052CF
:10156000419302D0A9F7EACFB4E0A6959795879565
:1015700077956795BA95C9F7009761057105089544
:101580009B01AC010A2E06945795479537952795F0
:10159000BA95C9F7620F731F841F951FA01D089588
:1015A0002F923F924F925F926F927F928F929F9273
:1015B000AF92BF92CF92DF92EF92FF920F931F9361
:1015C000CF93DF93CDB7DEB7CA1BDB0B0FB6F89412
:1015D000DEBF0FBECDBF09942A88398848885F8452
:1015E0006E847D848C849B84AA84B984C884DF80C3
:1015F000EE80FD800C811B81AA81B981CE0FD11DA7
:101600000FB6F894DEBF0FBECDBFED010895F8947C
:02161000FFCF0A
:101612004D6F746F722025642C20616E676C65209B
:081622003D202025640A0000B0
:00000001FF
