S0100000526F626F7441726D2E73726563EE
S11300000C9475000C9492000C9492000C94920041
S11300100C9492000C9492000C9492000C94920014
S11300200C9492000C9492000C9492000C94F8039B
S11300300C9492000C9492000C9492000C949200F4
S11300400C9492000C9492000C949E000C949200D8
S11300500C9494000C9492000C9492000C949200D2
S11300600C9492000C94920007634236B79BD8A775
S11300701A39685618AEBAAB558C1D3CB7CC5763C9
S1130080BD6DEDFD753EF6177231BF000000803F77
S113009008000000BE922449123EABAAAA2ABECD93
S11300A0CCCC4C3E00000080BEABAAAAAA3E000005
S11300B00000BF000000803F0000000000084178FD
S11300C0D3BB4387D1133D190E3CC3BD4282AD2B34
S11300D03E68EC8276BED98FE1A93E4C80EFFFBE2C
S11300E001C4FF7F3F000000000011241FBECFEFBA
S11300F0D8E0DEBFCDBF11E0A0E0B1E0EAE7F7E170
S113010002C005900D92A232B107D9F721E0A2E214
S1130110B1E001C01D92A333B207E1F70E948D0143
S11301200C94BB0B0C9400001F920F920FB60F920D
S113013011240F900FBE0F901F9018951F920F92CD
S11301400FB60F921124CF92DF92EF92FF921F937A
S11301502F933F934F935F936F937F938F939F93CB
S1130160AF93BF93CF93DF93EF93FF9310922D013F
S11301701091C60080912E018130A9F028F08230C0
S1130180D1F08330B1F18BC01D3409F088C081E017
S113019080932E01109226011092270110922801BB
S11301A0109229017CC060ED610F60932A0182E006
S11301B080932E0174C083E080932E011D3239F4A4
S11301C08FEF9FEF90932501809324010BC01B3286
S11301D039F481E090E0909325018093240102C0DA
S11301E010922E0183E090E09093230180932201EA
S11301F056C0C0912201D09123012197D0932301AD
S1130200C0932201BE010D2E000C880B990B0E9495
S1130210A9059B01AC0160E070E080E291E40E94DA
S1130220A2066B017C01612F70E060537109072EF7
S1130230000C880B990B0E94A905A70196010E9446
S113024035062091260130912701409128015091D3
S113025029010E9493046B017C0160932601709331
S113026027018093280190932901CD2BC1F4CAE280
S1130270D1E06091240170912501072E000C880BB8
S1130280990B0E94A905A70196010E9435060E94B8
S113029071057A83698310922E0181E08B83FF912B
S11302A0EF91DF91CF91BF91AF919F918F917F910A
S11302B06F915F914F913F912F911F91FF90EF901C
S11302C0DF90CF900F900FBE0F901F901895EF9274
S11302D0FF920F93CF937A01C22F0E947105AB0155
S11302E01616170644F42BB1C22BCBB92BB10095CB
S11302F002230BB90BC02BB1C095C223CBB92BB1D0
S1130300022B0BB944275527461B570BF701408393
S1130310CF910F91FF90EF900895CF93DF93CDB7D6
S1130320DEB7C557D1090FB6F894DEBF0FBECDBFF7
S113033078940E94CC0380E895E20E941D045598AD
S113034052988AB1886C8AB9E0EBF0E080818362CC
S11303508083E1EBF0E080818160808384B18F60F1
S113036084B9EE24E39402E02DEC3CEC4CE45DE330
S113037060E070E0CE0101960E940F0210E00F2EA3
S1130380FAE2EF2EF1E0FF2EF02D0F2EF0E0AF2E6B
S1130390F1E0BF2EF02D6E0184E4C80ED11C992427
S11303A09394812CF70183818130E1F482818F93CE
S11303B081818F9380811F928F93BF92AF92DF923E
S11303C0CF920E94C108F70113820FB6F894DEBFE2
S11303D00FBECDBF8081813029F4818192819C83BD
S11303E08B839B8600E820E444EB50E060E070E0FF
S11303F0CB010E9467010E94EF03AB01BC01CE0157
S113040001960E94340289B1111105C04A9BCACFDA
S113041089B1192DC7CF4A99C5CF182DC3CFCF9213
S1130420DF92EF920F93CF93DF93EC01FC01EE5B2D
S1130430FF4F1082798368836C018EE3C80ED11C50
S113044060E070E080E89FE30E94FF04F6016083AF
S11304507183828393830CAFEDAEDF91CF910F91C3
S1130460EF90DF90CF9008954F925F926F927F92BA
S11304708F929F92AF92BF92CF92DF92EF92FF92B0
S11304800F931F93CF93DF93EC014A015B01FC01AF
S1130490EE5BFF4F8081813071F020F0823009F4EF
S11304A015C166C18A85813009F062C1FE01EE5B27
S11304B0FF4F80835DC182E0FE01EE5BFF4F8083CE
S11304C08A819B8128813981821B930B9A8B898B2A
S11304D0181619062CF495B18CAD892B85B916C064
S11304E099236CF495B18CAD8095892385B989895C
S11304F09A899195819591099A8B898B07C0892B4B
S113050029F4FE01EE5BFF4F10821A8669897A890D
S1130510072E000C880B990B0E94A9056E012EE38F
S1130520C20ED11CF60120813181428153810E9487
S113053035060E9471057D836C8395B18DAD8095E0
S1130540892385B988AE99AEAAAEBBAE8AE090E0A5
S11305509E878D8785E090E0988B8F8789899A891B
S11305608C01000F111F880F991F880F991F880F86
S1130570991F080F191F4801880C991C880C991C95
S1130580A12CB12CC501B4010E94A7059B01AC01AB
S113059060E070E48CE195E40E9492040E94F80605
S11305A09B01AC0160E070E088E492E40E94920454
S11305B020E030E040E05FE30E9435060E947805C9
S11305C07C876B8780E090E00E94A7054B015C016B
S11305D0EC80FD80B7010F2C000C880B990B0E9456
S11305E0A9052B013C01A5019401C501B4010E9498
S11305F035069B01AC01C301B2010E9435062B01F3
S11306003C01B801660F771F80E090E00E94A705C7
S11306109B01AC01C301B2010E94FF040E94710559
S11306208B0179876887E61AF70AFF82EE82F60162
S11306302081318142815381C501B4010E94350674
S11306409B01AC0160E070E080E89FE30E94FF043E
S113065020E030E44CE156E40E9435060E94710526
S11306606B017C017FAB6EABCB01B8010E947408B7
S11306706B8B77276C9DC0016D9D900D7C9D900DBB
S113068011249D8B8C8B87E191E00E948D048989D4
S11306909A890E9488048C819D810E9488048E819D
S11306A09F810E948804888599850E9488048B898B
S11306B090E00E9488048EA99FA90E9488048C89D6
S11306C09D890E9488041F8A1E8A52C082E0FE010E
S11306D0EE5BFF4F808388AD99ADAAADBBAD481BDF
S11306E0590B6A0B7B0BEB898E899F89E89F9001DC
S11306F0E99F300D11248C899D89821B930BA0E006
S1130700B0E084179507A607B70790F595B18DADAE
S1130710892B85B988AE99AEAAAEBBAE8C819D817A
S113072001979D838C83009749F42A813B81398307
S11307302883FE01EE5BFF4F10821A862E813F81D3
S11307402817390734F48E899F8901969F8B8E8BE5
S11307500AC028853985821793072CF48E899F89CE
S113076001979F8B8E8B95B18DAD8095892385B92B
S1130770CE5BDF4F8881DF91CF911F910F91FF9066
S1130780EF90DF90CF90BF90AF909F908F907F902D
S11307906F905F904F90089510928000E1E8F0E030
S11307A01082109285001092840088E190E090936A
S11307B08900809388008081886080838081836041
S11307C08083EFE6F0E080818260808310922F01C5
S11307D0109230011092310110923201089560910B
S11307E02F0170913001809131019091320108956F
S11307F01F920F920FB60F9211248F939F93AF9372
S1130800BF9380912F0190913001A0913101B0915B
S113081032010196A11DB11D80932F0190933001E7
S1130820A0933101B0933201BF91AF919F918F9109
S11308300F900FBE0F901F90189528E92093C100C8
S113084026E02093C200BC0180E090E00E94A7054E
S113085020E030E040E851E40E9435069B01AC0101
S113086060E074E284E79BE40E94FF0420E030E04F
S113087040E85FE30E9492040E9478057093C500EB
S11308806093C4000895E0ECF0E0908195FFFDCF03
S11308908093C60008958AE00E94430408950F934C
S11308A01F93CF93DF93CDB7DEB72A970FB6F89493
S11308B0DEBF0FBECDBF4AE0BE016F5F7F4F0E9417
S11308C09C088981882351F08E010E5F1F4F0E947E
S11308D04304F80181918F018111F9CF2A960FB653
S11308E0F894DEBF0FBECDBFDF91CF911F910F9162
S11308F00895CF93DF93EC018881882331F021960A
S11309000E94430489918111FBCFDF91CF91089517
S11309100E944F040E944B0408950E9479040E948F
S11309204B0408955058BB27AA270E94AA040C948C
S1130930FB050E94ED0538F00E94F40520F039F41F
S11309409F3F19F426F40C94EA050EF4E095E7FBB6
S11309500C94E405E92F0E940C0658F3BA176207B9
S113096073078407950720F079F4A6F50C942E06F6
S11309700EF4E0950B2EBA2FA02D0B01B9019001B6
S11309800C01CA01A0011124FF27591B99F0593FFA
S113099050F4503E68F11A16F040A22F232F342F42
S11309A04427585FF3CF469537952795A795F04090
S11309B05395C9F77EF41F16BA0B620B730B840BA5
S11309C0BAF09150A1F0FF0FBB1F661F771F881F5D
S11309D0C2F70EC0BA0F621F731F841F48F48795B5
S11309E077956795B795F7959E3F08F0B0CF9395A7
S11309F0880F08F09927EE0F9795879508950E9420
S1130A0013050C94FB050E94F40558F00E94ED05B3
S1130A1040F029F45F3F29F00C94E40551110C9443
S1130A202F060C94EA050E940C0668F39923B1F38F
S1130A30552391F3951B550BBB27AA276217730700
S1130A40840738F09F5F5F4F220F331F441FAA1F94
S1130A50A9F335D00E2E3AF0E0E832D09150504050
S1130A60E695001CCAF72BD0FE2F29D0660F771FFE
S1130A70881FBB1F261737074807AB07B0E809F0E4
S1130A80BB0B802DBF01FF2793585F4F3AF09E3F69
S1130A90510578F00C94E4050C942F065F3FE4F3C1
S1130AA0983ED4F3869577956795B795F7959F5FAC
S1130AB0C9F7880F911D9695879597F90895E1E0F8
S1130AC0660F771F881FBB1F621773078407BA0757
S1130AD020F0621B730B840BBA0BEE1F88F7E095B2
S1130AE008950E9478056894B1110C942F06089516
S1130AF00E94140688F09F5798F0B92F9927B75190
S1130B00B0F0E1F0660F771F881F991F1AF0BA95AD
S1130B10C9F714C0B13091F00E942E06B1E00895D7
S1130B200C942E06672F782F8827B85F39F0B93FC9
S1130B30CCF3869577956795B395D9F73EF4909560
S1130B408095709561957F4F8F4F9F4F0895E894DE
S1130B5009C097FB3EF490958095709561957F4F01
S1130B608F4F9F4F9923A9F0F92F96E9BB279395AF
S1130B70F695879577956795B795F111F8CFFAF4BF
S1130B80BB0F11F460FF1BC06F5F7F4F8F4F9F4FF0
S1130B9016C0882311F096E911C0772321F09EE84E
S1130BA0872F762F05C0662371F096E8862F70E0B4
S1130BB060E02AF09A95660F771F881FDAF7880F8E
S1130BC09695879597F9089597F99F6780E870E05F
S1130BD060E008959FEF80EC089500240A941616AF
S1130BE0170618060906089500240A941216130617
S1130BF0140605060895092E0394000C11F48823A5
S1130C0052F0BB0F40F4BF2B11F460FF04C06F5FC0
S1130C107F4F8F4F9F4F089557FD9058440F551F96
S1130C2059F05F3F71F04795880F97FB991F61F06A
S1130C309F3F79F087950895121613061406551FE1
S1130C40F2CF4695F1DF08C0161617061806991F4D
S1130C50F1CF86957105610508940895E894BB2742
S1130C6066277727CB0197F908950E9448060C94CC
S1130C70FB050E94ED0538F00E94F40520F0952351
S1130C8011F00C94E4050C94EA0511240C942F063D
S1130C900E940C0670F3959FC1F3950F50E0551F09
S1130CA0629FF001729FBB27F00DB11D639FAA27BD
S1130CB0F00DB11DAA1F649F6627B00DA11D661F0C
S1130CC0829F2227B00DA11D621F739FB00DA11D2D
S1130CD0621F839FA00D611D221F749F3327A00DE7
S1130CE0611D231F849F600D211D822F762F6A2F83
S1130CF011249F5750409AF0F1F088234AF0EE0FE8
S1130D00FF1FBB1F661F771F881F91505040A9F714
S1130D109E3F510580F00C94E4050C942F065F3F30
S1130D20E4F3983ED4F3869577956795B795F79550
S1130D30E7959F5FC1F7FE2B880F911D96958795C8
S1130D4097F90895FA01EE0FFF1F3096210531053A
S1130D50A1F16115710561F48038BFE39B0749F186
S1130D6068949038810561F08038BFEF9B0741F0AB
S1130D7099234AF5FF3FE1053105210519F1E8946E
S1130D800894E795D901AA2329F4AB2FBE2FF85F65
S1130D90D0F310C0FF5F70F4A695E0F7F73950F078
S1130DA019F0FF3A38F49F779F930DD00F9007FC0A
S1130DB09058089546F00C94EA0560E070E080E8ED
S1130DC09FE308954FE79F775F934F933F932F934C
S1130DD00E94F8072F913F914F915F910E94350631
S1130DE00C94400719F416F40C94EA050C94720759
S1130DF00E941406B8F39923C9F3B6F39F57550B11
S1130E0087FF0E9480070024A0E640EA90018058F2
S1130E105695979528F4805C660F771F881F20F0FD
S1130E2026173707480730F4621B730B840B2029FD
S1130E3031294A2BA69517940794202531254A2752
S1130E4058F7660F771F881F20F0261737074807C3
S1130E5030F4620B730B840B200D311D411DA095E2
S1130E6081F7B901842F9158880F96958795089535
S1130E7029F416F00C94E4050C942E060C94EA055F
S1130E800E941406A8F39638A0F707F80F92E89486
S1130E902BE33AEA48EB5FE70E944B060F920F926E
S1130EA00F924DB75EB70F920E944008E8E6F0E05B
S1130EB00E9487074F915F91EF91FF91E595EE1F97
S1130EC0FF1F49F0FE57E0684427EE0F441FFA95D0
S1130ED0E1F74195550B0E94BA070F9007FE0C9459
S1130EE0AE0708959F3F31F0915020F48795779590
S1130EF06795B795880F911D9695879597F90895ED
S1130F0091505040660F771F881FD2F70895DF93E2
S1130F10CF931F930F93FF92EF92DF927B018C018B
S1130F20689406C0DA2EEF010E944806FE01E89498
S1130F30A5912591359145915591A6F3EF010E9414
S1130F40AA04FE019701A801DA9469F7DF90EF90F3
S1130F50FF900F911F91CF91DF9108959B01AC01F8
S1130F6060E070E080E89FE30C94FF040C94E405D7
S1130F700C9472070E941406D8F39923C9F3940FB2
S1130F80511DA3F39150504094F059F0882332F04E
S1130F90660F771F881F91505040C1F79E3F51053F
S1130FA02CF7880F911D9695879597F908955F3FC3
S1130FB0ACF0983E9CF0BB27869577956795B795DE
S1130FC008F4B1609395C1F7BB0F58F711F460FFB3
S1130FD0E8CF6F5F7F4F8F4F9F4FE3CF0C942F0667
S1130FE016F00C9472070C94EA0568940C94E405CA
S1130FF00E941406A8F39923C1F3AEF3DF93CF93B1
S11310001F930F93FF92C92FDD2788232AF021977E
S1131010660F771F881FDAF720E030E040E85FEBC7
S11310209FE3883920F0803E38F021968F770E9424
S11310309304E0E9F0E004C00E949304EDEBF0E0D7
S11310400E9487078B01BE01EC01FB2E6F577109CB
S11310507595771F880B990B0E94A90528E132E743
S113106041E35FE30E944806AF2D9801AE01FF9073
S11310700F911F91CF91DF910E94AA040C94FB055C
S1131080FA01DC01AA0FBB1F9B01AC01BF5728F476
S1131090222733274427507820C0B75190F4AB2F30
S11310A00024469537952795011CA395D2F300207B
S11310B071F0220F331F441FB395DAF30ED00C9452
S11310C0920461307105A0E88A07B94630F49B01A7
S11310D0AC016627772788279078309621F0208303
S11310E0318342835383089597FB072E16F40094AB
S11310F007D077FD09D00E94880807FC05D03EF48C
S1131100909581959F4F0895709561957F4F0895AF
S1131110AA1BBB1B51E107C0AA1FBB1FA617B70719
S113112010F0A61BB70B881F991F5A95A9F7809535
S11311309095BC01CD010895BB274A3031F4992321
S113114022F4BDE2909581959F4F0C94A808BB278B
S1131150FB015527AA27880F991FAA1FA41710F06F
S1131160A41B83955051B9F7A05DAA3308F0A95D7B
S1131170A193009779F7B111B1931192CB010C941B
S1131180DA0AAEE0B0E0E7ECF8E00C94920B0D89DB
S11311901E8986E08C831A8309838FEF9FE79E83E1
S11311A08D83AE01475E5F4F6F89788DCE010196C6
S11311B00E94E308EF81F885E00FF11F10822E965C
S11311C0E4E00C94AE0BABE0B0E0E9EEF8E00C9494
S11311D0840B6C017B018A01FC01178216828381D6
S11311E081FFCCC1CE0101963C01F6019381F70148
S11311F093FD859193FF81917F01882309F4BAC1FE
S1131200853239F493FD859193FF81917F01853275
S113121029F4B60190E00E94EA0AE7CF912C212C30
S1131220312CFFE1F315D8F08B3279F038F48032A9
S113123079F08332A1F4232D20611DC08D3261F039
S1131240803369F4232D216016C0832D8260382EEB
S1131250E32DE4603E2E2AC0F32DF8601DC037FC58
S11312602DC020ED280F2A3040F08E32B9F436FC20
S113127081C1232D2064322E19C036FE06C08AE0B7
S1131280989E200D1124922E11C0EAE02E9E200D6E
S11312901124222EF32DF0623F2E08C08C3621F447
S11312A0832D8068382E02C0883641F4F70193FDFF
S11312B0859193FF81917F018111B3CF982F9F7DF9
S11312C09554933028F40C5F1F4F9FE399830DC00E
S11312D0833631F0833771F0833509F059C021C06A
S11312E0F801808189830E5F1F4F88248394912C99
S11312F0530113C02801F2E04F0E511CF801A080E5
S1131300B18036FE03C0692D70E002C06FEF7FEF3D
S1131310C5010E94CF0A4C018201F32DFF773F2EB5
S113132016C0280122E0420E511CF801A080B180B1
S113133036FE03C0692D70E002C06FEF7FEFC50178
S11313400E94C40A4C01F32DF0683F2E820133FC45
S11313501BC0822D90E088169906B0F4B60180E295
S113136090E00E94EA0A2A94F4CFF50137FC8591B3
S113137037FE81915F01B60190E00E94EA0A2110D4
S11313802A9421E0821A91088114910471F7E8C02B
S1131390843611F0893641F5F80137FE07C06081C3
S11313A07181828193810C5F1F4F08C060817181BC
S11313B0072E000C880B990B0E5F1F4FF32DFF7641
S11313C03F2E97FF09C090958095709561957F4F4A
S11313D08F4F9F4FF0683F2E2AE030E0A3010E9418
S11313E0260B882E861845C0853731F4232D2F7E91
S11313F0B22E2AE030E025C0932D997FB92E8F3686
S1131400C1F018F4883579F0B5C0803719F0883701
S113141021F0B0C0E92FE061BE2EB4FE0DC0FB2D5B
S1131420F460BF2E09C034FE0AC0292F2660B22EF4
S113143006C028E030E005C020E130E002C020E131
S113144032E0F801B7FE07C0608171818281938127
S11314500C5F1F4F06C06081718180E090E00E5FD9
S11314601F4FA3010E94260B882E8618FB2DFF77A1
S11314703F2E36FE0DC0232D2E7FA22E891458F444
S113148034FE0BC032FC09C0832D8E7EA82E05C00D
S1131490B82CA32C03C0B82C01C0B92CA4FE0FC0D7
S11314A0FE01E80DF11D8081803321F49A2D997E8F
S11314B0A92E09C0A2FE06C0B394B39404C08A2D19
S11314C0867809F0B394A3FC11C0A0FE06C0B21440
S11314D088F4280C922C9B180EC0B21460F4B60148
S11314E080E290E00E94EA0AB394F7CFB21418F4B1
S11314F02B1802C0982C212CA4FE10C0B60180E346
S113150090E00E94EA0AA2FE17C0A1FC03C088E78B
S113151090E002C088E590E0B6010CC08A2D867880
S113152059F0A1FE02C08BE201C080E2A7FC8DE26B
S1131530B60190E00E94EA0A891438F4B60180E307
S113154090E00E94EA0A9A94F7CF8A94F301E80D96
S1131550F11D8081B60190E00E94EA0A8110F5CF66
S1131560222009F442CEB60180E290E00E94EA0A09
S11315702A94F6CFF6018681978102C08FEF9FEF00
S11315802B96E2E10C94A00BFC0105906150704095
S11315900110D8F7809590958E0F9F1F0895FC0138
S11315A06150704001900110D8F7809590958E0F8E
S11315B09F1F0895DC01FC01672F71917723E1F7E8
S11315C0329704C07C916D9370836291AE17BF070C
S11315D0C8F308950F931F93CF93DF93FB012381E7
S11315E021FD03C08FEF9FEF2CC022FF16C0468160
S11315F05781248135814217530744F4A081B18176
S11316009D012F5F3F4F318320838C932681378147
S11316102F5F3F4F3783268314C08B01EC01FB01FE
S11316200084F185E02D0995892BE1F6D801169601
S11316308D919C911797019617969C938E9316976C
S1131640CE01DF91CF911F910F910895FA01AA273E
S1131650283051F1203181F1E8946F936E7F6E5FF1
S11316607F4F8F4F9F4FAF4FB1E03ED0B4E03CD09F
S1131670670F781F891F9A1FA11D680F791F8A1F82
S1131680911DA11D6A0F711D811D911DA11D20D0E9
S113169009F468943F912AE0269F11243019305DA3
S11316A03193DEF6CF010895462F4770405D419394
S11316B0B3E00FD0C9F7F6CF462F4F70405D4A33E1
S11316C018F0495D31FD4052419302D0A9F7EACFA9
S11316D0B4E0A6959795879577956795BA95C9F7D8
S11316E000976105710508959B01AC010A2E0694CB
S11316F05795479537952795BA95C9F7620F731F84
S1131700841F951FA01D08952F923F924F925F92C0
S11317106F927F928F929F92AF92BF92CF92DF92FD
S1131720EF92FF920F931F93CF93DF93CDB7DEB762
S1131730CA1BDB0B0FB6F894DEBF0FBECDBF0994F6
S11317402A88398848885F846E847D848C849B844D
S1131750AA84B984C884DF80EE80FD800C811B815B
S1131760AA81B981CE0FD11D0FB6F894DEBF0FBE8A
S10D1770CDBFED010895F894FFCFFA
S113177A4D6F746F722025642C20616E676C65202E
S113178A3D202025640A0023232323232323232300
S105179A230026
S9030000FC
