:100000000C9434000C9451000C9451000C94510049
:100010000C9451000C9451000C9451000C948E04DB
:100020000C9451000C9451000C9451000C9451000C
:100030000C9451000C9451000C9451000C945100FC
:100040000C9451000C9451000C9453000C945100EA
:100050000C9451000C9451000C9451000C945100DC
:100060000C9451000C94510011241FBECFEFD8E026
:10007000DEBFCDBF11E0A0E0B1E0E4E3F1E102C0FA
:1000800005900D92A437B107D9F721E0A4E7B1E0BC
:1000900001C01D92A039B207E1F70E94BC000C9488
:1000A00098080C9400001F920F920FB60F92112423
:1000B0002F933F938F939F93EF93FF9310928A0117
:1000C000109289019091C60080918B01813091F04E
:1000D00018F08230C9F035C09D3421F481E080935E
:1000E0008B012FC0923769F58BE68093C600109282
:1000F0008B0127C09093780182E080938B0110924E
:100100007501109274011DC0209174013091750128
:10011000F901EE0FFF1FE858FE4F892F90E0928300
:100120008183C901019690937501809374010897AA
:1001300041F410928B0181E090E090938A018093CA
:100140008901FF91EF919F918F913F912F910F9096
:100150000FBE0F901F90189584B18D6284B98CB535
:1001600080658CBD08952898809176018EBD0DB470
:1001700007FEFDCF289A0895CF93DF93CDB7DEB762
:10018000A8970FB6F894DEBF0FBECDBF0E94AC009B
:10019000E0E8F0E0808183628083A1E8B0E08C91A8
:1001A00084608C93529A84B5836184BD85B58460E4
:1001B00085BD84B5836484BD8081896880838AB16C
:1001C00084618AB96894EE24E4F804E02CE93FEDF8
:1001D00040E35DE360E070E0CE0101960E947F01A4
:1001E000E6E7F1E0118284E080830E94B30088E2B8
:1001F0008093B40080E895E20E94B3040E946604F4
:10020000789408E711E00F2EF4E6FF2EF02DEE248F
:10021000E394D80151968D919C915297019709F0E2
:1002200065C052961C921E9251971B968D919C917F
:100230001C97F89EA001F99E500D11241D968D91DA
:100240009C911E97BC01660F771F9C01220F331FE4
:10025000220F331F220F331FCB01820F931F840FF6
:10026000951F1F962D913C915097820F931F1996C1
:100270002D913C911A972D32310519F49195819564
:100280009109F8012081211131C0418152810380FF
:10029000F481E02DD80115962D913C911697179673
:1002A0006D917C9118979D838C83CA01880F991F4B
:1002B000440F551F440F551F440F551F480F591F1A
:1002C0004E0F5F1F405351095F874E87C901880F4A
:1002D000991F220F331F220F331F220F331F280FA6
:1002E000391F260F371F3D872C87E9820E9485041E
:1002F000AB01BC01CE0101960E948F028ACFEF9222
:100300000F93CF93DF93EC011FA27A83698360E0A0
:1003100070E080E89FE30E94F3056BA37CA38DA3AC
:100320009EA309A3EAA21D8E1E8E1F8E18A21F86F1
:10033000188A198A1A8ADF91CF910F91EF90089548
:10034000CF92DF92EF92FF920F931F93CF93DF93A1
:10035000EC019BB18AA1892B8BB98D8D9E8DAF8DC0
:10036000B8A18A019B01081B190B2A0B3B0B8B8937
:100370009C89AD89BE8980179107A207B30708F051
:10038000C4C04D8F5E8F6F8F78A38FA1833009F427
:1003900053C0843009F46CC0823009F0ACC0CF8403
:1003A000D888E988FA88C701B601660F771F881FC9
:1003B000991F2F89388D8901330F220B330B000FC2
:1003C000111F221F331F000F111F221F331FA901EE
:1003D00098012F5F3F4F4F4F5F4F0E94F107C701BA
:1003E000B601621B730B840B950B6F87788B898B1F
:1003F0009A8B28EE33E040E050E00E94F1072B8B0F
:100400003C8B4D8B5E8B298D3A8D8F81988528177B
:10041000390760F080E091E00E9463056B897C8978
:100420008D899E890E947C0583E08FA38F89988D9A
:100430000196988F8F8B5FC0298D3A8D89859A851B
:100440002817390708F457C084E08FA38F89988D47
:10045000919581959109988F8F8B88E091E00E940A
:1004600063056B897C898D899E890E947C0543C0C8
:10047000CF84D888E988FA88C701B601660F771F4C
:10048000881F991F2F89388D220F331F220F331F8A
:100490002F5F3F4F032E000C440B550B0E94130897
:1004A000C701B601621B730B840B950B6F87788BAA
:1004B000898B9A8B28EE33E040E050E00E94F107F0
:1004C0002B8B3C8B4D8B5E8B298D3A8D8D819E8144
:1004D0002817390758F0188284E191E00E946305DB
:1004E0006B897C898D899E890E947C058F89988D76
:1004F0000196988F8F8B9BB18AA1809589238BB9A8
:10050000898D9A8D01969A8F898F8FA1DF91CF91D6
:100510001F910F91FF90EF90DF90CF9008952F9251
:100520003F924F925F926F927F928F929F92AF9283
:10053000BF92CF92DF92EF92FF920F931F93CF93D0
:10054000DF93CDB7DEB760970FB6F894DEBF0FBE6E
:10055000CDBF988B8F872A013B01DC018C918130C4
:1005600009F095C182E097968C93979713968D9199
:100570009C91149711962D913C9112978C01021B1E
:10058000130B12969C938E9311971016110634F448
:100590009BB191968C91892B8BB914C011235CF47B
:1005A0009BB1EF85F88981A1809589238BB911953D
:1005B0000195110907C00115110521F4AF85B8890E
:1005C00097961C92AF85B88993968D919D910D90C9
:1005D000BC91A02D89879A87AB87BC87B801012E73
:1005E000000C880B990B0E949D0629853A854B8546
:1005F0005C850E9429070E946C066B017C01EF85D7
:10060000F889768365832384348485859685289E3E
:10061000B001299E700D389E700D112480E090E08D
:100620000E949B0669837A838B839C83029DC00111
:10063000039D900D129D900D11249E878D87298119
:100640003A814B815C81CA01B9010E9429076D83FF
:100650007E838F8398878D849E84880C991C880C58
:10066000991CA12CB12CC501B4010E949B069B01D1
:10067000AC016D817E818F8198850E9486050E94E4
:100680009C079B01AC0169817A818B819C810E94CE
:10069000860520E030E040E05FE30E9429070E94E9
:1006A0006C064B015C0180E090E00E949B06698330
:1006B0007A838B839C83B60180E090E00E949B0646
:1006C0006D837E838F83988729813A814B815C81FA
:1006D000CA01B9010E9429079B01AC016D817E818D
:1006E0008F8198850E94290769837A838B839C83F5
:1006F0006D857E85660F771F80E090E00E949B06E7
:100700009B01AC0169817A818B819C810E94F305F8
:100710000E946C06AF85B88918967C936E931797E4
:10072000C601861B970B1A969C938E9319976101AD
:10073000E12CF12CC701B6010E949B0629853A8560
:100740004B855C850E9429079B01AC0160E070E04D
:1007500080E090E40E94F3050E949C0720E030E4D2
:100760004CE156E40E94290720E030E04AE754E4D7
:100770000E9429070E946506EF85F8896787708BBC
:10078000818B928B128E118E21E030E0308F278B7F
:1007900028EE33E040E050E00E94F107AF85B889D1
:1007A00053962D933D934D935C93569782E08C9393
:1007B0008DE191E00E94770582E391E00E9463055C
:1007C000C8010E94720589E391E00E946305EF85EC
:1007D000F889858596850E94720583E491E00E94E0
:1007E0006305AF85B8891B968D919C911C970E94DB
:1007F000720581E591E00E946305C4010E947205C3
:1008000087E591E00E946305EF85F88985819681EF
:100810000E9472058BE591E00E946305AF85B8895F
:1008200017968D919C9118970E9472058FE591E023
:100830000E946305EF85F889818592850E94720583
:1008400083E691E00E946305AF85B8891F966D919C
:100850007D918D919C9152970E94810588E691E04F
:100860000E946305EF85F889638974898589968973
:100870000E947C058DE191E00E947705AF85B889E3
:100880005D964D925D926D927C92909706C08230FB
:1008900021F48F8598890E94A00160960FB6F89484
:1008A000DEBF0FBECDBFDF91CF911F910F91FF90A3
:1008B000EF90DF90CF90BF90AF909F908F907F9000
:1008C0006F905F904F903F902F900895A0EBB0E015
:1008D0001C92E1EBF0E010821092B20088E180936C
:1008E000B3008C9182608C93808184608083E0E788
:1008F000F0E080818260808310928C0110928D01E3
:1009000010928E0110928F01089560918C01709168
:100910008D0180918E0190918F0108951F920F9209
:100920000FB60F9211248F939F93AF93BF93809133
:100930008C0190918D01A0918E01B0918F01019653
:10094000A11DB11D80938C0190938D01A0938E0108
:10095000B0938F01BF91AF919F918F910F900FBE78
:100960000F901F90189528E92093C10026E020934E
:10097000C200BC0180E090E00E949B0620E030E0D5
:1009800040E851E40E9429079B01AC0160E074E259
:1009900084E79BE40E94F30520E030E040E85FE359
:1009A0000E9486050E946C067093C5006093C40087
:1009B0000895E0ECF0E0908195FFFDCF8093C600B4
:1009C00008958AE00E94D90408950F931F93CF934E
:1009D000DF93CDB7DEB72A970FB6F894DEBF0FBE10
:1009E000CDBF4AE0BE016F5F7F4F0E943208898110
:1009F000882351F08E010E5F1F4F0E94D904F80129
:100A000081918F018111F9CF2A960FB6F894DEBF3C
:100A10000FBECDBFDF91CF911F910F9108950F931E
:100A20001F93CF93DF93CDB7DEB72B970FB6F89414
:100A3000DEBF0FBECDBF2AE0AE014F5F5F4F0E9409
:100A40003D088981882351F08E010E5F1F4F0E945F
:100A5000D904F80181918F018111F9CF2B960FB63E
:100A6000F894DEBF0FBECDBFDF91CF911F910F91E4
:100A700008950F931F93CF93DF93CDB7DEB72B97D6
:100A80000FB6F894DEBF0FBECDBF2AE0AE014F5FB8
:100A90005F4F0E944C088981882351F08E010E5FC0
:100AA0001F4F0E94D904F80181918F018111F9CF64
:100AB0002B960FB6F894DEBF0FBECDBFDF91CF915E
:100AC0001F910F910895CF93DF93EC0188818823C4
:100AD00031F021960E94D90489918111FBCFDF91D9
:100AE000CF9108950E94E5040E94E10408950E94B8
:100AF00063050E94E10408950E9439050E94E10403
:100B000008950E940F050E94E10408955058BB27E4
:100B1000AA270E949E050C94EF060E94E10638F079
:100B20000E94E80620F039F49F3F19F426F40C9453
:100B3000DE060EF4E095E7FB0C94D806E92F0E9440
:100B4000000758F3BA17620773078407950720F068
:100B500079F4A6F50C9422070EF4E0950B2EBA2F2B
:100B6000A02D0B01B90190010C01CA01A0011124B3
:100B7000FF27591B99F0593F50F4503E68F11A165F
:100B8000F040A22F232F342F4427585FF3CF4695F0
:100B900037952795A795F0405395C9F77EF41F1612
:100BA000BA0B620B730B840BBAF09150A1F0FF0FDC
:100BB000BB1F661F771F881FC2F70EC0BA0F621FC8
:100BC000731F841F48F4879577956795B795F795B8
:100BD0009E3F08F0B0CF9395880F08F09927EE0F4D
:100BE0009795879508950E9407060C94EF060E943A
:100BF000E80658F00E94E10640F029F45F3F29F032
:100C00000C94D80651110C9423070C94DE060E9414
:100C1000000768F39923B1F3552391F3951B550B06
:100C2000BB27AA2762177307840738F09F5F5F4FBF
:100C3000220F331F441FAA1FA9F335D00E2E3AF0FE
:100C4000E0E832D091505040E695001CCAF72BD016
:100C5000FE2F29D0660F771F881FBB1F2617370767
:100C60004807AB07B0E809F0BB0B802DBF01FF2799
:100C700093585F4F3AF09E3F510578F00C94D80698
:100C80000C9423075F3FE4F3983ED4F38695779561
:100C90006795B795F7959F5FC9F7880F911D969552
:100CA000879597F90895E1E0660F771F881FBB1FAE
:100CB000621773078407BA0720F0621B730B840B5B
:100CC000BA0BEE1F88F7E09508950E946C066894B1
:100CD000B1110C94230708950E94080788F09F57CC
:100CE00098F0B92F9927B751B0F0E1F0660F771F50
:100CF000881F991F1AF0BA95C9F714C0B13091F046
:100D00000E942207B1E008950C942207672F782FE4
:100D10008827B85F39F0B93FCCF38695779567950A
:100D2000B395D9F73EF490958095709561957F4F76
:100D30008F4F9F4F0895E89409C097FB3EF490951C
:100D40008095709561957F4F8F4F9F4F9923A9F0A4
:100D5000F92F96E9BB279395F69587957795679533
:100D6000B795F111F8CFFAF4BB0F11F460FF1BC077
:100D70006F5F7F4F8F4F9F4F16C0882311F096E90A
:100D800011C0772321F09EE8872F762F05C06623B8
:100D900071F096E8862F70E060E02AF09A95660F71
:100DA000771F881FDAF7880F9695879597F908952A
:100DB00097F99F6780E870E060E008959FEF80EC0E
:100DC000089500240A9416161706180609060895B1
:100DD00000240A9412161306140605060895092E17
:100DE0000394000C11F4882352F0BB0F40F4BF2B86
:100DF00011F460FF04C06F5F7F4F8F4F9F4F0895C6
:100E000057FD9058440F551F59F05F3F71F04795BB
:100E1000880F97FB991F61F09F3F79F087950895A0
:100E2000121613061406551FF2CF4695F1DF08C0BF
:100E3000161617061806991FF1CF869571056105DC
:100E400008940895E894BB2766277727CB0197F984
:100E500008950E943C070C94EF060E94E10638F0CA
:100E60000E94E80620F0952311F00C94D8060C940B
:100E7000DE0611240C9423070E94000770F3959F4F
:100E8000C1F3950F50E0551F629FF001729FBB2781
:100E9000F00DB11D639FAA27F00DB11DAA1F649F1D
:100EA0006627B00DA11D661F829F2227B00DA11DD0
:100EB000621F739FB00DA11D621F839FA00D611D56
:100EC000221F749F3327A00D611D231F849F600D77
:100ED000211D822F762F6A2F11249F5750409AF0A0
:100EE000F1F088234AF0EE0FFF1FBB1F661F771F2C
:100EF000881F91505040A9F79E3F510580F00C94F7
:100F0000D8060C9423075F3FE4F3983ED4F386950C
:100F100077956795B795F795E7959F5FC1F7FE2B96
:100F2000880F911D9695879597F9089519F416F4F1
:100F30000C94DE060C94DC070E940807B8F3992392
:100F4000C9F3B6F39F57550B87FF0E94EA070024A9
:100F5000A0E640EA900180585695979528F4805C69
:100F6000660F771F881F20F026173707480730F4D1
:100F7000621B730B840B202931294A2BA6951794E9
:100F80000794202531254A2758F7660F771F881FB9
:100F900020F026173707480730F4620B730B840BD9
:100FA000200D311D411DA09581F7B901842F915865
:100FB000880F9695879508959F3F31F0915020F4C2
:100FC000879577956795B795880F911D9695879525
:100FD00097F9089591505040660F771F881FD2F7F8
:100FE0000895A1E21A2EAA1BBB1BFD010DC0AA1F6A
:100FF000BB1FEE1FFF1FA217B307E407F50720F082
:10100000A21BB30BE40BF50B661F771F881F991FFC
:101010001A9469F760957095809590959B01AC0145
:10102000BD01CF010895052E97FB1EF400940E9488
:101030002A0857FD07D00E94F10707FC03D04EF4A1
:101040000C942A0850954095309521953F4F4F4F6D
:101050005F4F089590958095709561957F4F8F4F64
:101060009F4F0895BB274A3031F4992322F4BDE203
:10107000909581959F4F0C946F08BB272A3051F4AF
:10108000992342F4BDE290958095709561957F4FCC
:101090008F4F9F4F0C944D08BB27FA01A62F621764
:1010A000710581059105330B30FB66F0AA27660FA9
:1010B000771F881F991FAA1FA21710F0A21B639504
:1010C0003850A9F7A05DAA3308F0A95DA19336F7BF
:1010D000B111B1931082CA010C948808BB27FB019F
:1010E0005527AA27880F991FAA1FA41710F0A41B21
:1010F00083955051B9F7A05DAA3308F0A95DA1937B
:10110000009779F7B111B1931192CB010C94880833
:10111000DC01FC01672F71917723E1F7329704C05E
:101120007C916D9370836291AE17BF07C8F30895E9
:04113000F894FFCF61
:10113400535F414343454C00535F434F4E53544127
:101144004E542000535F444543454C200023232341
:10115400232323232323232323232323232323235B
:101164002300416E676C6520006475726174696F59
:101174006E2000416363656C65726174696F6E20F3
:1011840000766D61782000236E2000743020007496
:101194003120004C6F6E6720537465702074696D44
:0411A40065200000C2
:00000001FF
