S0100000526F626F7441726D2E73726563EE
S11300000C9434000C9451000C9451000C94510045
S11300100C9451000C9451000C9451000C94510018
S11300200C9451000C9451000C9451000C946D04E8
S11300300C9451000C9451000C9451000C945100F8
S11300400C9451000C9451000C945D000C945100DC
S11300500C9453000C9451000C9451000C945100D6
S11300600C9451000C94510011241FBECFEFD8E022
S1130070DEBFCDBF11E0A0E0B1E0E2EAFFE002C0E4
S113008005900D92AE34B107D9F721E0AEE4B1E0AA
S113009001C01D92A836B207E1F70E94DB000C9460
S11300A0CF070C9400001F920F920FB60F921124E9
S11300B00F900FBE0F901F9018951F920F920FB6BE
S11300C00F9211242F933F938F939F93EF93FF935A
S11300D010926201109261019091C60080916301B7
S11300E0813061F028F08230A9F0833089F132C088
S11300F09D3481F581E0809363012CC080ED890FEC
S11301008093500182E08093630110924F0110921A
S11301104E0120C020914E0130914F01F901EE0FA4
S1130120FF1FE05BFE4F892F90E092838183C9011A
S1130130019690934F0180934E01089759F41092C1
S1130140630181E090E0909362018093610102C0B9
S113015010926301FF91EF919F918F913F912F91A5
S11301600F900FBE0F901F901895EF92FF920F9370
S1130170CF937A01C22F0E94E605AB01161617062B
S113018044F42BB1C22BCBB92BB1009502230BB98C
S11301900BC02BB1C095C223CBB92BB1022B0BB929
S11301A044275527461B570BF7014083CF910F91E6
S11301B0FF90EF900895CF93DF93CDB7DEB7C4548B
S11301C0D1090FB6F894DEBF0FBECDBF78940E945C
S11301D0410480E895E20E949204559852988AB1AD
S11301E0886C8AB9E0EBF0E0808183628083E1EB84
S11301F0F0E080818160808384B18F6084B9EE24D3
S1130200E39402E02CE93FED40E35DE360E070E05D
S1130210CE0101960E94CD016894EE24E2F808E034
S113022022E338EA43E85EE360E070E0CE018396BF
S11302300E94CD0180E091E00E94020510E00F2EA3
S1130240F0E5EF2EF1E0FF2EF02D0F2EF4E65F2EF9
S1130250F02D77247394612CF70181899289019799
S113026009F076C0128A118A81819281C0974C016B
S1130270880C991C880F991F880F991F880F991F44
S1130280880D991D83809480F0E38F1A9108880E5D
S1130290991EF70185819681C0975C01AA0CBB1C4D
S11302A0880F991F880F991F880F991F8A0D9B1D0E
S11302B0A780B084F0E3AF1AB108A80EB91EF70105
S11302C083859485C097589E6001599ED00C112453
S11302D085859685C097AC01440F551F9C01220F5C
S11302E0331F220F331F220F331FCA01820F931FA4
S11302F08C0D9D1DC784D088F0E3CF1AD108C80E99
S1130300D91EC4010E94FD04C5010E94FD04C6015A
S11303100E94FD04F701818592858D9719F4D1948B
S1130320C194D108F7018081813019F0823049F0FD
S11303300FC0DD82CC829F868E86BD86AC86798294
S113034007C0DFA2CEA299AA88AABFA6AEA67BA2A6
S113035000E820E444EB50E060E070E0CB010E9450
S1130360B5000E946404AB01BC01CE0101960E9459
S1130370BC020E946404AB01BC01CE0183960E94BE
S1130380BC0289B1111105C04A9B66CF89B1172DF2
S113039063CF4A9961CF162D5FCFEF920F93CF931E
S11303A0DF93EC0119A27A83698360E070E080E84E
S11303B09FE30E9474056D8F7E8F8F8F98A30B8FA0
S11303C0EC8E1F8A188E198E1A8E188A1F86DF915A
S11303D0CF910F91EF9008958F929F92AF92BF9219
S11303E0CF92DF92EF92FF920F931F93CF93DF93FD
S11303F0EC0195B18C8D892B85B90F8518898F896E
S1130400988DA98DBA8D6A017B01C81AD90AEA0AA6
S1130410FB0AC801012E000CAA0BBB0B8C159D0511
S1130420AE05BF0508F09AC04F8B588F698F7A8F3D
S113043089A1833009F459C0843009F467C082303B
S113044009F082C0B801012E000C880B990B0E94A0
S11304501E066B017C01B801660F771F072E000C86
S1130460880B990B0E941E064B015C0169897A89ED
S1130470072E000C880B990B0E941E0620E030E02A
S113048040E850E40E94AA0620E030E040E85FE340
S11304900E9408059B01AC01C501B4010E947405CA
S11304A09B01AC01C701B6010E9407050E94E60545
S11304B06B3071051CF0788B6F8704C08AE090E084
S11304C0988B8F878F8598890E94FD042B893C899E
S11304D08F8198852817390711F483E089A38989C6
S11304E09A8901969A8B898B2FC02B893C8989859F
S11304F09A852817390741F584E089A389899A895F
S11305009195819591099A8B898B1EC029893A8985
S1130510C801880F991FB901660F771F660F771FEF
S11305206F5F7F4F0E947207061B170B188B0F8794
S11305304B895C898D819E814817590709F418827B
S11305402F5F3F4F3A8B298B95B18C8D80958923F2
S113055085B98B899C8901969C8B8B8B89A1DF91B2
S1130560CF911F910F91FF90EF90DF90CF90BF90AC
S1130570AF909F908F9008952F923F924F925F92E9
S11305806F927F928F929F92AF92BF92CF92DF929F
S1130590EF92FF920F931F93CF93DF93CDB7DEB704
S11305A02A970FB6F894DEBF0FBECDBF9A8789870E
S11305B0DC018C91813009F045C182E091968C93E5
S11305C0919713968D919C91149711962D913C912E
S11305D012975C01A21AB30A12969C938E931197F8
S11305E01A141B0434F495B15B968C91892B85B94C
S11305F014C0BB205CF495B1E985FA85838D8095A0
S1130600892385B9B194A194B10807C0A114B10498
S113061021F4A985BA8591961C92A985BA855D961F
S11306208D919D910D90BC91A02D89839A83AB836C
S1130630BC83B5010B2C000C880B990B0E941E0681
S113064029813A814B815C810E94AA060E94ED05B2
S11306502B013C01E985FA850385148585859685FA
S1130660089FB001099F700D189F700D112480E040
S113067090E00E941C066B017C01A09E1001A19ECB
S1130680300CB09E300C11249B01AC010E94AA06D0
S11306906D837E838F8398874101880C991C880C15
S11306A0991CA12CB12CC501B4010E941C069B010C
S11306B0AC016D817E818F8198850E9407050E941F
S11306C01D079B01AC01C701B6010E94070520E08C
S11306D030E040E05FE30E94AA060E94ED056B0152
S11306E07C0180E090E00E941C069B01AC010E940A
S11306F0AA064B015C01B20180E090E00E941C0656
S11307009B01AC01C501B4010E94AA064B015C0126
S1130710B101660F771F80E090E00E941C069B01E8
S1130720AC01C501B4010E9474050E94ED05A985C0
S1130730BA8518967C936E931797C201861B970B04
S11307401A969C938E931997C201019716969C93BF
S11307508E9315974801A12CB12CC501B4010E94B8
S11307601C0629813A814B815C810E94AA069B0167
S1130770AC0160E070E080E090E40E9474050E94A7
S11307801D0720E030E44CE156E40E94AA060E94D2
S1130790E605E985FA85708B6787148A138A81E0F8
S11307A090E0928B818B82E080838DE091E00E94C7
S11307B0020582E291E00E94EE04A985BA855D9665
S11307C06D917D918D919C9190970E94E605CB014E
S11307D00E94C40480E391E00E94EE04C6010E94DA
S11307E0FD0486E391E00E94EE04E985FA858581A3
S11307F096810E94FD048AE391E00E94EE04A9859B
S1130800BA8517968D919C9118970E94FD048EE3EA
S113081091E00E94EE04E985FA85818592850E9423
S1130820FD0482E491E00E94EE04A985BA851F9636
S11308308D919C9150970E94FD048DE091E00E945F
S1130840020506C0823021F489859A850E94EC0154
S11308502A960FB6F894DEBF0FBECDBFDF91CF91BD
S11308601F910F91FF90EF90DF90CF90BF90AF90CA
S11308709F908F907F906F905F904F903F902F90BC
S1130880089510928000E1E8F0E010821092850053
S11308901092840088E190E090938900809388000E
S11308A0808188608083808183608083EFE6F0E0CC
S11308B0808182608083109264011092650110929D
S11308C06601109267010895609164017091650159
S11308D0809166019091670108951F920F920FB65F
S11308E00F9211248F939F93AF93BF9380916401D0
S11308F090916501A0916601B09167010196A11DD7
S1130900B11D8093640190936501A0936601B09337
S11309106701BF91AF919F918F910F900FBE0F9080
S11309201F90189528E92093C10026E02093C20067
S1130930BC0180E090E00E941C0620E030E040E82A
S113094051E40E94AA069B01AC0160E074E284E7D2
S11309509BE40E94740520E030E040E85FE30E94DD
S113096007050E94ED057093C5006093C4000895C7
S1130970E0ECF0E0908195FFFDCF8093C6000895F0
S11309808AE00E94B80408950F931F93CF93DF93D6
S1130990CDB7DEB72A970FB6F894DEBF0FBECDBF32
S11309A04AE0BE016F5F7F4F0E949A0789818823C6
S11309B051F08E010E5F1F4F0E94B804F80181911F
S11309C08F018111F9CF2A960FB6F894DEBF0FBEBE
S11309D0CDBFDF91CF911F910F910895CF93DF93F6
S11309E0EC018881882331F021960E94B804899112
S11309F08111FBCFDF91CF9108950E94C4040E941E
S1130A00C00408950E94EE040E94C0040895505842
S1130A10BB27AA270E941F050C9470060E94620639
S1130A2038F00E94690620F039F49F3F19F426F447
S1130A300C945F060EF4E095E7FB0C945906E92F3D
S1130A400E94810658F3BA17620773078407950753
S1130A5020F079F4A6F50C94A3060EF4E0950B2E81
S1130A60BA2FA02D0B01B90190010C01CA01A001FC
S1130A701124FF27591B99F0593F50F4503E68F157
S1130A801A16F040A22F232F342F4427585FF3CF98
S1130A90469537952795A795F0405395C9F77EF469
S1130AA01F16BA0B620B730B840BBAF09150A1F0B2
S1130AB0FF0FBB1F661F771F881FC2F70EC0BA0F38
S1130AC0621F731F841F48F4879577956795B795C0
S1130AD0F7959E3F08F0B0CF9395880F08F09927BB
S1130AE0EE0F9795879508950E9488050C947006DB
S1130AF00E94690658F00E94620640F029F45F3FA4
S1130B0029F00C94590651110C94A4060C945F0618
S1130B100E94810668F39923B1F3552391F3951B41
S1130B20550BBB27AA2762177307840738F09F5F0A
S1130B305F4F220F331F441FAA1FA9F335D00E2E77
S1130B403AF0E0E832D091505040E695001CCAF7E4
S1130B502BD0FE2F29D0660F771F881FBB1F2617A7
S1130B6037074807AB07B0E809F0BB0B802DBF017E
S1130B70FF2793585F4F3AF09E3F510578F00C944D
S1130B8059060C94A4065F3FE4F3983ED4F386958B
S1130B9077956795B795F7959F5FC9F7880F911D6E
S1130BA09695879597F90895E1E0660F771F881F5A
S1130BB0BB1F621773078407BA0720F0621B730B0D
S1130BC0840BBA0BEE1F88F7E09508950E94ED059B
S1130BD06894B1110C94A40608950E94890688F0C3
S1130BE09F5798F0B92F9927B751B0F0E1F0660FED
S1130BF0771F881F991F1AF0BA95C9F714C0B1302E
S1130C0091F00E94A306B1E008950C94A306672F07
S1130C10782F8827B85F39F0B93FCCF3869577955C
S1130C206795B395D9F73EF4909580957095619545
S1130C307F4F8F4F9F4F0895E89409C097FB3EF470
S1130C4090958095709561957F4F8F4F9F4F992315
S1130C50A9F0F92F96E9BB279395F6958795779593
S1130C606795B795F111F8CFFAF4BB0F11F460FF53
S1130C701BC06F5F7F4F8F4F9F4F16C0882311F0AB
S1130C8096E911C0772321F09EE8872F762F05C0BF
S1130C90662371F096E8862F70E060E02AF09A955A
S1130CA0660F771F881FDAF7880F9695879597F94F
S1130CB0089597F99F6780E870E060E008959FEFDA
S1130CC080EC089500240A941616170618060906DF
S1130CD0089500240A9412161306140605060895AE
S1130CE0092E0394000C11F4882352F0BB0F40F436
S1130CF0BF2B11F460FF04C06F5F7F4F8F4F9F4F76
S1130D00089557FD9058440F551F59F05F3F71F0F7
S1130D104795880F97FB991F61F09F3F79F087955E
S1130D200895121613061406551FF2CF4695F1DFE7
S1130D3008C0161617061806991FF1CF8695710577
S1130D40610508940895E894BB2766277727CB01AB
S1130D5097F908950E94BD060C9470060E946206DD
S1130D6038F00E94690620F0952311F00C9459067E
S1130D700C945F0611240C94A4060E94810670F35F
S1130D80959FC1F3950F50E0551F629FF001729F2C
S1130D90BB27F00DB11D639FAA27F00DB11DAA1F3B
S1130DA0649F6627B00DA11D661F829F2227B00D88
S1130DB0A11D621F739FB00DA11D621F839FA00D13
S1130DC0611D221F749F3327A00D611D231F849F63
S1130DD0600D211D822F762F6A2F11249F575040BA
S1130DE09AF0F1F088234AF0EE0FFF1FBB1F661F35
S1130DF0771F881F91505040A9F79E3F510580F0FE
S1130E000C9459060C94A4065F3FE4F3983ED4F383
S1130E10869577956795B795F795E7959F5FC1F7A1
S1130E20FE2B880F911D9695879597F9089519F4CF
S1130E3016F40C945F060C945D070E948906B8F3BF
S1130E409923C9F3B6F39F57550B87FF0E946B078D
S1130E500024A0E640EA900180585695979528F41E
S1130E60805C660F771F881F20F026173707480716
S1130E7030F4621B730B840B202931294A2BA6956D
S1130E8017940794202531254A2758F7660F771FB2
S1130E90881F20F026173707480730F4620B730BBE
S1130EA0840B200D311D411DA09581F7B901842FBC
S1130EB09158880F9695879508959F3F31F09150EA
S1130EC020F4879577956795B795880F911D96952A
S1130ED0879597F9089591505040660F771F881FA2
S1130EE0D2F7089597FB072E16F4009407D077FDE8
S1130EF009D00E94860707FC05D03EF490958195A1
S1130F009F4F0895709561957F4F0895AA1BBB1B51
S1130F1051E107C0AA1FBB1FA617B70710F0A61BF5
S1130F20B70B881F991F5A95A9F780959095BC0116
S1130F30CD010895BB274A3031F4992322F4BDE250
S1130F40909581959F4F0C94A607BB27FB015527CD
S1130F50AA27880F991FAA1FA41710F0A41B839512
S1130F605051B9F7A05DAA3308F0A95DA193009789
S1130F7079F7B111B1931192CB010C94BF07DC0145
S1130F80FC01672F71917723E1F7329704C07C91BC
S1130F906D9370836291AE17BF07C8F30895F894F8
S1050FA0FFCF7D
S1130FA248656C6C6F20776F726C64210023232375
S1130FB223232323232323232323232323232323FB
S1130FC223005374657020746F20616E676C650032
S1130FD2766D61782000236E200074302000743115
S1110FE22000537465702074696D6520000052
S9030000FC
