S0100000526F626F7441726D2E73726563EE
S11300000C9434000C9451000C9451000C94510045
S11300100C9451000C9451000C9451000C94510018
S11300200C9451000C9451000C9451000C94C7048E
S11300300C9451000C9451000C9451000C945100F8
S11300400C9451000C9451000C945D000C945100DC
S11300500C9453000C9451000C9451000C945100D6
S11300600C9451000C94510011241FBECFEFD8E022
S1130070DEBFCDBF21E0A0E0B1E001C01D92AA31F6
S1130080B207E1F711E0A0E0B1E0EEE4FFE002C066
S113009005900D92A030B107D9F70E94B5000C94D9
S11300A0A5070C9400001F920F920FB60F92112413
S11300B00F900FBE0F901F9018951F920F920FB6BE
S11300C00F9211242F933F938F939F93EF93FF935A
S11300D010921401109213019091C60080911501A1
S11300E0813061F028F08230A9F0833089F132C088
S11300F09D3481F581E0809315012CC080ED890F3A
S11301008093020182E08093150110920101109204
S1130110000120C02091000130910101F901EE0F8E
S1130120FF1FEE5FFE4F892F90E092838183C90108
S113013001969093010180930001089759F410925D
S1130140150181E090E0909314018093130102C0A3
S113015010921501FF91EF919F918F913F912F91F3
S11301600F900FBE0F901F901895CF93DF93CDB7CC
S1130170DEB7CA56D1090FB6F894DEBF0FBECDBFA5
S113018078940E949B0480E895E20E94EC045598C0
S113019052988AB1886C8AB9E0EBF0E0808183627E
S11301A08083E1EBF0E080818160808384B18F60A3
S11301B084B9EE24E39402E02CE93FED40E35DE3EF
S11301C060E070E0CE0101960E9480026894EE2403
S11301D0E2F808E022E338EA43E85EE360E070E036
S11301E0CE0183960E94800200E820E44BE250E0B6
S11301F064EB70E0CE018B5B9F4F0E94C20160965E
S11302001FAE1EAE609720E030E040E050E06AE0B0
S113021070E0CE018B5B9F4F0E94D70102E011E09A
S11302200F2EF4E6FF2EF02DEE24E394D801519620
S11302308D919C915297019709F07EC052961C9221
S11302401E92519711968D919C911297C097AC0173
S1130250440F551F880F991F880F991F880F991FE6
S1130260840F951F13964D915C9114974053510937
S1130270480F591F15968D919C911697C0979C0114
S1130280220F331F880F991F880F991F880F991FFA
S1130290820F931F17966D917C9118976053710983
S11302A0680F791F1B968D919C911C97C097F89E9F
S11302B0F001F99EF00D11241D962D913C911E978D
S11302C0C901C097DC01AA0FBB1F9C01220F331F79
S11302D0220F331F220F331FCD01820F931F8E0F66
S11302E09F1FF8012785308920533109820F931FFE
S11302F0218532852D32310519F491958195910925
S1130300D8012C91213049F018F0223071F014C03A
S113031060969FAF8EAF60970FC09D838C835F877D
S11303204E877D876C87E98207C09FA38EA359AB54
S113033048AB7FA76EA7EBA20E94BE04AB01BC0131
S1130340CE0101960E9474030E94BE04AB01BC015D
S1130350CE0183960E9474030E94BE04AB01BC01CB
S1130360CE018B5B9F4F0E94180289B149B169B1DC
S113037040726470CE018B5B9F4F0E9466020E94A4
S1130380BE0454CF0F93FC0113A212861186118A66
S1130390128A138A148A178A108E118E128E24A33D
S11303A005A350A3478F72A361A30F910895CF9320
S11303B0DF93FC01EA0171836083538342833583B5
S11303C024836F5F7F4F24E630E0C9010E947D07DC
S11303D06087BE016F5F7F4FC9010E947D077783ED
S11303E06683DF91CF910895FC0121853285838551
S11303F09485281B390B368B258B408550E042179A
S1130400530784F0519541955109241735076CF031
S113041040815181249FC001259F900D349F900DF0
S11304201124089584E690E008958CE99FEF0895DF
S1130430CF92DF92EF92FF920F931F93CF93DF93AC
S1130440FC01038D148D258D368D6A017B01C01A44
S1130450D10AE20AF30A970186010B30110521053E
S1130460310558F1EC01438F548F658F768F0E94CC
S1130470F4011816190674F4EF8DF8A130812CA13B
S1130480232B2083EF8DF8A130812DA120952323E8
S1130490208310C0EF8DF8A130812CA12095232357
S11304A02083EF8DF8A130812DA1232B20839195FA
S11304B081959109E9A1FAA18083DF91CF911F91E0
S11304C00F91FF90EF90DF90CF900895FC0183A1EE
S11304D0811112C0662399F0442331F083859485F9
S11304E001969487838705C08385948501979487B3
S11304F0838781E083A30895611101C013A2089545
S1130500EF920F93CF93DF93EC0119A27A8369835F
S113051060E070E080E89FE30E947F056D8F7E8F2E
S11305208F8F98A30B8FEC8E1F8A188E198E1A8EBC
S1130530188A1F86DF91CF910F91EF9008954F9203
S11305405F926F927F928F929F92AF92BF92CF925F
S1130550DF92EF92FF920F931F93CF93DF93EC01FF
S113056095B18C8D892B85B90F8518898F89988DC4
S1130570A98DBA8D6A017B01C81AD90AEA0AFB0A55
S1130580C801012E000CAA0BBB0B8C159D05AE05F2
S1130590BF0508F097C04F8B588F698F7A8F89A158
S11305A0833009F456C0843009F464C0823009F001
S11305B07FC0E988FA88B801012E000C880B990BDA
S11305C00E9429064B015C01B801660F771F072EB4
S11305D0000C880B990B0E9429062B013C01B701E2
S11305E00F2C000C880B990B0E94290620E030E0A8
S11305F040E850E40E94B50620E030E040E85FE3C4
S11306000E9413059B01AC01C301B2010E947F0546
S11306109B01AC01C501B4010E9412050E94F105C1
S11306206B3071051CF0788B6F8704C08AE090E012
S1130630988B8F872B893C898F8198852817390758
S113064010F083E089A38FEFE81AF80AFA8AE98A9E
S11306502FC02B893C8989859A852817390740F151
S113066084E089A389899A899195819591099A8BC6
S1130670898B1EC029893A89C801880F991FB9013D
S1130680660F771F660F771F6F5F7F4F0E9491077A
S1130690061B170B188B0F874B895C898D819E81F4
S11306A04817590708F018822F5F3F4F3A8B298B60
S11306B095B18C8D8095892385B98B899C89019608
S11306C09C8B8B8B89A1DF91CF911F910F91FF9010
S11306D0EF90DF90CF90BF90AF909F908F907F90DE
S11306E06F905F904F9008952F923F924F925F9238
S11306F06F927F928F929F92AF92BF92CF92DF922E
S1130700EF92FF920F931F93CF93DF93CDB7DEB792
S11307102A970FB6F894DEBF0FBECDBF9A8789879C
S1130720FC018081813009F0E7C082E081A38381EC
S11307309481218132815C01A21AB30A928381835C
S11307401A141B042CF495B1838D892B85B913C01D
S1130750BB205CF495B1E985FA85838D8095892366
S113076085B9B194A194B10806C0A114B10419F4D7
S1130770E985FA8511A2E985FA85458C568C678C42
S113078070A0B5010B2C000C880B990B0E94290654
S1130790A30192010E94B5060E94F8056B017C0139
S11307A0E985FA8576836583038514858585968531
S11307B0089FB001099F700D189F700D112480E0EF
S11307C090E00E94270669837A838B839C83A09E92
S11307D01001A19E300CB09E300C11249B01AC0181
S11307E00E94B5066D837E838F8398874101880CB0
S11307F0991C880C991CA12CB12CC501B4010E9430
S113080027069B01AC016D817E818F8198850E94B2
S113081012050E9428079B01AC0169817A818B81B2
S11308209C810E94120520E030E040E05FE30E94DA
S1130830B5060E94F80580E090E00E9427064B016F
S11308405C01B60180E090E00E94270669837A8308
S11308508B839C83A5019401C501B4010E94B50654
S11308609B01AC0169817A818B819C810E94B506D0
S11308704B015C01B101660F771F80E090E00E949C
S113088027069B01AC01C501B4010E947F050E94AB
S1130890F805E985FA8570876783C601861B970B7F
S11308A0928781876801E12CF12CC701B6010E946F
S11308B02706A30192010E94B5069B01AC0160E0EA
S11308C070E080E090E40E947F050E94280720E009
S11308D030E44CE156E40E94B5060E94F105E98536
S11308E0FA85708B6787148A138A81E090E0928B73
S11308F0818B82E0808306C0823021F489859A85C9
S11309000E949F022A960FB6F894DEBF0FBECDBF99
S1130910DF91CF911F910F91FF90EF90DF90CF90D7
S1130920BF90AF909F908F907F906F905F904F900B
S11309303F902F90089510928000E1E8F0E010823B
S1130940109285001092840088E190E090938900D1
S11309508093880080818860808380818360808325
S1130960EFE6F0E08081826080831092160110929D
S1130970170110921801109219010895609116013F
S113098070911701809118019091190108951F9297
S11309900F920FB60F9211248F939F93AF93BF932F
S11309A08091160190911701A0911801B09119013D
S11309B00196A11DB11D8093160190931701A09378
S11309C01801B0931901BF91AF919F918F910F902E
S11309D00FBE0F901F90189528E92093C10026E0C0
S11309E02093C200BC0180E090E00E94270620E032
S11309F030E040E851E40E94B5069B01AC0160E0A0
S1130A0074E284E79BE40E947F0520E030E040E844
S1130A105FE30E9412050E94F8057093C50060937D
S1130A20C40008955058BB27AA270E942A050C9495
S1130A307B060E946D0638F00E94740620F039F49B
S1130A409F3F19F426F40C946A060EF4E095E7FB34
S1130A500C946406E92F0E948C0658F3BA176207B7
S1130A6073078407950720F079F4A6F50C94AE0675
S1130A700EF4E0950B2EBA2FA02D0B01B9019001B5
S1130A800C01CA01A0011124FF27591B99F0593FF9
S1130A9050F4503E68F11A16F040A22F232F342F41
S1130AA04427585FF3CF469537952795A795F0408F
S1130AB05395C9F77EF41F16BA0B620B730B840BA4
S1130AC0BAF09150A1F0FF0FBB1F661F771F881F5C
S1130AD0C2F70EC0BA0F621F731F841F48F48795B4
S1130AE077956795B795F7959E3F08F0B0CF9395A6
S1130AF0880F08F09927EE0F9795879508950E941F
S1130B0093050C947B060E94740658F00E946D06AF
S1130B1040F029F45F3F29F00C94640651110C94C1
S1130B20AF060C946A060E948C0668F39923B1F30D
S1130B30552391F3951B550BBB27AA2762177307FF
S1130B40840738F09F5F5F4F220F331F441FAA1F93
S1130B50A9F335D00E2E3AF0E0E832D0915050404F
S1130B60E695001CCAF72BD0FE2F29D0660F771FFD
S1130B70881FBB1F261737074807AB07B0E809F0E3
S1130B80BB0B802DBF01FF2793585F4F3AF09E3F68
S1130B90510578F00C9464060C94AF065F3FE4F3BF
S1130BA0983ED4F3869577956795B795F7959F5FAB
S1130BB0C9F7880F911D9695879597F90895E1E0F7
S1130BC0660F771F881FBB1F621773078407BA0756
S1130BD020F0621B730B840BBA0BEE1F88F7E095B1
S1130BE008950E94F8056894B1110C94AF06089515
S1130BF00E94940688F09F5798F0B92F9927B7510F
S1130C00B0F0E1F0660F771F881F991F1AF0BA95AC
S1130C10C9F714C0B13091F00E94AE06B1E0089556
S1130C200C94AE06672F782F8827B85F39F0B93F48
S1130C30CCF3869577956795B395D9F73EF490955F
S1130C408095709561957F4F8F4F9F4F0895E894DD
S1130C5009C097FB3EF490958095709561957F4F00
S1130C608F4F9F4F9923A9F0F92F96E9BB279395AE
S1130C70F695879577956795B795F111F8CFFAF4BE
S1130C80BB0F11F460FF1BC06F5F7F4F8F4F9F4FEF
S1130C9016C0882311F096E911C0772321F09EE84D
S1130CA0872F762F05C0662371F096E8862F70E0B3
S1130CB060E02AF09A95660F771F881FDAF7880F8D
S1130CC09695879597F9089597F99F6780E870E05E
S1130CD060E008959FEF80EC089500240A941616AE
S1130CE0170618060906089500240A941216130616
S1130CF0140605060895092E0394000C11F48823A4
S1130D0052F0BB0F40F4BF2B11F460FF04C06F5FBF
S1130D107F4F8F4F9F4F089557FD9058440F551F95
S1130D2059F05F3F71F04795880F97FB991F61F069
S1130D309F3F79F087950895121613061406551FE0
S1130D40F2CF4695F1DF08C0161617061806991F4C
S1130D50F1CF86957105610508940895E894BB2741
S1130D6066277727CB0197F908950E94C8060C944B
S1130D707B060E946D0638F00E94740620F09523CD
S1130D8011F00C9464060C946A0611240C94AF06BA
S1130D900E948C0670F3959FC1F3950F50E0551F88
S1130DA0629FF001729FBB27F00DB11D639FAA27BC
S1130DB0F00DB11DAA1F649F6627B00DA11D661F0B
S1130DC0829F2227B00DA11D621F739FB00DA11D2C
S1130DD0621F839FA00D611D221F749F3327A00DE6
S1130DE0611D231F849F600D211D822F762F6A2F82
S1130DF011249F5750409AF0F1F088234AF0EE0FE7
S1130E00FF1FBB1F661F771F881F91505040A9F713
S1130E109E3F510580F00C9464060C94AF065F3F2E
S1130E20E4F3983ED4F3869577956795B795F7954F
S1130E30E7959F5FC1F7FE2B880F911D96958795C7
S1130E4097F9089519F416F40C946A060C9468073B
S1130E500E949406B8F39923C9F3B6F39F57550B30
S1130E6087FF0E9476070024A0E640EA900180589C
S1130E705695979528F4805C660F771F881F20F09D
S1130E8026173707480730F4621B730B840B20299D
S1130E9031294A2BA69517940794202531254A27F2
S1130EA058F7660F771F881F20F026173707480763
S1130EB030F4620B730B840B200D311D411DA09582
S1130EC081F7B901842F9158880F969587950895D5
S1130ED09F3F31F0915020F4879577956795B795AA
S1130EE0880F911D9695879597F9089591505040D4
S1130EF0660F771F881FD2F70895AA1BBB1B51E109
S1130F0007C0AA1FBB1FA617B70710F0A61BB70B75
S1130F10881F991F5A95A9F780959095BC01CD011A
S1130F20089597FB072E16F4009407D077FD09D097
S1130F300E947D0707FC05D03EF4909581959F4F54
S1110F400895709561957F4F0895F894FFCF42
S9030000FC
