:100000000C9434000C9451000C9451000C94510049
:100010000C9451000C9451000C9451000C9451001C
:100020000C9451000C9451000C9451000C949305C5
:100030000C9451000C9451000C9451000C945100FC
:100040000C9451000C9451000C945D000C945100E0
:100050000C9453000C9451000C9451000C945100DA
:100060000C9451000C94510011241FBECFEFD8E026
:10007000DEBFCDBF11E0A0E0B1E0E6E6F3E102C0F3
:1000800005900D92A437B107D9F721E0A4E7B1E0BC
:1000900001C01D92AE38B207E1F70E94B5000C9482
:1000A000B1090C9400001F920F920FB60F92112409
:1000B0000F900FBE0F901F9018951F920F920FB6C2
:1000C0000F9211242F933F938F939F93EF93FF935E
:1000D00010928801109287019091C6008091890149
:1000E000813061F028F08230A9F0833089F132C08C
:1000F0009D3481F581E0809389012CC080ED890FCA
:100100008093760182E080938901109275011092AC
:10011000740120C02091740130917501F901EE0F36
:10012000FF1FEA58FE4F892F90E092838183C90117
:1001300001969093750180937401089759F4109279
:10014000890181E090E0909388018093870102C04B
:1001500010928901FF91EF919F918F913F912F9183
:100160000F900FBE0F901F901895CF93DF93CDB7D0
:10017000DEB7C657D1090FB6F894DEBF0FBECDBFAC
:1001800078940E94670580E895E20E94B80555982A
:1001900052988AB1886C8AB9E0EBF0E08081836282
:1001A0008083E1EBF0E080818160808384B18F60A7
:1001B00084B9EE24E39402E02CE93FED40E35DE3F3
:1001C00060E070E0CE0101960E9480026894EE2407
:1001D000E2F808E022E338EA43E85EE360E070E03A
:1001E000CE0189960E94800200E820E44BE250E0B4
:1001F00064EB70E0CE018F5A9F4F0E94C2016C9653
:100200001FAE1EAE6C9720E030E040E050E06AE0A8
:1002100070E0CE018F5A9F4F0E94D70106E711E090
:100220000F2EF4E6FF2EF02DEE24E394D801519624
:100230008D919C915297019709F07EC052961C9225
:100240001E92519711968D919C911297C097AC0177
:10025000440F551F880F991F880F991F880F991FEA
:10026000840F951F13964D915C911497405351093B
:10027000480F591F15968D919C911697C0979C0118
:10028000220F331F880F991F880F991F880F991FFE
:10029000820F931F17966D917C9118976053710987
:1002A000680F791F1B968D919C911C97C097F89EA3
:1002B000F001F99EF00D11241D962D913C911E9791
:1002C000C901C097DC01AA0FBB1F9C01220F331F7D
:1002D000220F331F220F331FCD01820F931F8E0F6A
:1002E0009F1FF8012785308920533109820F931F02
:1002F000218532852D32310519F491958195910929
:10030000D8012C91213049F018F0223071F014C03E
:100310006C969FAF8EAF6C970FC09D838C835F8769
:100320004E877D876C87E98207C09DA78CA75FAB4E
:100330004EAB7DAB6CABE9A60E948A05AB01BC015C
:10034000CE0101960E9490030E948A05AB01BC0178
:10035000CE0189960E9490030E948A05AB01BC01E0
:10036000CE018F5A9F4F0E94180289B149B169B1DD
:1003700040726470CE018F5A9F4F0E9466020E94A5
:100380008A0554CF0F93FC0113A212861186118A9D
:10039000128A138A148A178A108E118E128E24A341
:1003A00005A350A3478F72A361A30F910895CF9324
:1003B000DF93FC01EA0171836083538342833583B9
:1003C00024836F5F7F4F24E630E0C9010E94F60866
:1003D0006087BE016F5F7F4FC9010E94F608778377
:1003E0006683DF91CF910895FC0121853285838555
:1003F0009485281B390B368B258B408550E042179E
:10040000530784F0519541955109241735076CF035
:1004100040815181249FC001259F900D349F900DF4
:100420001124089584E690E008958CE99FEF0895E3
:10043000CF92DF92EF92FF920F931F93CF93DF93B0
:10044000FC01038D148D258D368D6A017B01C01A48
:10045000D10AE20AF30A970186010B301105210542
:10046000310558F1EC01438F548F658F768F0E94D0
:10047000F4011816190674F4EF8DF8A130812CA13F
:10048000232B2083EF8DF8A130812DA120952323EC
:10049000208310C0EF8DF8A130812CA1209523235B
:1004A0002083EF8DF8A130812DA1232B20839195FE
:1004B00081959109E9A1FAA18083DF91CF911F91E4
:1004C0000F91FF90EF90DF90CF900895FC0183A1F2
:1004D000811112C0662399F0442331F083859485FD
:1004E00001969487838705C08385948501979487B7
:1004F000838781E083A30895611101C013A2089549
:10050000EF920F93CF93DF93EC011FA27A8369835D
:1005100060E070E080E89FE30E94F8066BA37CA394
:100520008DA39EA309A3EAA21D8E1E8E1F8E18A264
:100530001F86188A198A1A8ADF91CF910F91EF903E
:100540000895CF92DF92EF92FF920F931F93CF9374
:10055000DF93EC0195B18AA1892B85B98D8D9E8D94
:10056000AF8DB8A18A019B01081B190B2A0B3B0B0D
:100570008B899C89AD89BE8980179107A207B30733
:1005800008F0C4C04D8F5E8F6F8F78A38FA183302A
:1005900009F453C0843009F46CC0823009F0ACC057
:1005A000CF84D888E988FA88C701B601660F771F1B
:1005B000881F991F2F89388D8901330F220B330B28
:1005C000000F111F221F331F000F111F221F331F87
:1005D000A90198012F5F3F4F4F4F5F4F0E940A09BB
:1005E000C701B601621B730B840B950B6F87788B69
:1005F000898B9A8B28EE33E040E050E00E940A0994
:100600002B8B3C8B4D8B5E8B298D3A8D8F81988502
:100610002817390760F080E091E00E9468066B8936
:100620007C898D899E890E94810683E08FA38F89B2
:10063000988D0196988F8F8B5FC0298D3A8D898513
:100640009A852817390708F457C084E08FA38F894B
:10065000988D919581959109988F8F8B88E091E085
:100660000E9468066B897C898D899E890E9481061B
:1006700043C0CF84D888E988FA88C701B601660FDD
:10068000771F881F991F2F89388D220F331F220F44
:10069000331F2F5F3F4F032E000C440B550B0E945E
:1006A0002C09C701B601621B730B840B950B6F8776
:1006B000788B898B9A8B28EE33E040E050E00E94E3
:1006C0000A092B8B3C8B4D8B5E8B298D3A8D8D814E
:1006D0009E812817390758F0188284E191E00E9422
:1006E00068066F85788989899A890E9486068F892C
:1006F000988D0196988F8F8B95B18AA180958923CB
:1007000085B9898D9A8D01969A8F898F8FA1DF91F6
:10071000CF911F910F91FF90EF90DF90CF900895B0
:100720002F923F924F925F926F927F928F929F9201
:10073000AF92BF92CF92DF92EF92FF920F931F93EF
:10074000CF93DF93CDB7DEB760970FB6F894DEBFD7
:100750000FBECDBF988B8F872A013B01DC018C91A6
:10076000813009F095C182E097968C939797139604
:100770008D919C91149711962D913C9112978C011B
:10078000021B130B12969C938E9311971016110651
:1007900034F495B191968C91892B85B914C01123AD
:1007A0005CF495B1EF85F88981A18095892385B99D
:1007B00011950195110907C00115110521F4AF85A7
:1007C000B88997961C92AF85B88993968D919D9123
:1007D0000D90BC91A02D89879A87AB87BC87B80103
:1007E000012E000C880B990B0E94A20729853A85DF
:1007F0004B855C850E942E080E9471076B017C016D
:10080000EF85F8897683658323843484858596858E
:10081000289EB001299E700D389E700D112480E035
:1008200090E00E94A00769837A838B839C83029D5A
:10083000C001039D900D129D900D11249E878D8700
:1008400029813A814B815C81CA01B9010E942E083D
:100850006D837E838F8398878D849E84880C991CFA
:10086000880C991CA12CB12CC501B4010E94A007D1
:100870009B01AC016D817E818F8198850E948B06E2
:100880000E94A1089B01AC0169817A818B819C81C6
:100890000E948B0620E030E040E05FE30E942E08DB
:1008A0000E9471074B015C0180E090E00E94A0076C
:1008B00069837A838B839C83B60180E090E00E94F9
:1008C000A0076D837E838F83988729813A814B812E
:1008D0005C81CA01B9010E942E089B01AC016D81A7
:1008E0007E818F8198850E942E0869837A838B830D
:1008F0009C836D857E85660F771F80E090E00E9467
:10090000A0079B01AC0169817A818B819C810E9447
:10091000F8060E947107AF85B88918967C936E938C
:100920001797C601861B970B1A969C938E9319975F
:100930006101E12CF12CC701B6010E94A0072985B5
:100940003A854B855C850E942E089B01AC0160E0D6
:1009500070E080E090E40E94F8060E94A10820E088
:1009600030E44CE156E40E942E0820E030E04AE7F3
:1009700054E40E942E080E946A07EF85F889678771
:10098000708B818B928B128E118E21E030E0308F34
:10099000278B28EE33E040E050E00E940A09AF8543
:1009A000B88953962D933D934D935C93569782E06F
:1009B0008C938DE191E00E947C0682E391E00E949D
:1009C0006806C8010E94770689E391E00E946806E4
:1009D000EF85F889858596850E94770683E491E006
:1009E0000E946806AF85B8891B968D919C911C97D3
:1009F0000E94770681E591E00E946806C4010E948A
:100A0000770687E591E00E946806EF85F889858181
:100A100096810E9477068BE591E00E946806AF857B
:100A2000B88917968D919C9118970E9477068FE54B
:100A300091E00E946806EF85F889818592850E9481
:100A4000770683E691E00E946806AF85B8891F9615
:100A50006D917D918D919C9152970E94860688E6BA
:100A600091E00E946806EF85F88963897489858919
:100A700096890E9481068DE191E00E947C06AF85F7
:100A8000B8895D964D925D926D927C92909706C06A
:100A9000823021F48F8598890E94A10260960FB65A
:100AA000F894DEBF0FBECDBFDF91CF911F910F91A4
:100AB000FF90EF90DF90CF90BF90AF909F908F907E
:100AC0007F906F905F904F903F902F90089510927D
:100AD0008000E1E8F0E0108210928500109284001E
:100AE00088E190E0909389008093880080818860FD
:100AF0008083808183608083EFE6F0E08081826084
:100B0000808310928A0110928B0110928C011092B6
:100B10008D01089560918A0170918B0180918C0103
:100B200090918D0108951F920F920FB60F9211248C
:100B30008F939F93AF93BF9380918A0190918B0184
:100B4000A0918C01B0918D010196A11DB11D8093E2
:100B50008A0190938B01A0938C01B0938D01BF917A
:100B6000AF919F918F910F900FBE0F901F9018958E
:100B700028E92093C10026E02093C200BC0180E058
:100B800090E00E94A00720E030E040E851E40E949D
:100B90002E089B01AC0160E074E284E79BE40E94B4
:100BA000F80620E030E040E85FE30E948B060E94F8
:100BB00071077093C5006093C4000895E0ECF0E005
:100BC000908195FFFDCF8093C60008958AE00E9432
:100BD000DE0508950F931F93CF93DF93CDB7DEB754
:100BE0002A970FB6F894DEBF0FBECDBF4AE0BE0114
:100BF0006F5F7F4F0E944B098981882351F08E01DE
:100C00000E5F1F4F0E94DE05F80181918F01811157
:100C1000F9CF2A960FB6F894DEBF0FBECDBFDF9195
:100C2000CF911F910F9108950F931F93CF93DF934F
:100C3000CDB7DEB72B970FB6F894DEBF0FBECDBF92
:100C40002AE0AE014F5F5F4F0E94560989818823D9
:100C500051F08E010E5F1F4F0E94DE05F801819159
:100C60008F018111F9CF2B960FB6F894DEBF0FBE1E
:100C7000CDBFDF91CF911F910F9108950F931F93D7
:100C8000CF93DF93CDB7DEB72B970FB6F894DEBFC7
:100C90000FBECDBF2AE0AE014F5F5F4F0E946509D6
:100CA0008981882351F08E010E5F1F4F0E94DE055F
:100CB000F80181918F018111F9CF2B960FB6F8942D
:100CC000DEBF0FBECDBFDF91CF911F910F91089571
:100CD000CF93DF93EC018881882331F021960E9425
:100CE000DE0589918111FBCFDF91CF9108950E949C
:100CF000EA050E94E60508950E9468060E94E6053E
:100D000008950E943E060E94E60508950E9414067A
:100D10000E94E60508955058BB27AA270E94A30603
:100D20000C94F4070E94E60738F00E94ED0720F0CB
:100D300039F49F3F19F426F40C94E3070EF4E09580
:100D4000E7FB0C94DD07E92F0E94050858F3BA175A
:100D5000620773078407950720F079F4A6F50C94D1
:100D600027080EF4E0950B2EBA2FA02D0B01B90128
:100D700090010C01CA01A0011124FF27591B99F011
:100D8000593F50F4503E68F11A16F040A22F232F1D
:100D9000342F4427585FF3CF469537952795A7956D
:100DA000F0405395C9F77EF41F16BA0B620B730B14
:100DB000840BBAF09150A1F0FF0FBB1F661F771F85
:100DC000881FC2F70EC0BA0F621F731F841F48F43A
:100DD000879577956795B795F7959E3F08F0B0CFC3
:100DE0009395880F08F09927EE0F979587950895AA
:100DF0000E940C070C94F4070E94ED0758F00E9423
:100E0000E60740F029F45F3F29F00C94DD0751110B
:100E10000C9428080C94E3070E94050868F39923B2
:100E2000B1F3552391F3951B550BBB27AA276217E6
:100E30007307840738F09F5F5F4F220F331F441FF3
:100E4000AA1FA9F335D00E2E3AF0E0E832D0915027
:100E50005040E695001CCAF72BD0FE2F29D0660F14
:100E6000771F881FBB1F261737074807AB07B0E857
:100E700009F0BB0B802DBF01FF2793585F4F3AF05D
:100E80009E3F510578F00C94DD070C9428085F3FD5
:100E9000E4F3983ED4F3869577956795B795F795E3
:100EA0009F5FC9F7880F911D9695879597F90895CB
:100EB000E1E0660F771F881FBB1F62177307840767
:100EC000BA0720F0621B730B840BBA0BEE1F88F776
:100ED000E09508950E9471076894B1110C94280858
:100EE00008950E940D0888F09F5798F0B92F992710
:100EF000B751B0F0E1F0660F771F881F991F1AF005
:100F0000BA95C9F714C0B13091F00E942708B1E03A
:100F100008950C942708672F782F8827B85F39F039
:100F2000B93FCCF3869577956795B395D9F73EF49D
:100F300090958095709561957F4F8F4F9F4F089545
:100F4000E89409C097FB3EF4909580957095619563
:100F50007F4F8F4F9F4F9923A9F0F92F96E9BB2719
:100F60009395F695879577956795B795F111F8CF95
:100F7000FAF4BB0F11F460FF1BC06F5F7F4F8F4F00
:100F80009F4F16C0882311F096E911C0772321F0F6
:100F90009EE8872F762F05C0662371F096E8862F8E
:100FA00070E060E02AF09A95660F771F881FDAF7E5
:100FB000880F9695879597F9089597F99F6780E828
:100FC00070E060E008959FEF80EC089500240A949B
:100FD0001616170618060906089500240A94121614
:100FE0001306140605060895092E0394000C11F447
:100FF000882352F0BB0F40F4BF2B11F460FF04C0F4
:101000006F5F7F4F8F4F9F4F089557FD9058440F4C
:10101000551F59F05F3F71F04795880F97FB991F57
:1010200061F09F3F79F08795089512161306140614
:10103000551FF2CF4695F1DF08C0161617061806A1
:10104000991FF1CF86957105610508940895E8947C
:10105000BB2766277727CB0197F908950E9441089F
:101060000C94F4070E94E60738F00E94ED0720F088
:10107000952311F00C94DD070C94E30711240C94D4
:1010800028080E94050870F3959FC1F3950F50E062
:10109000551F629FF001729FBB27F00DB11D639F2A
:1010A000AA27F00DB11DAA1F649F6627B00DA11DD0
:1010B000661F829F2227B00DA11D621F739FB00D76
:1010C000A11D621F839FA00D611D221F749F3327E6
:1010D000A00D611D231F849F600D211D822F762F7F
:1010E0006A2F11249F5750409AF0F1F088234AF05C
:1010F000EE0FFF1FBB1F661F771F881F91505040C8
:10110000A9F79E3F510580F00C94DD070C94280848
:101110005F3FE4F3983ED4F3869577956795B7954E
:10112000F795E7959F5FC1F7FE2B880F911D969568
:10113000879597F9089519F416F40C94E3070C9425
:10114000E1080E940D08B8F39923C9F3B6F39F573D
:10115000550B87FF0E94EF080024A0E640EA9001AB
:1011600080585695979528F4805C660F771F881FE6
:1011700020F026173707480730F4621B730B840BE7
:10118000202931294A2BA69517940794202531252B
:101190004A2758F7660F771F881F20F02617370752
:1011A000480730F4620B730B840B200D311D411D79
:1011B000A09581F7B901842F9158880F969587954E
:1011C00008959F3F31F0915020F48795779567956A
:1011D000B795880F911D9695879597F90895915029
:1011E0005040660F771F881FD2F70895AA1BBB1BBC
:1011F00051E107C0AA1FBB1FA617B70710F0A61B17
:10120000B70B881F991F5A95A9F780959095BC0137
:10121000CD010895A1E21A2EAA1BBB1BFD010DC032
:10122000AA1FBB1FEE1FFF1FA217B307E407F50796
:1012300020F0A21BB30BE40BF50B661F771F881F72
:10124000991F1A9469F760957095809590959B0108
:10125000AC01BD01CF010895052E97FB1EF400944B
:101260000E94430957FD07D00E940A0907FC03D0DA
:101270004EF40C94430950954095309521953F4F7D
:101280004F4F5F4F089590958095709561957F4F72
:101290008F4F9F4F0895BB274A3031F4992322F492
:1012A000BDE2909581959F4F0C948809BB272A3009
:1012B00051F4992342F4BDE2909580957095619523
:1012C0007F4F8F4F9F4F0C946609BB27FA01A62FC3
:1012D0006217710581059105330B30FB66F0AA2773
:1012E000660F771F881F991FAA1FA21710F0A21B55
:1012F00063953850A9F7A05DAA3308F0A95DA193C2
:1013000036F7B111B1931082CA010C94A109BB2721
:10131000FB015527AA27880F991FAA1FA41710F0B1
:10132000A41B83955051B9F7A05DAA3308F0A95DBD
:10133000A193009779F7B111B1931192CB010C945D
:10134000A109DC01FC01672F71917723E1F7329746
:1013500004C07C916D9370836291AE17BF07C8F390
:061360000895F894FFCF90
:10136600535F414343454C00535F434F4E535441F3
:101376004E542000535F444543454C20002323230D
:101386002323232323232323232323232323232327
:101396002300416E676C6520006475726174696F25
:1013A6006E2000416363656C65726174696F6E20BF
:1013B60000766D61782000236E2000743020007462
:1013C6003120004C6F6E6720537465702074696D10
:0413D600652000008E
:00000001FF
