S0100000526F626F7441726D2E73726563EE
S11300000C9434000C9446000C9446000C94460066
S11300100C9446000C9446000C9446000C9439024F
S11300200C9446000C9446000C9446000C94460034
S11300300C9446000C9446000C9446000C94460024
S11300400C9446000C9446000C9448000C94460012
S11300500C9446000C9446000C9446000C94460004
S11300600C9446000C94460011241FBECFEFD8E038
S1130070DEBFCDBF21E0A0E0B1E001C01D92A831F8
S1130080B207E1F70E94AF000C942C050C94000019
S11300901F920F920FB60F9211248F93EF93FF9339
S11300A0E0910301F0E08091C600EC5FFE4F808395
S11300B0E0910301F0E0EC5FFE4F80818A3031F47F
S11300C01092030181E08093020105C08091030135
S11300D08F5F80930301FF91EF918F910F900FBE7B
S11300E00F901F90189584B18D6284B98CB580658A
S11300F08CBD08952898809100018EBD0DB407FE33
S1130100FDCF289A0895E0E8F0E08081836280833F
S1130110A1E8B0E08C9184608C93529A84B5836199
S113012084BD85B5846085BD84B5836484BD8081C8
S1130130896880838AB18C698AB90895CF93DF93E3
S1130140FC012181213641F4EB0102960E94DC047A
S11301509C878B870E94BA02DF91CF910895CF9339
S1130160DF93CDB7DEB7C559D1090FB6F894DEBF1A
S11301700FBECDBF0E9473000E94830008E024E0FC
S113018040E051E068E470E0CE0101960E948701EE
S113019020E030E041E050E061E070E0CE01019603
S11301A00E94A2016894EE24E4F804E022E338EA11
S11301B043E85EE360E070E0CE01C6960E94F00181
S11301C06894EE24E3F800E82CE93FED40E35DE3B6
S11301D060E070E086E390E08C0F9D1F88960E949B
S11301E0F001E0E0F1E088E0808311820E947A006F
S11301F080E895E20E945E020E94110278948AE0EF
S113020088BD2FEF83EC99E0215080409040E1F7C6
S113021000C00000EFEFF3EC29E0E150F040204093
S1130220E1F700C000008FEF93ECE9E081509040CB
S1130230E040E1F700C0000018BC812C912C54016F
S11302407E01F6E8EF0EF11C00E011E0CE2CDF2C6D
S1130250809102018823B1F1F89480E1E4E0F1E0B7
S1130260AC2DBD2D01900D928A95E1F778941092F2
S1130270030110920201F7018081813661F0843616
S1130280B1F08435F9F4BE016A5C7F4F8C2D9D2D4D
S11302900E949E0017C08F89988DA98DBA8D0596EE
S11302A0A11DB11D8F8B988FA98FBA8F0BC08F8919
S11302B0988DA98DBA8D0597A109B1098F8B988F57
S11302C0A98FBA8F66B1462F42706170CE01019634
S11302D00E94CA01F80191818081981729F00E9437
S11302E07A00F801808181830E943002DC01CB0115
S11302F088199909AA09BB0985369105A105B10593
S113030008F4A6CF0E9430024B015C01A1CF0F93E9
S1130310FC0112AA128A138A148A158A168E178E61
S113032010A211A216A217A210A611A623AB04AB09
S113033057A746A771AB60AB168217821086118649
S11303400F910895CF93DF93FC01EA0171836083D9
S113035053834283358324836F5F7F4F84E690E029
S11303600E94C804CB01A0E0B0E086879787A08BE9
S1130370B18BBE016F5F7F4F85E090E00E94C8049F
S1130380CB01A0E0B0E082879387A487B587DF9193
S1130390CF910895FC0182A981111EC06623F9F052
S11303A0442361F086899789A08DB18D0197A109B5
S11303B0B109868B978BA08FB18F0BC086899789E3
S11303C0A08DB18D0196A11DB11D868B978BA08F39
S11303D0B18F81E082AB0895611101C012AA089522
S11303E0EF920F93CF93DF93EC011FA27A8369837B
S11303F060E070E080E89FE30E942C036BA37CA381
S11304008DA39EA309A3EAA21D8E1E8E1F8E18A281
S11304101F86188A198A1A8ADF91CF910F91EF905B
S11304200895A0EBB0E01C92E1EBF0E01082109292
S1130430B20088E18093B3008C9182608C938081B8
S113044084608083E0E7F0E08081826080831092A2
S113045014011092150110921601109217010895BB
S1130460609114017091150180911601909117010A
S113047008951F920F920FB60F9211248F939F939A
S1130480AF93BF938091140190911501A09116012F
S1130490B09117010196A11DB11D80931401909391
S11304A01501A0931601B0931701BF91AF919F91CD
S11304B08F910F900FBE0F901F90189528E92093ED
S11304C0C10026E02093C200BC0180E090E00E94BD
S11304D0CD0320E030E040E851E40E945B049B013E
S11304E0AC0160E074E284E79BE40E942C0320E00A
S11304F030E040E85FE30E94BF020E949E037093D5
S1130500C5006093C4000895E0ECF0E0908195FF8D
S1130510FDCF8093C60008958AE00E948402089566
S11305200F931F93CF93DF93CDB7DEB72A970FB600
S1130530F894DEBF0FBECDBF4AE0BE016F5F7F4FB0
S11305400E9402058981882351F08E010E5F1F4F9E
S11305500E948402F80181918F018111F9CF2A96BA
S11305600FB6F894DEBF0FBECDBFDF91CF911F91C0
S11305700F9108950E9490020E948C020895505891
S1130580BB27AA270E94D7020C9421040E941304BB
S113059038F00E941A0420F039F49F3F19F426F42D
S11305A00C9410040EF4E095E7FB0C940A04E92F74
S11305B00E94320458F3BA17620773078407950739
S11305C020F079F4A6F50C9454040EF4E0950B2E67
S11305D0BA2FA02D0B01B90190010C01CA01A00191
S11305E01124FF27591B99F0593F50F4503E68F1EC
S11305F01A16F040A22F232F342F4427585FF3CF2D
S1130600469537952795A795F0405395C9F77EF4FD
S11306101F16BA0B620B730B840BBAF09150A1F046
S1130620FF0FBB1F661F771F881FC2F70EC0BA0FCC
S1130630621F731F841F48F4879577956795B79554
S1130640F7959E3F08F0B0CF9395880F08F099274F
S1130650EE0F9795879508950E9440030C9421040A
S11306600E941A0458F00E94130440F029F45F3FDA
S113067029F00C940A0451110C9455040C941004A0
S11306800E94320468F39923B1F3552391F3951B27
S1130690550BBB27AA2762177307840738F09F5F9F
S11306A05F4F220F331F441FAA1FA9F335D00E2E0C
S11306B03AF0E0E832D091505040E695001CCAF779
S11306C02BD0FE2F29D0660F771F881FBB1F26173C
S11306D037074807AB07B0E809F0BB0B802DBF0113
S11306E0FF2793585F4F3AF09E3F510578F00C94E2
S11306F00A040C9455045F3FE4F3983ED4F38695C2
S113070077956795B795F7959F5FC9F7880F911D02
S11307109695879597F90895E1E0660F771F881FEE
S1130720BB1F621773078407BA0720F0621B730BA1
S1130730840BBA0BEE1F88F7E09508950E943A04E3
S113074088F09F5798F0B92F9927B751B0F0E1F08E
S1130750660F771F881F991F1AF0BA95C9F714C03E
S1130760B13091F00E945404B1E008950C94540403
S1130770672F782F8827B85F39F0B93FCCF3869577
S113078077956795B395D9F73EF4909580957095D4
S113079061957F4F8F4F9F4F0895E89409C097FB51
S11307A03EF490958095709561957F4F8F4F9F4F44
S11307B09923A9F0F92F96E9BB279395F695879588
S11307C077956795B795F111F8CFFAF4BB0F11F44B
S11307D060FF1BC06F5F7F4F8F4F9F4F16C08823F2
S11307E011F096E911C0772321F09EE8872F762F28
S11307F005C0662371F096E8862F70E060E02AF069
S11308009A95660F771F881FDAF7880F9695879554
S113081097F9089597F99F6780E870E060E008957C
S11308209FEF80EC089500240A9416161706180604
S11308300906089500240A941216130614060506E0
S11308400895092E0394000C11F4882352F0BB0F71
S113085040F4BF2B11F460FF04C06F5F7F4F8F4FD4
S11308609F4F089557FD9058440F551F59F05F3F0F
S113087071F04795880F97FB991F61F09F3F79F0BE
S113088087950895121613061406551FF2CF469540
S1130890F1DF08C0161617061806991FF1CF8695C2
S11308A07105610508940895E894BB2766277727A6
S11308B0CB0197F908950E946E040C9421040E94C0
S11308C0130438F00E941A0420F0952311F00C94BC
S11308D00A040C94100411240C9455040E9432044C
S11308E070F3959FC1F3950F50E0551F629FF0017F
S11308F0729FBB27F00DB11D639FAA27F00DB11D98
S1130900AA1F649F6627B00DA11D661F829F222720
S1130910B00DA11D621F739FB00DA11D621F839FA7
S1130920A00D611D221F749F3327A00D611D231F7D
S1130930849F600D211D822F762F6A2F11249F57CB
S113094050409AF0F1F088234AF0EE0FFF1FBB1FCE
S1130950661F771F881F91505040A9F79E3F51058D
S113096080F00C940A040C9455045F3FE4F3983E21
S1130970D4F3869577956795B795F795E7959F5F37
S1130980C1F7FE2B880F911D9695879597F90895C9
S1130990AA1BBB1B51E107C0AA1FBB1FA617B707A1
S11309A010F0A61BB70B881F991F5A95A9F78095BD
S11309B09095BC01CD010895FC0188279927E894FE
S11309C021912032E9F3293010F02E30C8F32B3274
S11309D041F02D3239F4689404C00E94FA04820F65
S11309E0911D219120532A30C0F31EF490958195D6
S11309F09F4F08957AE0979F902D879F802D910DAA
S1130A0011240895BB27FB015527AA27880F991F96
S1130A10AA1FA41710F0A41B83955051B9F7A05D29
S1130A20AA3308F0A95DA193009779F7B111B193A6
S1130A301192CB010C941C05DC01FC01672F719110
S1130A407723E1F7329704C07C916D9370836291B0
S10F0A50AE17BF07C8F30895F894FFCF59
S9030000FC
