S0100000526F626F7441726D2E73726563EE
S11300000C9434000C9446000C9446000C94460066
S11300100C9446000C9446000C9446000C9418066C
S11300200C9446000C9446000C9446000C94460034
S11300300C9446000C9446000C9446000C94460024
S11300400C9446000C9446000C9448000C94460012
S11300500C9446000C9446000C9446000C94460004
S11300600C9446000C94460011241FBECFEFD8E038
S1130070DEBFCDBF21E0A0E0B1E001C01D92AE31F2
S1130080B207E1F70E94BE000C949F090C94000093
S11300901F920F920FB60F9211242F933F938F93B9
S11300A09F93EF93FF931092180110921701909170
S11300B0C600809119018130E1F018F0823019F105
S11300C042C09D3621F481E0809319013CC09237EF
S11300D0D1F58BE68093C6001092190181E090E07F
S11300E09093180180931701909305018093040164
S11300F02AC09093060182E08093190110920101B5
S11301001092000120C02091000130910101F901F9
S1130110EE0FFF1FEA5FFE4F892F90E092838183E9
S1130120C90101969093010180930001089759F445
S11301301092190182E090E09093180180931701C6
S11301408BE68093C600FF91EF919F918F913F9131
S11301502F910F900FBE0F901F90189584B18D6250
S113016084B98CB580658CBD08952898809102016E
S11301708EBD0DB407FEFDCF289A0895CF93DF936B
S1130180CDB7DEB7C558D1090FB6F894DEBF0FBEA0
S1130190CDBF10920501109204010E94AE00689434
S11301A0EE24E7F8F12CD7018C9183628C93E1E87B
S11301B0F0E0808184608083529A84B5836184BD39
S11301C085B5846085BD08E024E042E051E068E440
S11301D070E0CE0101960E94550220E030E041E03B
S11301E050E06AE070E0CE0101960E94700284B58E
S11301F0836484BDF7018081896880838AB18C69B6
S11302008AB96894EE24E4F804E022E338EA43E887
S11302105EE360E070E0CE01C6960E9490036894AD
S1130220EE24E3F800E82CE93FED40E35DE360E011
S113023070E0CE01825A9F4F0E949003E2E0F1E009
S1130240108211820E94B50080E895E20E943D066A
S11302500E94F00578948DE290E0A0E0B0E08B8BF2
S11302609C8BAD8BBE8B812C912C54010F2EF6E010
S1130270EF2EF1E0FF2EF02D2E01FEE54F0E511C66
S113028002E011E0C42CD52C0F2EF4E67F2EF02DC5
S113029066246394D70151968D919C915297813035
S11302A0910581F4CE01C6960E94EA058C2D9D2D00
S11302B00E94EA05CE0101960E948603F701128A84
S11302C0118AAFC0029709F0ACC0D70152961C92B4
S11302D01E925197EC91E23008F06EC011968D9108
S11302E09C9112979C01220F331F880F991F880F2E
S11302F0991F880F991F820F931F13962D913C917C
S11303001497280F391F15968D919C911697AC015F
S1130310440F551F880F991F880F991F880F991F25
S1130320840F951F17964D915C9118971A01280E0A
S1130330391E1B968D919C911C97789EA001799EE5
S1130340500D11241D968D919C911E97BC01660F32
S1130350771F880F991F880F991F880F991F860F81
S1130360971F480F591F1F968D919C915097480FC6
S1130370591F19968D919C911A978D9719F451953F
S113038041955109EE2319F0E13069F04AC05AAFA2
S113039049AF25963FAF2EAF259723963FAE2EAE9D
S11303A023976EAA3EC0F201548343833687258780
S11303B034862386608235C0D7011B968D919C912B
S11303C01C97789EA001799E500D11241D968D9145
S11303D09C911E97BC01660F771F9C01220F331F4F
S11303E0220F331F220F331FCB01820F931F840F61
S11303F0951F1F962D913C915097820F931F19962C
S11304002D913C911A972D32310519F491958195CE
S11304109109092E000CAA0BBB0B8B8B9C8BAD8B0B
S1130420BE8B0E940F06AB01BC01CE01C6960E9492
S11304308E040E940F06AB01BC018C2D9D2D0E94E1
S11304408E040E940F06AB01BC01CE0101960E94EE
S1130450120366B1462F42706170CE0101960E946C
S11304606003F80191818081981731F00E94B500F2
S1130470D8018C9111968C930E940F06DC01CB015C
S113048088199909AA09BB0985369105A105B10501
S113049008F400CF0E940F064B015C016F89788D30
S11304A0898D9A8D0E949906EFCE0F93FC0112AAB2
S11304B0128A138A148A158A168E178E10A211A214
S11304C016A217A210A611A623AB04AB57A746A7E2
S11304D071AB60AB16821782108611860F91089556
S11304E0CF93DF93FC01EA017183608353834283DA
S11304F0358324836F5F7F4F84E690E00E9409096F
S1130500CB01A0E0B0E086879787A08BB18BBE01BA
S11305106F5F7F4F85E090E00E940909CB01A0E066
S1130520B0E082879387A487B587DF91CF91089540
S1130530CF92DF92EF92FF920F931F93CF93DF93AB
S1130540EC016A897B898C899D890E94B5076B01BE
S11305507C016E897F89888D998D0E94B50720E082
S113056030E040EA50E40E940B079B01AC01C70154
S1130570B6010E949E060E947D076AA37BA38CA3FA
S11305809DA30E851F852889398906171707280713
S11305903907B4F030952095109501951F4F2F4FD2
S11305A03F4F60177107820793076CF028813981E8
S11305B0269FF001279FF00D369FF00D112405C0F2
S11305C0E4E6F0E002C0ECE9FFEF0E811F8128852C
S11305D03985DC01CB01800F911FA21FB31F0A854F
S11305E01B852C853D85081719072A073B0784F0CE
S11305F030952095109501951F4F2F4F3F4F801731
S11306009107A207B30724F08E839F83A887B98735
S1130610CF01DF91CF911F910F91FF90EF90DF9069
S1130620CF900895CF92DF92EF92FF920F931F9392
S1130630CF93DF93FC0102A513A524A535A56A0178
S11306407B01C01AD10AE20AF30A970186010B3032
S113065011052105310558F1EC0142A753A764A700
S113066075A70E9498021816190674F4EEA5FFA542
S113067030812BA9232B2083EEA5FFA530812CA943
S113068020952323208310C0EEA5FFA530812BA93C
S1130690209523232083EEA5FFA530812CA9232BAD
S11306A02083919581959109E8A9F9A98083DF9127
S11306B0CF911F910F91FF90EF90DF90CF9008950D
S11306C0FC0182A981111EC06623F9F0442361F064
S11306D086899789A08DB18D0197A109B109868B6F
S11306E0978BA08FB18F0BC086899789A08DB18D10
S11306F00196A11DB11D868B978BA08FB18F81E0D0
S113070082AB0895611101C012AA0895FC01168AF2
S1130710178A108E118E128A138A148A158A0895E4
S1130720EF920F93CF93DF93EC011FA27A83698337
S113073060E070E080E89FE30E940B076BA37CA35A
S11307408DA39EA309A3EAA21D8E1E8E1F8E18A23E
S11307501F86188A198A1A8ADF91CF910F91EF9018
S113076008958F929F92AF92BF92CF92DF92EF92B1
S1130770FF920F931F93CF93DF93EC018D8D9E8D8A
S1130780AF8DB8A18A019B01081B190B2A0B3B0BE7
S11307908B899C89AD89BE8980179107A207B3070D
S11307A008F0A9C09BB18AA1892B8BB985E08A95F1
S11307B0F1F700004D8F5E8F6F8F78A38FA1833088
S11307C009F449C0843009F458C0823009F08EC05D
S11307D0CF84D888E988FA880F89188DC701B601B3
S11307E0660F771F881F991F4801012E000CAA0865
S11307F0BB08880C991CAA1CBB1C880C991CAA1C3D
S1130800BB1CA50194012F5F3F4F4F4F5F4F0E94C8
S11308101D09C701B601621B730B840B950B6F870F
S1130820788B898B9A8B28EE33E040E050E00E946D
S11308301D092B8B3C8B4D8B5E8B298D3A8D8F81C3
S113084098852817390710F083E08FA30F5F1F4F97
S1130850188F0F8B4BC0298D3A8D89859A8528175F
S1130860390708F443C084E08FA38F89988D91954C
S113087081959109988F8F8B39C0CF84D888E98866
S1130880FA880F89188DC701B601660F771F881F74
S1130890991F9801220F331F220F331F2F5F3F4FE1
S11308A0032E000C440B550B0E943F09C701B601EF
S11308B0621B730B840B950B6F87788B898B9A8BD8
S11308C028EE33E040E050E00E941D092B8B3C8B66
S11308D04D8B5E8B298D3A8D8D819E81281739072A
S11308E008F018820F5F1F4F188F0F8B898D9A8D18
S11308F001969A8F898F9BB18AA1809589238BB9A0
S11309008FA1DF91CF911F910F91FF90EF90DF9016
S1130910CF90BF90AF909F908F9008952F923F9269
S11309204F925F926F927F928F929F92AF92BF92FB
S1130930CF92DF92EF92FF920F931F93CF93DF93A7
S1130940CDB7DEB72E970FB6F894DEBF0FBECDBF7E
S11309509E878D874A015B01DC018C91813009F00F
S11309601AC182E097968C93979713968D919C91D8
S1130970149711962D913C9112973C01621A730AB7
S113098012969C938E9311971614170434F49BB10A
S113099091968C91892B8BB914C077205CF49BB110
S11309A0ED85FE8581A1809589238BB9719461942D
S11309B0710807C06114710421F4AD85BE85979652
S11309C01C92AD85BE8593968D919D910D90BC91A1
S11309D0A02D8D839E83AF83B887B301072C000CB1
S11309E0880B990B0E94B5072D813E814F81588554
S11309F00E9441080E9484076B017C01ED85FE85FD
S1130A00768365830385148585859685089FB00163
S1130A10099F700D189F700D112480E090E00E94D2
S1130A20B30769837A838B839C83609E1001619EE4
S1130A30300C709E300C11249B01AC010E944108C3
S1130A4069877A878B879C872101440C551C440C49
S1130A50551C612C712CC301B2010E94B3079B0188
S1130A60AC0169857A858B859C850E949E060E94CF
S1130A70B4089B01AC0169817A818B819C810E94BD
S1130A809E0620E030E040E05FE30E9441080E94BF
S1130A90840780E090E00E94B3072B013C01B6017B
S1130AA080E090E00E94B30769837A838B839C8300
S1130AB0A3019201C301B2010E9441089B01AC0150
S1130AC069817A818B819C810E9441082B013C01C0
S1130AD0B101660F771F80E090E00E94B3079B018D
S1130AE0AC01C301B2010E940B070E948407AD85CB
S1130AF0BE8518967C936E931797C601861B970B39
S1130B001A969C938E9319976801E12CF12CC701D6
S1130B10B6010E94B3072D813E814F8158850E9402
S1130B2041089B01AC0160E070E080E090E40E9429
S1130B300B070E94B40820E030E44CE156E40E9424
S1130B40410820E030E04AE754E40E9441080E9452
S1130B507D07ED85FE856787708B818B928B128E66
S1130B60118E21E030E0308F278B28EE33E040E017
S1130B7050E00E941D09AD85BE8553962D933D938B
S1130B804D935C93569782E08C93FD01858E968EEF
S1130B90A78EB0A206C0823021F48D859E850E9466
S1130BA0B1032E960FB6F894DEBF0FBECDBFDF9112
S1130BB0CF911F910F91FF90EF90DF90CF90BF9056
S1130BC0AF909F908F907F906F905F904F903F90E9
S1130BD02F900895FC0112821182148213820895C9
S1130BE0A0EBB0E01C92E1EBF0E010821092B200B6
S1130BF088E18093B3008C9182608C9380818460BF
S1130C008083E0E7F0E080818260808310921A01A3
S1130C1010921B0110921C0110921D010895609105
S1130C201A0170911B0180911C0190911D0108957E
S1130C301F920F920FB60F9211248F939F93AF932D
S1130C40BF9380911A0190911B01A0911C01B09156
S1130C501D010196A11DB11D80931A0190931B01E2
S1130C60A0931C01B0931D01BF91AF919F918F91EF
S1130C700F900FBE0F901F90189528E92093C10084
S1130C8026E02093C200BC0180E090E00E94B307FC
S1130C9020E030E040E851E40E9441089B01AC01AF
S1130CA060E074E284E79BE40E940B0720E030E0FC
S1130CB040E85FE30E949E060E9484077093C5008B
S1130CC06093C4000895E0ECF0E0908195FFFDCFBF
S1130CD08093C60008958AE00E94630608950F93E6
S1130CE01F93CF93DF93CDB7DEB72B970FB6F8944E
S1130CF0DEBF0FBECDBF2AE0AE014F5F5F4F0E9443
S1130D005E098981882351F08E010E5F1F4F0E9476
S1130D106306F80181918F018111F9CF2B960FB6EB
S1130D20F894DEBF0FBECDBFDF91CF911F910F911D
S1130D3008950E946F060E946B0608955058BB27C1
S1130D40AA270E94B6060C9407080E94F90738F0F7
S1130D500E94000820F039F49F3F19F426F40C9403
S1130D60F6070EF4E095E7FB0C94F007E92F0E94D8
S1130D70180858F3BA17620773078407950720F019
S1130D8079F4A6F50C943A080EF4E0950B2EBA2FDC
S1130D90A02D0B01B90190010C01CA01A00111247D
S1130DA0FF27591B99F0593F50F4503E68F11A1629
S1130DB0F040A22F232F342F4427585FF3CF4695BA
S1130DC037952795A795F0405395C9F77EF41F16DC
S1130DD0BA0B620B730B840BBAF09150A1F0FF0FA6
S1130DE0BB1F661F771F881FC2F70EC0BA0F621F92
S1130DF0731F841F48F4879577956795B795F79582
S1130E009E3F08F0B0CF9395880F08F09927EE0F16
S1130E109795879508950E941F070C9407080E94D0
S1130E20000858F00E94F90740F029F45F3F29F0C8
S1130E300C94F00751110C943B080C94F6070E9493
S1130E40180868F39923B1F3552391F3951B550BB7
S1130E50BB27AA2762177307840738F09F5F5F4F89
S1130E60220F331F441FAA1FA9F335D00E2E3AF0C8
S1130E70E0E832D091505040E695001CCAF72BD0E0
S1130E80FE2F29D0660F771F881FBB1F2617370731
S1130E904807AB07B0E809F0BB0B802DBF01FF2763
S1130EA093585F4F3AF09E3F510578F00C94F00749
S1130EB00C943B085F3FE4F3983ED4F38695779512
S1130EC06795B795F7959F5FC9F7880F911D96951C
S1130ED0879597F90895E1E0660F771F881FBB1F78
S1130EE0621773078407BA0720F0621B730B840B25
S1130EF0BA0BEE1F88F7E09508950E948407689462
S1130F00B1110C943B0808950E94200888F09F5763
S1130F1098F0B92F9927B751B0F0E1F0660F771F19
S1130F20881F991F1AF0BA95C9F714C0B13091F00F
S1130F300E943A08B1E008950C943A08672F782F7C
S1130F408827B85F39F0B93FCCF3869577956795D4
S1130F50B395D9F73EF490958095709561957F4F40
S1130F608F4F9F4F0895E89409C097FB3EF49095E6
S1130F708095709561957F4F8F4F9F4F9923A9F06E
S1130F80F92F96E9BB279395F695879577956795FD
S1130F90B795F111F8CFFAF4BB0F11F460FF1BC041
S1130FA06F5F7F4F8F4F9F4F16C0882311F096E9D4
S1130FB011C0772321F09EE8872F762F05C0662382
S1130FC071F096E8862F70E060E02AF09A95660F3B
S1130FD0771F881FDAF7880F9695879597F90895F4
S1130FE097F99F6780E870E060E008959FEF80ECD8
S1130FF0089500240A94161617061806090608957B
S113100000240A9412161306140605060895092EE0
S11310100394000C11F4882352F0BB0F40F4BF2B4F
S113102011F460FF04C06F5F7F4F8F4F9F4F08958F
S113103057FD9058440F551F59F05F3F71F0479585
S1131040880F97FB991F61F09F3F79F0879508956A
S1131050121613061406551FF2CF4695F1DF08C089
S1131060161617061806991FF1CF869571056105A6
S113107008940895E894BB2766277727CB0197F94E
S113108008950E9454080C9407080E94F90738F048
S11310900E94000820F0952311F00C94F0070C94A2
S11310A0F60711240C943B080E94180870F3959FCE
S11310B0C1F3950F50E0551F629FF001729FBB274B
S11310C0F00DB11D639FAA27F00DB11DAA1F649FE7
S11310D06627B00DA11D661F829F2227B00DA11D9A
S11310E0621F739FB00DA11D621F839FA00D611D20
S11310F0221F749F3327A00D611D231F849F600D41
S1131100211D822F762F6A2F11249F5750409AF069
S1131110F1F088234AF0EE0FFF1FBB1F661F771FF5
S1131120881F91505040A9F79E3F510580F00C94C0
S1131130F0070C943B085F3FE4F3983ED4F38695A4
S113114077956795B795F795E7959F5FC1F7FE2B60
S1131150880F911D9695879597F9089519F416F4BB
S11311600C94F6070C94F4080E942008B8F3992311
S1131170C9F3B6F39F57550B87FF0E940209002459
S1131180A0E640EA900180585695979528F4805C33
S1131190660F771F881F20F026173707480730F49B
S11311A0621B730B840B202931294A2BA6951794B3
S11311B00794202531254A2758F7660F771F881F83
S11311C020F026173707480730F4620B730B840BA3
S11311D0200D311D411DA09581F7B901842F91582F
S11311E0880F9695879508959F3F31F0915020F48C
S11311F0879577956795B795880F911D96958795EF
S113120097F9089591505040660F771F881FD2F7C1
S11312100895AA1BBB1B51E107C0AA1FBB1FA61739
S1131220B70710F0A61BB70B881F991F5A95A9F78B
S113123080959095BC01CD010895A1E21A2EAA1BB8
S1131240BB1BFD010DC0AA1FBB1FEE1FFF1FA21772
S1131250B307E407F50720F0A21BB30BE40BF50B6F
S1131260661F771F881F991F1A9469F760957095F8
S1131270809590959B01AC01BD01CF010895052E89
S113128097FB1EF400940E94560957FD07D00E9454
S11312901D0907FC03D04EF40C9456095095409553
S11312A0309521953F4F4F4F5F4F0895909580950E
S11312B0709561957F4F8F4F9F4F0895BB272A30BC
S11312C051F4992342F4BDE290958095709561950F
S11312D07F4F8F4F9F4F0C946E09BB27FA01A62FA7
S11312E06217710581059105330B30FB66F0AA275F
S11312F0660F771F881F991FAA1FA21710F0A21B41
S113130063953850A9F7A05DAA3308F0A95DA193AD
S113131036F7B111B1931082CA010C948F09DC0124
S1131320FC01672F71917723E1F7329704C07C9118
S11313306D9370836291AE17BF07C8F30895F89454
S1051340FFCFD9
S9030000FC
