S0100000526F626F7441726D2E73726563EE
S11300000C9475000C9492000C9492000C94920041
S11300100C9492000C9492000C9492000C94920014
S11300200C9492000C9492000C9492000C94D003C3
S11300300C9492000C9492000C9492000C949200F4
S11300400C9492000C9492000C949E000C949200D8
S11300500C9494000C9492000C9492000C949200D2
S11300600C9492000C94920007634236B79BD8A775
S11300701A39685618AEBAAB558C1D3CB7CC5763C9
S1130080BD6DEDFD753EF6177231BF000000803F77
S113009008000000BE922449123EABAAAA2ABECD93
S11300A0CCCC4C3E00000080BEABAAAAAA3E000005
S11300B00000BF000000803F0000000000084178FD
S11300C0D3BB4387D1133D190E3CC3BD4282AD2B34
S11300D03E68EC8276BED98FE1A93E4C80EFFFBE2C
S11300E001C4FF7F3F000000000011241FBECFEFBA
S11300F0D8E0DEBFCDBF11E0A0E0B1E0E6E1F6E17B
S113010002C005900D92A831B107D9F721E0A8E10A
S1130110B1E001C01D92A932B207E1F70E948D013E
S11301200C94090B0C9400001F920F920FB60F92BF
S113013011240F900FBE0F901F9018951F920F92CD
S11301400FB60F921124CF92DF92EF92FF921F937A
S11301502F933F934F935F936F937F938F939F93CB
S1130160AF93BF93CF93DF93EF93FF931092230149
S11301701091C600809124018130A9F028F08230CA
S1130180D1F08330B1F18BC01D3409F088C081E017
S11301908093240110921C0110921D0110921E01E3
S11301A010921F017CC060ED610F6093200182E01A
S11301B08093240174C083E0809324011D3239F4B8
S11301C08FEF9FEF90931B0180931A010BC01B329A
S11301D039F481E090E090931B0180931A0102C0EE
S11301E01092240183E090E0909319018093180108
S11301F056C0C0911801D09119012197D0931901CB
S1130200C0931801BE010D2E000C880B990B0E949F
S113021032059B01AC0160E070E080E291E40E9451
S11302202B066B017C01612F70E060537109072E6E
S1130230000C880B990B0E943205A70196010E94BD
S1130240BE0520911C0130911D0140911E01509169
S11302501F010E941C046B017C0160931C017093BC
S11302601D0180931E0190931F01CD2BC1F4C0E2A8
S1130270D1E060911A0170911B01072E000C880BCC
S1130280990B0E943205A70196010E94BE050E94A7
S1130290FA047A8369831092240181E08B83FF91AD
S11302A0EF91DF91CF91BF91AF919F918F917F910A
S11302B06F915F914F913F912F911F91FF90EF901C
S11302C0DF90CF900F900FBE0F901F901895EF9274
S11302D0FF920F93CF937A01C22F0E94FA04AB01CD
S11302E01616170644F42BB1C22BCBB92BB10095CB
S11302F002230BB90BC02BB1C095C223CBB92BB1D0
S1130300022B0BB944275527461B570BF701408393
S1130310CF910F91FF90EF900895CF93DF93CDB7D6
S1130320DEB7C657D1090FB6F894DEBF0FBECDBFF6
S113033078940E94A40380E895E20E94F5035598FE
S113034052988AB1886C8AB9E0EBF0E080818362CC
S11303508083E1EBF0E080818160808384B18F60F1
S113036084B9EE24E39402E02DEC3CEC4CE45DE330
S113037060E070E0CE0101960E940F0210E00F2EA3
S1130380F0E2EF2EF1E0FF2EF02D0F2EF0E0AF2E75
S1130390F1E0BF2EF02D6E0185E4C80ED11C992426
S11303A09394812CF70183818130E1F482818F93CE
S11303B081818F9380811F928F93BF92AF92DF923E
S11303C0CF920E941F08F70113820FB6F894DEBF84
S11303D00FBECDBF8081813029F4818192819C83BD
S11303E08B839B8600E820E444EB50E060E070E0FF
S11303F0CB010E9467010E94C703AB01BC01CE017F
S113040001960E94340289B1111105C04A9BCACFDA
S113041089B1192DC7CF4A99C5CF182DC3CFCF9213
S1130420DF92EF920F93CF93DF93EC01FC01ED5B2E
S1130430FF4F1082798368836C018FE3C80ED11C4F
S113044060E070E080E89FE30E948804F601608326
S11304507183828393830DAFEEAEDF91CF910F91C1
S1130460EF90DF90CF9008954F925F926F927F92BA
S11304708F929F92AF92BF92CF92DF92EF92FF92B0
S11304800F931F93CF93DF93EC014A015B01FC01AF
S1130490ED5BFF4F8081813071F020F0823009F4F0
S11304A0E7C03EC18A85813009F03AC1FE01ED5BA7
S11304B0FF4F808335C182E0FE01ED5BFF4F8083F7
S11304C08A819B8128813981821B930B9A8B898B2A
S11304D0181619062CF495B18DAD892B85B916C063
S11304E099236CF495B18DAD8095892385B989895B
S11304F09A899195819591099A8B898B07C0892B4B
S113050029F4FE01ED5BFF4F10821A8669897A890E
S1130510072E000C880B990B0E9432056E012FE305
S1130520C20ED11CF60120813181428153810E9487
S1130530BE050E94FA047D836C8395B18EAD8095CF
S1130540892385B989AE9AAEABAEBCAE8AE090E0A1
S11305509E878D8785E090E0988B8F8789899A891B
S11305608C01000F111F880F991F880F991F880F86
S1130570991F080F191F4801880C991C880C991C95
S1130580A12CB12CC501B4010E9430059B01AC0122
S113059060E070E48CE195E40E941B040E948106F3
S11305A09B01AC0160E070E088E492E40E941B04CB
S11305B020E030E040E05FE30E94BE050E940105B8
S11305C07C876B8780E090E00E9430054B015C01E2
S11305D0EC80FD80B7010F2C000C880B990B0E9456
S11305E032052B013C01A5019401C501B4010E940F
S11305F0BE059B01AC01C301B2010E94BE054B01C3
S11306005C01B801660F771F80E090E00E9430051E
S11306109B01AC01C501B4010E9488040E94FA0444
S113062079876887E61AF70AFF82EE82F601C080AE
S1130630D180E280F380A7019601C701B6010E9430
S11306401C0420E030E040E251E40E9488040E944F
S1130650810620E030E04AE754E40E94BE050E948F
S113066001056B8B7C8B8D8B9E8B188E1F8A58C0DB
S113067082E0FE01ED5BFF4F808389AD9AADABADA7
S1130680BCAD481B590B6A0B7B0B8B899C89AD89CC
S1130690BE8984179507A607B70708F041C095B12E
S11306A08EAD892B85B989AE9AAEABAEBCAE2F891F
S11306B0388D2F5F3F4F388F2F8B8C819D8128176A
S11306C0390731F48A819B819983888310821A8641
S11306D08885998528173907F0F4CB88DC88ED885C
S11306E0FE88C701B601660F771F881F991F220F66
S11306F0331F220F331F2F5F3F4F40E050E00E9413
S1130700FD07D701C601821B930BA40BB50B8B8B82
S11307109C8BAD8BBE8B95B18EAD8095892385B9AD
S1130720CD5BDF4F8881DF91CF911F910F91FF90B7
S1130730EF90DF90CF90BF90AF909F908F907F907D
S11307406F905F904F90089510928000E1E8F0E080
S11307501082109285001092840088E190E09093BA
S11307608900809388008081886080838081836091
S11307708083EFE6F0E0808182608083109225011F
S11307801092260110922701109228010895609179
S113079025017091260180912701909128010895E7
S11307A01F920F920FB60F9211248F939F93AF93C2
S11307B0BF938091250190912601A0912701B091CA
S11307C028010196A11DB11D809325019093260156
S11307D0A0932701B0932801BF91AF919F918F916E
S11307E00F900FBE0F901F90189528E92093C10019
S11307F026E02093C200BC0180E090E00E94300516
S113080020E030E040E851E40E94BE059B01AC01C9
S113081060E074E284E79BE40E94880420E030E016
S113082040E85FE30E941B040E9401057093C50029
S11308306093C40008955058BB27AA270E9433042C
S11308400C9484050E94760538F00E947D0520F002
S113085039F49F3F19F426F40C9473050EF4E095D3
S1130860E7FB0C946D05E92F0E94950558F3BA1720
S1130870620773078407950720F079F4A6F50C94B2
S1130880B7050EF4E0950B2EBA2FA02D0B01B9017C
S113089090010C01CA01A0011124FF27591B99F0F2
S11308A0593F50F4503E68F11A16F040A22F232FFE
S11308B0342F4427585FF3CF469537952795A7954E
S11308C0F0405395C9F77EF41F16BA0B620B730BF5
S11308D0840BBAF09150A1F0FF0FBB1F661F771F66
S11308E0881FC2F70EC0BA0F621F731F841F48F41B
S11308F0879577956795B795F7959E3F08F0B0CFA4
S11309009395880F08F09927EE0F9795879508958A
S11309100E949C040C9484050E947D0558F00E945A
S1130920760540F029F45F3F29F00C946D055111D0
S11309300C94B8050C9473050E94950568F39923EB
S1130940B1F3552391F3951B550BBB27AA276217C7
S11309507307840738F09F5F5F4F220F331F441FD4
S1130960AA1FA9F335D00E2E3AF0E0E832D0915008
S11309705040E695001CCAF72BD0FE2F29D0660FF5
S1130980771F881FBB1F261737074807AB07B0E838
S113099009F0BB0B802DBF01FF2793585F4F3AF03E
S11309A09E3F510578F00C946D050C94B8055F3F9B
S11309B0E4F3983ED4F3869577956795B795F795C4
S11309C09F5FC9F7880F911D9695879597F90895AC
S11309D0E1E0660F771F881FBB1F62177307840748
S11309E0BA0720F0621B730B840BBA0BEE1F88F757
S11309F0E09508950E9401056894B1110C94B8051E
S1130A0008950E949D0588F09F5798F0B92F992763
S1130A10B751B0F0E1F0660F771F881F991F1AF0E5
S1130A20BA95C9F714C0B13091F00E94B705B1E08E
S1130A3008950C94B705672F782F8827B85F39F08D
S1130A40B93FCCF3869577956795B395D9F73EF47E
S1130A5090958095709561957F4F8F4F9F4F089526
S1130A60E89409C097FB3EF4909580957095619544
S1130A707F4F8F4F9F4F9923A9F0F92F96E9BB27FA
S1130A809395F695879577956795B795F111F8CF76
S1130A90FAF4BB0F11F460FF1BC06F5F7F4F8F4FE1
S1130AA09F4F16C0882311F096E911C0772321F0D7
S1130AB09EE8872F762F05C0662371F096E8862F6F
S1130AC070E060E02AF09A95660F771F881FDAF7C6
S1130AD0880F9695879597F9089597F99F6780E809
S1130AE070E060E008959FEF80EC089500240A947C
S1130AF01616170618060906089500240A941216F5
S1130B001306140605060895092E0394000C11F427
S1130B10882352F0BB0F40F4BF2B11F460FF04C0D4
S1130B206F5F7F4F8F4F9F4F089557FD9058440F2D
S1130B30551F59F05F3F71F04795880F97FB991F38
S1130B4061F09F3F79F087950895121613061406F5
S1130B50551FF2CF4695F1DF08C016161706180682
S1130B60991FF1CF86957105610508940895E8945D
S1130B70BB2766277727CB0197F908950E94D105F3
S1130B800C9484050E94760538F00E947D0520F0BF
S1130B90952311F00C946D050C94730511240C9499
S1130BA0B8050E94950570F3959FC1F3950F50E029
S1130BB0551F629FF001729FBB27F00DB11D639F0B
S1130BC0AA27F00DB11DAA1F649F6627B00DA11DB1
S1130BD0661F829F2227B00DA11D621F739FB00D57
S1130BE0A11D621F839FA00D611D221F749F3327C7
S1130BF0A00D611D231F849F600D211D822F762F60
S1130C006A2F11249F5750409AF0F1F088234AF03C
S1130C10EE0FFF1FBB1F661F771F881F91505040A8
S1130C20A9F79E3F510580F00C946D050C94B8050E
S1130C305F3FE4F3983ED4F3869577956795B7952F
S1130C40F795E7959F5FC1F7FE2B880F911D969549
S1130C50879597F90895FA01EE0FFF1F3096210545
S1130C603105A1F16115710561F48038BFE39B077B
S1130C7049F168949038810561F08038BFEF9B0793
S1130C8041F099234AF5FF3FE1053105210519F1AA
S1130C90E8940894E795D901AA2329F4AB2FBE2F31
S1130CA0F85FD0F310C0FF5F70F4A695E0F7F73952
S1130CB050F019F0FF3A38F49F779F930DD00F90BE
S1130CC007FC9058089546F00C94730560E070E0BA
S1130CD080E89FE308954FE79F775F934F933F9397
S1130CE02F930E9481072F913F914F915F910E9412
S1130CF0BE050C94C90619F416F40C9473050C94EF
S1130D00FB060E949D05B8F39923C9F3B6F39F57D8
S1130D10550B87FF0E9409070024A0E640EA9001D2
S1130D2080585695979528F4805C660F771F881F26
S1130D3020F026173707480730F4621B730B840B27
S1130D40202931294A2BA69517940794202531256B
S1130D504A2758F7660F771F881F20F02617370792
S1130D60480730F4620B730B840B200D311D411DB9
S1130D70A09581F7B901842F9158880F969587958E
S1130D80089529F416F00C946D050C94B7050C9491
S1130D9073050E949D05A8F39638A0F707F80F92F3
S1130DA0E8942BE33AEA48EB5FE70E94D4050F92FC
S1130DB00F920F924DB75EB70F920E94C907E8E6F3
S1130DC0F0E00E9410074F915F91EF91FF91E5953C
S1130DD0EE1FFF1F49F0FE57E0684427EE0F441F43
S1130DE0FA95E1F74195550B0E9443070F9007FED2
S1130DF00C94370708959F3F31F0915020F4879564
S1130E0077956795B795880F911D9695879597F96E
S1130E10089591505040660F771F881FD2F70895A8
S1130E20DF93CF931F930F93FF92EF92DF927B0197
S1130E308C01689406C0DA2EEF010E94D105FE01F0
S1130E40E894A5912591359145915591A6F3EF012B
S1130E500E943304FE019701A801DA9469F7DF9038
S1130E60EF90FF900F911F91CF91DF9108959B0117
S1130E70AC0160E070E080E89FE30C9488040C947B
S1130E806D050C94FB060E949D05D8F39923C9F3C4
S1130E90940F511DA3F39150504094F059F08823BE
S1130EA032F0660F771F881F91505040C1F79E3F64
S1130EB051052CF7880F911D9695879597F90895FC
S1130EC05F3FACF0983E9CF0BB278695779567957D
S1130ED0B79508F4B1609395C1F7BB0F58F711F4B7
S1130EE060FFE8CF6F5F7F4F8F4F9F4FE3CF0C942E
S1130EF0B80516F00C94FB060C94730568940C94D6
S1130F006D050E949D05A8F39923C1F3AEF3DF9309
S1130F10CF931F930F93FF92C92FDD2788232AF0C5
S1130F202197660F771F881FDAF720E030E040E84A
S1130F305FEB9FE3883920F0803E38F021968F776D
S1130F400E941C04E0E9F0E004C00E941C04EDEBE4
S1130F50F0E00E9410078B01BE01EC01FB2E6F57DD
S1130F6071097595771F880B990B0E94320528E14A
S1130F7032E741E35FE30E94D105AF2D9801AE0152
S1130F80FF900F911F91CF91DF910E9433040C9435
S1130F908405FA01DC01AA0FBB1F9B01AC01BF57FA
S1130FA028F4222733274427507820C0B75190F4DF
S1130FB0AB2F0024469537952795011CA395D2F3B2
S1130FC0002071F0220F331F441FB395DAF30ED0C3
S1130FD00C941B0461307105A0E88A07B94630F40B
S1130FE09B01AC016627772788279078309621F0FB
S1130FF020833183428353830895A1E21A2EAA1BCE
S1131000BB1BFD010DC0AA1FBB1FEE1FFF1FA217B4
S1131010B307E407F50720F0A21BB30BE40BF50BB1
S1131020661F771F881F991F1A9469F7609570953A
S1131030809590959B01AC01BD01CF010895AEE070
S1131040B0E0E5E2F8E00C94E00A0D891E8986E040
S11310508C831A8309838FEF9FE79E838D83AE0170
S1131060475E5F4F6F89788DCE0101960E944108DB
S1131070EF81F885E00FF11F10822E96E4E00C94C6
S1131080FC0AABE0B0E0E7E4F8E00C94D20A6C01AF
S11310907B018A01FC0117821682838181FFCCC106
S11310A0CE0101963C01F6019381F70193FD8591F0
S11310B093FF81917F01882309F4BAC1853239F401
S11310C093FD859193FF81917F01853229F4B601C7
S11310D090E00E94380AE7CF912C212C312CFFE1BB
S11310E0F315D8F08B3279F038F4803279F083320A
S11310F0A1F4232D20611DC08D3261F0803369F489
S1131100232D216016C0832D8260382EE32DE460E8
S11311103E2E2AC0F32DF8601DC037FC2DC020EDF3
S1131120280F2A3040F08E32B9F436FC81C1232DC9
S11311302064322E19C036FE06C08AE0989E200D27
S11311401124922E11C0EAE02E9E200D1124222E8D
S1131150F32DF0623F2E08C08C3621F4832D806875
S1131160382E02C0883641F4F70193FD859193FF30
S113117081917F018111B3CF982F9F7D9554933036
S113118028F40C5F1F4F9FE399830DC0833631F021
S1131190833771F0833509F059C021C0F80180818B
S11311A089830E5F1F4F88248394912C530113C0AD
S11311B02801F2E04F0E511CF801A080B18036FEE8
S11311C003C0692D70E002C06FEF7FEFC5010E947C
S11311D02D0A4C018201F32DFF773F2E16C0280102
S11311E022E0420E511CF801A080B18036FE03C0FB
S11311F0692D70E002C06FEF7FEFC5010E94220AE3
S11312004C01F32DF0683F2E820133FC1BC0822D6C
S113121090E088169906B0F4B60180E290E00E944E
S1131220380A2A94F4CFF50137FC859137FE819171
S11312305F01B60190E00E94380A21102A9421E04F
S1131240821A91088114910471F7E8C0843611F070
S1131250893641F5F80137FE07C0608171818281CA
S113126093810C5F1F4F08C060817181072E000CB1
S1131270880B990B0E5F1F4FF32DFF763F2E97FFC0
S113128009C090958095709561957F4F8F4F9F4FC2
S1131290F0683F2E2AE030E0A3010E94740A882EF1
S11312A0861845C0853731F4232D2F7EB22E2AE0CF
S11312B030E025C0932D997FB92E8F36C1F018F4F4
S11312C0883579F0B5C0803719F0883721F0B0C07F
S11312D0E92FE061BE2EB4FE0DC0FB2DF460BF2EDD
S11312E009C034FE0AC0292F2660B22E06C028E0A9
S11312F030E005C020E130E002C020E132E0F80136
S1131300B7FE07C060817181828193810C5F1F4F9A
S113131006C06081718180E090E00E5F1F4FA301E1
S11313200E94740A882E8618FB2DFF773F2E36FE06
S11313300DC0232D2E7FA22E891458F434FE0BC029
S113134032FC09C0832D8E7EA82E05C0B82CA32C98
S113135003C0B82C01C0B92CA4FE0FC0FE01E80DD7
S1131360F11D8081803321F49A2D997EA92E09C024
S1131370A2FE06C0B394B39404C08A2D867809F003
S1131380B394A3FC11C0A0FE06C0B21488F4280CC8
S1131390922C9B180EC0B21460F4B60180E290E067
S11313A00E94380AB394F7CFB21418F42B1802C071
S11313B0982C212CA4FE10C0B60180E390E00E947A
S11313C0380AA2FE17C0A1FC03C088E790E002C05F
S11313D088E590E0B6010CC08A2D867859F0A1FE0C
S11313E002C08BE201C080E2A7FC8DE2B60190E06E
S11313F00E94380A891438F4B60180E390E00E9410
S1131400380A9A94F7CF8A94F301E80DF11D80818C
S1131410B60190E00E94380A8110F5CF222009F429
S113142042CEB60180E290E00E94380A2A94F6CFB8
S1131430F6018681978102C08FEF9FEF2B96E2E140
S11314400C94EE0AFC010590615070400110D8F72D
S1131450809590958E0F9F1F0895FC0161507040F8
S113146001900110D8F7809590958E0F9F1F0895D5
S11314700F931F93CF93DF93FB01238121FD03C0BF
S11314808FEF9FEF2CC022FF16C046815781248125
S113149035814217530744F4A081B1819D012F5F28
S11314A03F4F318320838C93268137812F5F3F4FB9
S11314B03783268314C08B01EC01FB010084F18582
S11314C0E02D0995892BE1F6D80116968D919C9112
S11314D01797019617969C938E931697CE01DF91DA
S11314E0CF911F910F910895FA01AA27283051F145
S11314F0203181F1E8946F936E7F6E5F7F4F8F4F41
S11315009F4FAF4FB1E03ED0B4E03CD0670F781F9F
S1131510891F9A1FA11D680F791F8A1F911DA11D84
S11315206A0F711D811D911DA11D20D009F46894BD
S11315303F912AE0269F11243019305D3193DEF665
S1131540CF010895462F4770405D4193B3E00FD01B
S1131550C9F7F6CF462F4F70405D4A3318F0495D06
S113156031FD4052419302D0A9F7EACFB4E0A695E9
S11315709795879577956795BA95C9F7009761050B
S1131580710508959B01AC010A2E06945795479561
S113159037952795BA95C9F7620F731F841F951F56
S11315A0A01D08952F923F924F925F926F927F9267
S11315B08F929F92AF92BF92CF92DF92EF92FF925F
S11315C00F931F93CF93DF93CDB7DEB7CA1BDB0B0B
S11315D00FB6F894DEBF0FBECDBF09942A883988B0
S11315E048885F846E847D848C849B84AA84B984B7
S11315F0C884DF80EE80FD800C811B81AA81B981C3
S1131600CE0FD11D0FB6F894DEBF0FBECDBFED01D6
S10916100895F894FFCFD9
S11316164D6F746F722025642C20616E676C652093
S10B16263D202025640A0000A8
S9030000FC
