:100000000C9434000C9451000C9451000C94510049
:100010000C9451000C9451000C9451000C9451001C
:100020000C9451000C9451000C9451000C94E0007D
:100030000C9451000C9451000C9451000C945100FC
:100040000C9451000C9451000C9453000C945100EA
:100050000C9451000C9451000C9451000C945100DC
:100060000C9451000C94510011241FBECFEFD8E026
:10007000DEBFCDBF11E0A0E0B1E0EEE0F2E002C0F3
:1000800005900D92A030B107D9F721E0A0E0B1E0D2
:1000900001C01D92AC31B207E1F70E94BC000C9484
:1000A00005010C9400001F920F920FB60F921124BD
:1000B0002F933F938F939F93EF93FF93109216018B
:1000C000109215019091C60080911701813081F046
:1000D00018F08230C9F035C09D3421F481E080935E
:1000E00017012FC0923569F583E08093170129C06D
:1000F00080ED890F8093040182E0809317011092B4
:100100000101109200011DC02091000130910101F8
:10011000F901EE0FFF1FEC5FFE4F892F90E09283F5
:100120008183C90101969093010180930001089792
:1001300041F41092170181E090E0909316018093B2
:100140001501FF91EF919F918F913F912F910F900A
:100150000FBE0F901F90189584B18D6284B98CB535
:1001600080658CBD08952898809102018EBD0DB4E4
:1001700007FEFDCF289A08950E94AC00E0E8F0E069
:10018000808183628083A1E8B0E08C9184608C934D
:10019000529A84B5836184BD85B5846085BD84B57C
:1001A000836484BD808189688083E2E0F1E011820C
:1001B00084E080830E94B30088E28093B400FFCF84
:1001C0001F920F920FB60F9211248F939F93AF93AC
:1001D000BF938091180190911901A0911A01B091DB
:1001E0001B010196A11DB11D809318019093190167
:1001F000A0931A01B0931B01BF91AF919F918F9172
:0E0200000F900FBE0F901F901895F894FFCF2F
:00000001FF
