S0100000526F626F7441726D2E73726563EE
S11300000C9434000C9451000C9451000C94510045
S11300100C9451000C9451000C9451000C94510018
S11300200C9451000C9451000C9451000C948804CD
S11300300C9451000C9451000C9451000C945100F8
S11300400C9451000C9451000C945D000C945100DC
S11300500C9453000C9451000C9451000C945100D6
S11300600C9451000C94510011241FBECFEFD8E022
S1130070DEBFCDBF11E0A0E0B1E0E8EDFFE002C0DB
S113008005900D92AE35B107D9F721E0AEE5B1E0A8
S113009001C01D92A837B207E1F70E94DB000C945F
S11300A0EA070C9400001F920F920FB60F921124CE
S11300B00F900FBE0F901F9018951F920F920FB6BE
S11300C00F9211242F933F938F939F93EF93FF935A
S11300D010927201109271019091C6008091730187
S11300E0813061F028F08230A9F0833089F132C088
S11300F09D3481F581E0809373012CC080ED890FDC
S11301008093600182E08093730110925F011092EA
S11301105E0120C020915E0130915F01F901EE0F74
S1130120FF1FE05AFE4F892F90E092838183C9011B
S1130130019690935F0180935E01089759F41092A1
S1130140730181E090E0909372018093710102C089
S113015010927301FF91EF919F918F913F912F9195
S11301600F900FBE0F901F901895EF92FF920F9370
S1130170CF937A01C22F0E940106AB01161617060F
S113018044F42BB1C22BCBB92BB1009502230BB98C
S11301900BC02BB1C095C223CBB92BB1022B0BB929
S11301A044275527461B570BF7014083CF910F91E6
S11301B0FF90EF900895CF93DF93CDB7DEB7C4548B
S11301C0D1090FB6F894DEBF0FBECDBF78940E945C
S11301D05C0480E895E20E94AD04559852988AB177
S11301E0886C8AB9E0EBF0E0808183628083E1EB84
S11301F0F0E080818160808384B18F6084B9EE24D3
S1130200E39402E02CE93FED40E35DE360E070E05D
S1130210CE0101960E94CD016894EE24E2F808E034
S113022022E338EA43E85EE360E070E0CE018396BF
S11302300E94CD0180E091E00E941D0510E00F2E88
S1130240F0E6EF2EF1E0FF2EF02D0F2EF4E65F2EF8
S1130250F02D77247394612CF70181899289019799
S113026009F076C0128A118A81819281C0974C016B
S1130270880C991C880F991F880F991F880F991F44
S1130280880D991D83809480F0E38F1A9108880E5D
S1130290991EF70185819681C0975C01AA0CBB1C4D
S11302A0880F991F880F991F880F991F8A0D9B1D0E
S11302B0A780B084F0E3AF1AB108A80EB91EF70105
S11302C083859485C097589E6001599ED00C112453
S11302D085859685C097AC01440F551F9C01220F5C
S11302E0331F220F331F220F331FCA01820F931FA4
S11302F08C0D9D1DC784D088F0E3CF1AD108C80E99
S1130300D91EC4010E941805C5010E941805C60122
S11303100E941805F701818592858D9719F4D1946F
S1130320C194D108F7018081813019F0823049F0FD
S11303300FC0DD82CC829F868E86BD86AC86798294
S113034007C0DFA2CEA299AA88AABFA6AEA67BA2A6
S113035000E820E444EB50E060E070E0CB010E9450
S1130360B5000E947F04AB01BC01CE0101960E943E
S1130370C1020E947F04AB01BC01CE0183960E949E
S1130380C10289B1111105C04A9B66CF89B1172DED
S113039063CF4A9961CF162D5FCFEF920F93CF931E
S11303A0DF93EC0119A27A83698360E070E080E84E
S11303B09FE30E948F056D8F7E8F8F8F98A30B8F85
S11303C0EC8E1F8A188E198E1A8E188A1F86DF915A
S11303D0CF910F91EF9008954F925F926F927F9219
S11303E08F929F92AF92BF92CF92DF92EF92FF9241
S11303F00F931F93CF93DF93EC0195B18C8D892BD1
S113040085B90F8518898F89988DA98DBA8D6A0150
S11304107B01C81AD90AEA0AFB0AC801012E000C9A
S1130420AA0BBB0B8C159D05AE05BF0508F097C044
S11304304F8B588F698F7A8F89A1833009F456C006
S1130440843009F464C0823009F07FC0E988FA88F6
S1130450B801012E000C880B990B0E9439064B0140
S11304605C01B801660F771F072E000C880B990BEF
S11304700E9439062B013C01B7010F2C000C880B9C
S1130480990B0E94390620E030E040E850E40E94D5
S1130490C50620E030E040E85FE30E9423059B01AD
S11304A0AC01C301B2010E948F059B01AC01C501DF
S11304B0B4010E9422050E9401066B3071051CF0F4
S11304C0788B6F8704C08AE090E0988B8F872B89A4
S11304D03C898F8198852817390710F083E089A318
S11304E08FEFE81AF80AFA8AE98A2FC02B893C8927
S11304F089859A852817390740F184E089A3898979
S11305009A899195819591099A8B898B1EC0298925
S11305103A89C801880F991FB901660F771F660FC2
S1130520771F6F5F7F4F0E948D07061B170B188B79
S11305300F874B895C898D819E814817590708F084
S113054018822F5F3F4F3A8B298B95B18C8D809504
S1130550892385B98B899C8901969C8B8B8B89A176
S1130560DF91CF911F910F91FF90EF90DF90CF908B
S1130570BF90AF909F908F907F906F905F904F90BF
S113058008952F923F924F925F926F927F928F9233
S11305909F92AF92BF92CF92DF92EF92FF920F930E
S11305A01F93CF93DF93CDB7DEB72C970FB6F89494
S11305B0DEBF0FBECDBF9C878B87DC018C91813061
S11305C009F05BC182E091968C93919713968D917B
S11305D09C91149711962D913C9112978C01021BBA
S11305E0130B12969C938E9311971016110634F4E4
S11305F095B15B968C91892B85B914C011235CF459
S113060095B1EB85FC85838D8095892385B91195FA
S11306100195110907C00115110521F4AB85BC85AD
S113062091961C92AB85BC855D968D919D910D90A4
S1130630BC91A02D8D839E83AF83B887B801012E12
S1130640000C880B990B0E9439062D813E814F8145
S113065058850E94C5060E9408062B013C01EB85C3
S1130660FC85768365832384348485859685289EDA
S1130670B001299E700D389E700D112480E090E029
S11306800E9437066B017C01029DC001039D900D01
S1130690129D900D11249A878987A7019601C7019D
S11306A0B6010E94C50669837A838B839C838984FF
S11306B09A84880C991C880C991CA12CB12CC50116
S11306C0B4010E9437069B01AC0169817A818B8158
S11306D09C810E9422050E9438079B01AC01C7013E
S11306E0B6010E94220520E030E040E05FE30E9472
S11306F0C5060E9408066B017C0180E090E00E9420
S113070037064B015C01B20180E090E00E9437069D
S113071069837A838B839C83A5019401C501B40109
S11307200E94C5069B01AC0169817A818B819C8101
S11307300E94C5064B015C0169857A85660F771FA7
S113074080E090E00E9437069B01AC01C501B40132
S11307500E948F050E940806AB85BC8518967C9381
S11307606E931797C201861B970B1A969C938E93D0
S113077019974101A12CB12CC501B4010E9437067F
S11307802D813E814F8158850E94C5069B01AC0195
S113079060E070E080E090E40E948F050E943807DA
S11307A020E030E44CE156E40E94C5060E940106B4
S11307B0EB85FC85708B6787148A138A81E090E04F
S11307C0928B818B82E080838DE091E00E941D05F5
S11307D082E291E00E940905C8010E94180589E29D
S11307E091E00E940905AB85BC851D968D919C9175
S11307F01E970E94180583E391E00E940905EB858A
S1130800FC85838594850E94180581E491E00E940B
S11308100905C6010E94180587E491E00E940905B4
S1130820AB85BC8515968D919C9116970E941805F1
S11308308BE491E00E940905EB85FC858781908516
S11308400E9418058FE491E00E940905AB85BC85E0
S113085019968D919C911A970E94180583E591E051
S11308600E940905EB85FC85878590890E941805FF
S11308708DE091E00E941D0506C0823021F48B8535
S11308809C850E94EC012C960FB6F894DEBF0FBE37
S1130890CDBFDF91CF911F910F91FF90EF90DF902B
S11308A0CF90BF90AF909F908F907F906F905F900C
S11308B04F903F902F90089510928000E1E8F0E06F
S11308C01082109285001092840088E190E0909349
S11308D08900809388008081886080838081836020
S11308E08083EFE6F0E0808182608083109274015F
S11308F0109275011092760110927701089560911B
S11309007401709175018091760190917701089539
S11309101F920F920FB60F9211248F939F93AF9350
S1130920BF938091740190917501A0917601B0916B
S113093077010196A11DB11D8093740190937501F7
S1130940A0937601B0937701BF91AF919F918F915E
S11309500F900FBE0F901F90189528E92093C100A7
S113096026E02093C200BC0180E090E00E9437069C
S113097020E030E040E851E40E94C5069B01AC0150
S113098060E074E284E79BE40E948F0520E030E09D
S113099040E85FE30E9422050E9408067093C500A8
S11309A06093C4000895E0ECF0E0908195FFFDCFE2
S11309B08093C60008958AE00E94D30408950F939B
S11309C01F93CF93DF93CDB7DEB72A970FB6F89472
S11309D0DEBF0FBECDBF4AE0BE016F5F7F4F0E94F6
S11309E0B5078981882351F08E010E5F1F4F0E9445
S11309F0D304F80181918F018111F9CF2A960FB6A2
S1130A00F894DEBF0FBECDBFDF91CF911F910F9140
S1130A100895CF93DF93EC018881882331F02196E8
S1130A200E94D30489918111FBCFDF91CF91089566
S1130A300E94DF040E94DB0408950E9409050E94BD
S1130A40DB0408955058BB27AA270E943A050C944A
S1130A508B060E947D0638F00E94840620F039F44B
S1130A609F3F19F426F40C947A060EF4E095E7FB04
S1130A700C947406E92F0E949C0658F3BA17620777
S1130A8073078407950720F079F4A6F50C94BE0645
S1130A900EF4E0950B2EBA2FA02D0B01B901900195
S1130AA00C01CA01A0011124FF27591B99F0593FD9
S1130AB050F4503E68F11A16F040A22F232F342F21
S1130AC04427585FF3CF469537952795A795F0406F
S1130AD05395C9F77EF41F16BA0B620B730B840B84
S1130AE0BAF09150A1F0FF0FBB1F661F771F881F3C
S1130AF0C2F70EC0BA0F621F731F841F48F4879594
S1130B0077956795B795F7959E3F08F0B0CF939585
S1130B10880F08F09927EE0F9795879508950E94FE
S1130B20A3050C948B060E94840658F00E947D064F
S1130B3040F029F45F3F29F00C94740651110C9491
S1130B40BF060C947A060E949C0668F39923B1F3BD
S1130B50552391F3951B550BBB27AA2762177307DF
S1130B60840738F09F5F5F4F220F331F441FAA1F73
S1130B70A9F335D00E2E3AF0E0E832D0915050402F
S1130B80E695001CCAF72BD0FE2F29D0660F771FDD
S1130B90881FBB1F261737074807AB07B0E809F0C3
S1130BA0BB0B802DBF01FF2793585F4F3AF09E3F48
S1130BB0510578F00C9474060C94BF065F3FE4F37F
S1130BC0983ED4F3869577956795B795F7959F5F8B
S1130BD0C9F7880F911D9695879597F90895E1E0D7
S1130BE0660F771F881FBB1F621773078407BA0736
S1130BF020F0621B730B840BBA0BEE1F88F7E09591
S1130C0008950E9408066894B1110C94BF060895D3
S1130C100E94A40688F09F5798F0B92F9927B751DE
S1130C20B0F0E1F0660F771F881F991F1AF0BA958C
S1130C30C9F714C0B13091F00E94BE06B1E0089526
S1130C400C94BE06672F782F8827B85F39F0B93F18
S1130C50CCF3869577956795B395D9F73EF490953F
S1130C608095709561957F4F8F4F9F4F0895E894BD
S1130C7009C097FB3EF490958095709561957F4FE0
S1130C808F4F9F4F9923A9F0F92F96E9BB2793958E
S1130C90F695879577956795B795F111F8CFFAF49E
S1130CA0BB0F11F460FF1BC06F5F7F4F8F4F9F4FCF
S1130CB016C0882311F096E911C0772321F09EE82D
S1130CC0872F762F05C0662371F096E8862F70E093
S1130CD060E02AF09A95660F771F881FDAF7880F6D
S1130CE09695879597F9089597F99F6780E870E03E
S1130CF060E008959FEF80EC089500240A9416168E
S1130D00170618060906089500240A9412161306F5
S1130D10140605060895092E0394000C11F4882383
S1130D2052F0BB0F40F4BF2B11F460FF04C06F5F9F
S1130D307F4F8F4F9F4F089557FD9058440F551F75
S1130D4059F05F3F71F04795880F97FB991F61F049
S1130D509F3F79F087950895121613061406551FC0
S1130D60F2CF4695F1DF08C0161617061806991F2C
S1130D70F1CF86957105610508940895E894BB2721
S1130D8066277727CB0197F908950E94D8060C941B
S1130D908B060E947D0638F00E94840620F095237D
S1130DA011F00C9474060C947A0611240C94BF066A
S1130DB00E949C0670F3959FC1F3950F50E0551F58
S1130DC0629FF001729FBB27F00DB11D639FAA279C
S1130DD0F00DB11DAA1F649F6627B00DA11D661FEB
S1130DE0829F2227B00DA11D621F739FB00DA11D0C
S1130DF0621F839FA00D611D221F749F3327A00DC6
S1130E00611D231F849F600D211D822F762F6A2F61
S1130E1011249F5750409AF0F1F088234AF0EE0FC6
S1130E20FF1FBB1F661F771F881F91505040A9F7F3
S1130E309E3F510580F00C9474060C94BF065F3FEE
S1130E40E4F3983ED4F3869577956795B795F7952F
S1130E50E7959F5FC1F7FE2B880F911D96958795A7
S1130E6097F9089519F416F40C947A060C947807FB
S1130E700E94A406B8F39923C9F3B6F39F57550B00
S1130E8087FF0E9486070024A0E640EA900180586C
S1130E905695979528F4805C660F771F881F20F07D
S1130EA026173707480730F4621B730B840B20297D
S1130EB031294A2BA69517940794202531254A27D2
S1130EC058F7660F771F881F20F026173707480743
S1130ED030F4620B730B840B200D311D411DA09562
S1130EE081F7B901842F9158880F969587950895B5
S1130EF09F3F31F0915020F4879577956795B7958A
S1130F00880F911D9695879597F9089591505040B3
S1130F10660F771F881FD2F7089597FB072E16F4E4
S1130F20009407D077FD09D00E94A10707FC05D0E3
S1130F303EF4909581959F4F0895709561957F4FEC
S1130F400895AA1BBB1B51E107C0AA1FBB1FA6170C
S1130F50B70710F0A61BB70B881F991F5A95A9F75E
S1130F6080959095BC01CD010895BB274A3031F49A
S1130F70992322F4BDE2909581959F4F0C94C1076B
S1130F80BB27FB015527AA27880F991FAA1FA4175F
S1130F9010F0A41B83955051B9F7A05DAA3308F053
S1130FA0A95DA193009779F7B111B1931192CB0187
S1130FB00C94DA07DC01FC01672F71917723E1F7C8
S1130FC0329704C07C916D9370836291AE17BF0712
S10B0FD0C8F30895F894FFCF63
S1130FD848656C6C6F20776F726C6421002323233F
S1130FE823232323232323232323232323232323C5
S1130FF82300416E676C6520006475726174696FC3
S11310086E2000416363656C65726174696F6E205C
S113101800766D61782000236E20007430200074FF
S1111028312000537465702074696D652000DA
S9030000FC
