S0100000526F626F7441726D2E73726563EE
S11300000C9475000C9492000C9492000C94920041
S11300100C9492000C9492000C9492000C94920014
S11300200C9492000C9492000C9492000C946C0426
S11300300C9492000C9492000C9492000C949200F4
S11300400C9492000C9492000C949E000C949200D8
S11300500C9494000C9492000C9492000C949200D2
S11300600C9492000C94920007634236B79BD8A775
S11300701A39685618AEBAAB558C1D3CB7CC5763C9
S1130080BD6DEDFD753EF6177231BF000000803F77
S113009008000000BE922449123EABAAAA2ABECD93
S11300A0CCCC4C3E00000080BEABAAAAAA3E000005
S11300B00000BF000000803F0000000000084178FD
S11300C0D3BB4387D1133D190E3CC3BD4282AD2B34
S11300D03E68EC8276BED98FE1A93E4C80EFFFBE2C
S11300E001C4FF7F3F000000000011241FBECFEFBA
S11300F0D8E0DEBFCDBF11E0A0E0B1E0E2E6F8E178
S113010002C005900D92AA34B107D9F721E0AAE400
S1130110B1E001C01D92AB35B207E1F70E948D0139
S11301200C942F0C0C9400001F920F920FB60F9298
S113013011240F900FBE0F901F9018951F920F92CD
S11301400FB60F921124CF92DF92EF92FF921F937A
S11301502F933F934F935F936F937F938F939F93CB
S1130160AF93BF93CF93DF93EF93FF931092550117
S11301701091C600809156018130A9F028F0823098
S1130180D1F08330B1F18BC01D3409F088C081E017
S11301908093560110924E0110924F01109250011B
S11301A0109251017CC060ED610F6093520182E0B6
S11301B08093560174C083E0809356011D3239F454
S11301C08FEF9FEF90934D0180934C010BC01B3236
S11301D039F481E090E090934D0180934C0102C08A
S11301E01092560183E090E090934B0180934A0172
S11301F056C0C0914A01D0914B012197D0934B0135
S1130200C0934A01BE010D2E000C880B990B0E946D
S11302101D069B01AC0160E070E080E291E40E9465
S113022016076B017C01612F70E060537109072E82
S1130230000C880B990B0E941D06A70196010E94D1
S1130240A90620914E0130914F01409150015091E7
S113025051010E9407056B017C0160934E0170936C
S11302604F018093500190935101CD2BC1F4C2E50D
S1130270D1E060914C0170914D01072E000C880B68
S1130280990B0E941D06A70196010E94A9060E94CF
S1130290E5057A8369831092560181E08B83FF918F
S11302A0EF91DF91CF91BF91AF919F918F917F910A
S11302B06F915F914F913F912F911F91FF90EF901C
S11302C0DF90CF900F900FBE0F901F901895EF9274
S11302D0FF920F93CF937A01C22F0E94E505AB01E1
S11302E01616170644F42BB1C22BCBB92BB10095CB
S11302F002230BB90BC02BB1C095C223CBB92BB1D0
S1130300022B0BB944275527461B570BF701408393
S1130310CF910F91FF90EF900895CF93DF93CDB7D6
S1130320DEB7C455D1090FB6F894DEBF0FBECDBFFA
S113033078940E94400480E895E20E9491045598C4
S113034052988AB1886C8AB9E0EBF0E080818362CC
S11303508083E1EBF0E080818160808384B18F60F1
S113036084B9EE24E39402E02DEC3CEC4CE45DE330
S113037060E070E0CE0101960E940F0210E00F2EA3
S1130380F2E5EF2EF1E0FF2EF02D0F2EF0E0AF2E70
S1130390F1E0BF2EF02D6E0183E2C80ED11C99242A
S11303A09394812CF70183818130E1F482818F93CE
S11303B081818F9380811F928F93BF92AF92DF923E
S11303C0CF920E943509F70113820FB6F894DEBF6D
S11303D00FBECDBF8081813029F4818192819D83BC
S11303E08C83998200E820E444EB50E060E070E004
S11303F0CB010E9467010E946304AB01BC01CE01E2
S113040001960E94FD0289B1111105C04A9BCACF11
S113041089B1192DC7CF4A99C5CF182DC3CFEF92F3
S11304200F93CF93DF93EC0119A27A83698360E081
S113043070E080E89FE30E9473056D8F7E8F8F8F3D
S113044098A30B8FEC8E1F8A188E198E1A8E188A19
S11304501F86DF91CF910F91EF9008954F925F9295
S11304606F927F928F929F92AF92BF92CF92DF92C0
S1130470EF92FF920F931F93CF93DF93EC0195B10B
S11304808C8D892B85B90F8518898F89988DA98DB5
S1130490BA8D6A017B01C81AD90AEA0AFB0AC801A3
S11304A0012E000CAA0BBB0B8C159D05AE05BF05D8
S11304B008F091C04F8B588F698F7A8F89A1833050
S11304C009F44EC0843009F45EC0823009F079C06A
S11304D0E988FA88B801012E000C880B990B0E9458
S11304E01D064B015C01B801660F771F072E000C37
S11304F0880B990B0E941D062B013C01B7010F2CA0
S1130500000C880B990B0E941D0620E030E040E8A7
S113051050E40E94A90620E030E040E85FE30E9436
S113052007059B01AC01C301B2010E9473059B0145
S1130530AC01C501B4010E9406050E94E505788B53
S11305406F872B893C898F8198852817390711F487
S113055083E089A38FEFE81AF80AFA8AE98A31C09E
S11305602B893C8989859A852817390751F584E0B8
S113057089A389899A899195819591099A8B898B07
S11305800E94FC041EC029893A89C801880F991F5A
S1130590B901660F771F660F771F6F5F7F4F0E9449
S11305A0E808061B170B188B0F874B895C898D8114
S11305B09E814817590709F418822F5F3F4F3A8BE1
S11305C0298B95B18C8D8095892385B98B899C89DC
S11305D001969C8B8B8B89A1DF91CF911F910F91F9
S11305E0FF90EF90DF90CF90BF90AF909F908F904F
S11305F07F906F905F904F9008952F923F924F920B
S11306005F926F927F928F929F92AF92BF92CF929E
S1130610DF92EF92FF920F931F93CF93DF9300D05B
S113062000D000D0CDB7DEB79E838D83FC018081DE
S1130630813009F006C182E081A383819481218104
S113064032818C01021B130B9283818310161106D5
S11306502CF495B1838D892B85B913C011235CF4D7
S113066095B1ED81FE81838D8095892385B911959E
S11306700195110906C00115110519F4ED81FE81DA
S113068011A222242394312CED81FE813486238609
S11306908AE090E096878587858C968CA78CB0A09D
S11306A0B801012E000C880B990B0E941D06A501B0
S11306B094010E94A9060E94EC056B017C012801AB
S11306C0440C551C440C551C612C712CC301B20103
S11306D00E941B069B01AC0160E070E088EC92E490
S11306E00E9406050E946C079B01AC0160E070E06B
S11306F080E291E40E94060520E030E040E05FE300
S11307000E94A9060E94EC052B013C0180E090E0C8
S11307100E941B069B01AC010E94A90669837A838F
S11307208B839C83B60180E090E00E941B069B01B2
S1130730AC0169817A818B819C810E94A9066983BD
S11307407A838B839C83B801660F771F80E090E0E7
S11307500E941B069B01AC0169817A818B819C817B
S11307600E94730520E030E040E85FE30E94060544
S11307700E94EC05ED81FE8170876783960122500B
S11307803109C901861B970B92878187F1E0CF1A43
S1130790D108ED81FE81D682C582A501940160E075
S11307A070E080E090E40E9473050E946C0720E0F2
S11307B030E44CE156E40E94A9060E94E505ED816F
S11307C0FE81708B6787148A138A328A218A82E0B9
S11307D0808387E191E00E9401058CE291E00E9410
S11307E0ED04C2010E94FC0482E391E00E94ED0446
S11307F0ED81FE81858196810E94FC0486E391E06F
S11308000E94ED04ED81FE81878190850E94FC04A5
S11308108AE391E00E94ED04ED81FE818185928559
S11308200E94FC048EE391E00E94ED04ED81FE81C0
S1130830878590890E94FC0487E191E00E9401056C
S113084006C0823021F48D819E810E942E0226965C
S11308500FB6F894DEBF0FBECDBFDF91CF911F91CD
S11308600F91FF90EF90DF90CF90BF90AF909F904B
S11308708F907F906F905F904F903F902F9008954E
S113088010928000E1E8F0E010821092850010924E
S1130890840088E190E090938900809388008081AF
S11308A088608083808183608083EFE6F0E08081CC
S11308B0826080831092570110925801109259015E
S11308C010925A01089560915701709158018091D6
S11308D0590190915A0108951F920F920FB60F92E9
S11308E011248F939F93AF93BF938091570190915D
S11308F05801A0915901B0915A010196A11DB11D51
S11309008093570190935801A0935901B0935A01D1
S1130910BF91AF919F918F910F900FBE0F901F9039
S1130920189528E92093C10026E02093C200BC0159
S113093080E090E00E941B0620E030E040E851E4B3
S11309400E94A9069B01AC0160E074E284E79BE489
S11309500E94730520E030E040E85FE30E94060552
S11309600E94EC057093C5006093C4000895E0EC08
S1130970F0E0908195FFFDCF8093C60008958AE052
S11309800E94B70408950F931F93CF93DF93CDB7BD
S1130990DEB72A970FB6F894DEBF0FBECDBF4AE08C
S11309A0BE016F5F7F4F0E9410098981882351F037
S11309B08E010E5F1F4F0E94B704F80181918F01D1
S11309C08111F9CF2A960FB6F894DEBF0FBECDBFC2
S11309D0DF91CF911F910F910895CF93DF93EC0195
S11309E08881882331F021960E94B704899181116E
S11309F0FBCFDF91CF9108950E94C3040E94BF04EE
S1130A0008950E94ED040E94BF0408955058BB2726
S1130A10AA270E941E050C946F060E94610638F0F6
S1130A200E94680620F039F49F3F19F426F40C94D0
S1130A305E060EF4E095E7FB0C945806E92F0E943D
S1130A40800658F3BA17620773078407950720F0E6
S1130A5079F4A6F50C94A2060EF4E0950B2EBA2FA9
S1130A60A02D0B01B90190010C01CA01A0011124B0
S1130A70FF27591B99F0593F50F4503E68F11A165C
S1130A80F040A22F232F342F4427585FF3CF4695ED
S1130A9037952795A795F0405395C9F77EF41F160F
S1130AA0BA0B620B730B840BBAF09150A1F0FF0FD9
S1130AB0BB1F661F771F881FC2F70EC0BA0F621FC5
S1130AC0731F841F48F4879577956795B795F795B5
S1130AD09E3F08F0B0CF9395880F08F09927EE0F4A
S1130AE09795879508950E9487050C946F060E9438
S1130AF0680658F00E94610640F029F45F3F29F02F
S1130B000C94580651110C94A3060C945E060E9492
S1130B10800668F39923B1F3552391F3951B550B84
S1130B20BB27AA2762177307840738F09F5F5F4FBC
S1130B30220F331F441FAA1FA9F335D00E2E3AF0FB
S1130B40E0E832D091505040E695001CCAF72BD013
S1130B50FE2F29D0660F771F881FBB1F2617370764
S1130B604807AB07B0E809F0BB0B802DBF01FF2796
S1130B7093585F4F3AF09E3F510578F00C94580615
S1130B800C94A3065F3FE4F3983ED4F386957795DF
S1130B906795B795F7959F5FC9F7880F911D96954F
S1130BA0879597F90895E1E0660F771F881FBB1FAB
S1130BB0621773078407BA0720F0621B730B840B58
S1130BC0BA0BEE1F88F7E09508950E94EC0568942F
S1130BD0B1110C94A30608950E94880688F09F57CB
S1130BE098F0B92F9927B751B0F0E1F0660F771F4D
S1130BF0881F991F1AF0BA95C9F714C0B13091F043
S1130C000E94A206B1E008950C94A206672F782FE3
S1130C108827B85F39F0B93FCCF386957795679507
S1130C20B395D9F73EF490958095709561957F4F73
S1130C308F4F9F4F0895E89409C097FB3EF4909519
S1130C408095709561957F4F8F4F9F4F9923A9F0A1
S1130C50F92F96E9BB279395F69587957795679530
S1130C60B795F111F8CFFAF4BB0F11F460FF1BC074
S1130C706F5F7F4F8F4F9F4F16C0882311F096E907
S1130C8011C0772321F09EE8872F762F05C06623B5
S1130C9071F096E8862F70E060E02AF09A95660F6E
S1130CA0771F881FDAF7880F9695879597F9089527
S1130CB097F99F6780E870E060E008959FEF80EC0B
S1130CC0089500240A9416161706180609060895AE
S1130CD000240A9412161306140605060895092E14
S1130CE00394000C11F4882352F0BB0F40F4BF2B83
S1130CF011F460FF04C06F5F7F4F8F4F9F4F0895C3
S1130D0057FD9058440F551F59F05F3F71F04795B8
S1130D10880F97FB991F61F09F3F79F0879508959D
S1130D20121613061406551FF2CF4695F1DF08C0BC
S1130D30161617061806991FF1CF869571056105D9
S1130D4008940895E894BB2766277727CB0197F981
S1130D5008950E94BC060C946F060E94610638F048
S1130D600E94680620F0952311F00C9458060C9408
S1130D705E0611240C94A3060E94800670F3959FCE
S1130D80C1F3950F50E0551F629FF001729FBB277E
S1130D90F00DB11D639FAA27F00DB11DAA1F649F1A
S1130DA06627B00DA11D661F829F2227B00DA11DCD
S1130DB0621F739FB00DA11D621F839FA00D611D53
S1130DC0221F749F3327A00D611D231F849F600D74
S1130DD0211D822F762F6A2F11249F5750409AF09D
S1130DE0F1F088234AF0EE0FFF1FBB1F661F771F29
S1130DF0881F91505040A9F79E3F510580F00C94F4
S1130E0058060C94A3065F3FE4F3983ED4F386950A
S1130E1077956795B795F795E7959F5FC1F7FE2B93
S1130E20880F911D9695879597F90895FA01EE0F0D
S1130E30FF1F309621053105A1F16115710561F49B
S1130E408038BFE39B0749F168949038810561F0CD
S1130E508038BFEF9B0741F099234AF5FF3FE10536
S1130E603105210519F1E8940894E795D901AA23DD
S1130E7029F4AB2FBE2FF85FD0F310C0FF5F70F4DE
S1130E80A695E0F7F73950F019F0FF3A38F49F7758
S1130E909F930DD00F9007FC9058089546F00C9442
S1130EA05E0660E070E080E89FE308954FE79F7777
S1130EB05F934F933F932F930E946C082F913F9120
S1130EC04F915F910E94A9060C94B40719F416F48B
S1130ED00C945E060C94E6070E948806B8F39923E6
S1130EE0C9F3B6F39F57550B87FF0E94F4070024FC
S1130EF0A0E640EA900180585695979528F4805CC6
S1130F00660F771F881F20F026173707480730F42D
S1130F10621B730B840B202931294A2BA695179445
S1130F200794202531254A2758F7660F771F881F15
S1130F3020F026173707480730F4620B730B840B35
S1130F40200D311D411DA09581F7B901842F9158C1
S1130F50880F96958795089529F416F00C945806F1
S1130F600C94A2060C945E060E948806A8F3963898
S1130F70A0F707F80F92E8942BE33AEA48EB5FE70F
S1130F800E94BF060F920F920F924DB75EB70F9259
S1130F900E94B408E8E6F0E00E94FB074F915F91DD
S1130FA0EF91FF91E595EE1FFF1F49F0FE57E068B2
S1130FB04427EE0F441FFA95E1F74195550B0E9423
S1130FC02E080F9007FE0C94220808959F3F31F0DD
S1130FD0915020F4879577956795B795880F911D63
S1130FE09695879597F9089591505040660F771F0D
S1130FF0881FD2F70895DF93CF931F930F93FF9227
S1131000EF92DF927B018C01689406C0DA2EEF0127
S11310100E94BC06FE01E894A59125913591459165
S11310205591A6F3EF010E941E05FE019701A80148
S1131030DA9469F7DF90EF90FF900F911F91CF91B1
S1131040DF9108959B01AC0160E070E080E89FE3CC
S11310500C9473050C9458060C94E6070E948806B9
S1131060D8F39923C9F3940F511DA3F39150504021
S113107094F059F0882332F0660F771F881F91503F
S11310805040C1F79E3F51052CF7880F911D96954E
S1131090879597F908955F3FACF0983E9CF0BB2785
S11310A0869577956795B79508F4B1609395C1F7E0
S11310B0BB0F58F711F460FFE8CF6F5F7F4F8F4F7E
S11310C09F4FE3CF0C94A30616F00C94E6070C9400
S11310D05E0668940C9458060E948806A8F3992327
S11310E0C1F3AEF3DF93CF931F930F93FF92C92FF6
S11310F0DD2788232AF02197660F771F881FDAF7E8
S113110020E030E040E85FEB9FE3883920F0803E48
S113111038F021968F770E940705E0E9F0E004C0DB
S11311200E940705EDEBF0E00E94FB078B01BE0176
S1131130EC01FB2E6F5771097595771F880B990B7E
S11311400E941D0628E132E741E35FE30E94BC06EA
S1131150AF2D9801AE01FF900F911F91CF91DF91B8
S11311600E941E050C946F06FA01DC01AA0FBB1F36
S11311709B01AC01BF5728F422273327442750781A
S113118020C0B75190F4AB2F00244695379527958E
S1131190011CA395D2F3002071F0220F331F441FCA
S11311A0B395DAF30ED00C94060561307105A0E80E
S11311B08A07B94630F49B01AC0166277727882754
S11311C09078309621F020833183428353830895AD
S11311D097FB072E16F4009407D077FD09D00E94E0
S11311E0FC0807FC05D03EF4909581959F4F089527
S11311F0709561957F4F0895AA1BBB1B51E107C0F1
S1131200AA1FBB1FA617B70710F0A61BB70B881F92
S1131210991F5A95A9F780959095BC01CD01089521
S1131220BB274A3031F4992322F4BDE2909581958D
S11312309F4F0C941C09BB27FB015527AA27880F35
S1131240991FAA1FA41710F0A41B83955051B9F736
S1131250A05DAA3308F0A95DA193009779F7B111B5
S1131260B1931192CB010C944E0BAEE0B0E0EBE3E2
S1131270F9E00C94060C0D891E8986E08C831A8390
S113128009838FEF9FE79E838D83AE01475E5F4F97
S11312906F89788DCE0101960E945709EF81F885F8
S11312A0E00FF11F10822E96E4E00C94220CABE0C8
S11312B0B0E0EDE5F9E00C94F80B6C017B018A01D8
S11312C0FC0117821682838181FFCCC1CE01019675
S11312D03C01F6019381F70193FD859193FF819180
S11312E07F01882309F4BAC1853239F493FD8591CD
S11312F093FF81917F01853229F4B60190E00E9429
S11313005E0BE7CF912C212C312CFFE1F315D8F0A3
S11313108B3279F038F4803279F08332A1F4232DC2
S113132020611DC08D3261F0803369F4232D21606A
S113133016C0832D8260382EE32DE4603E2E2AC031
S1131340F32DF8601DC037FC2DC020ED280F2A3086
S113135040F08E32B9F436FC81C1232D2064322E44
S113136019C036FE06C08AE0989E200D1124922EE4
S113137011C0EAE02E9E200D1124222EF32DF062DE
S11313803F2E08C08C3621F4832D8068382E02C08D
S1131390883641F4F70193FD859193FF81917F0194
S11313A08111B3CF982F9F7D9554933028F40C5F0F
S11313B01F4F9FE399830DC0833631F0833771F05B
S11313C0833509F059C021C0F801808189830E5FFB
S11313D01F4F88248394912C530113C02801F2E0F9
S11313E04F0E511CF801A080B18036FE03C0692D58
S11313F070E002C06FEF7FEFC5010E94430B4C0108
S11314008201F32DFF773F2E16C0280122E0420E01
S1131410511CF801A080B18036FE03C0692D70E034
S113142002C06FEF7FEFC5010E94380B4C01F32D12
S1131430F0683F2E820133FC1BC0822D90E0881699
S11314409906B0F4B60180E290E00E945E0B2A9403
S1131450F4CFF50137FC859137FE81915F01B60128
S113146090E00E945E0B21102A9421E0821A9108D8
S11314708114910471F7E8C0843611F0893641F57E
S1131480F80137FE07C060817181828193810C5F0E
S11314901F4F08C060817181072E000C880B990BC7
S11314A00E5F1F4FF32DFF763F2E97FF09C09095D7
S11314B08095709561957F4F8F4F9F4FF0683F2EB9
S11314C02AE030E0A3010E949A0B882E861845C0BA
S11314D0853731F4232D2F7EB22E2AE030E025C04B
S11314E0932D997FB92E8F36C1F018F4883579F091
S11314F0B5C0803719F0883721F0B0C0E92FE0611A
S1131500BE2EB4FE0DC0FB2DF460BF2E09C034FE08
S11315100AC0292F2660B22E06C028E030E005C09C
S113152020E130E002C020E132E0F801B7FE07C05C
S113153060817181828193810C5F1F4F06C060813D
S1131540718180E090E00E5F1F4FA3010E949A0B0F
S1131550882E8618FB2DFF773F2E36FE0DC0232DD7
S11315602E7FA22E891458F434FE0BC032FC09C01D
S1131570832D8E7EA82E05C0B82CA32C03C0B82CB6
S113158001C0B92CA4FE0FC0FE01E80DF11D80813D
S1131590803321F49A2D997EA92E09C0A2FE06C09B
S11315A0B394B39404C08A2D867809F0B394A3FC51
S11315B011C0A0FE06C0B21488F4280C922C9B180B
S11315C00EC0B21460F4B60180E290E00E945E0B9B
S11315D0B394F7CFB21418F42B1802C0982C212C12
S11315E0A4FE10C0B60180E390E00E945E0BA2FE50
S11315F017C0A1FC03C088E790E002C088E590E032
S1131600B6010CC08A2D867859F0A1FE02C08BE287
S113161001C080E2A7FC8DE2B60190E00E945E0B5F
S1131620891438F4B60180E390E00E945E0B9A942A
S1131630F7CF8A94F301E80DF11D8081B60190E0A3
S11316400E945E0B8110F5CF222009F442CEB60130
S113165080E290E00E945E0B2A94F6CFF601868128
S1131660978102C08FEF9FEF2B96E2E10C94140C4C
S1131670FC010590615070400110D8F78095909559
S11316808E0F9F1F0895FC0161507040019001105E
S1131690D8F7809590958E0F9F1F0895DC01FC016B
S11316A0672F71917723E1F7329704C07C916D9392
S11316B070836291AE17BF07C8F308950F931F9309
S11316C0CF93DF93FB01238121FD03C08FEF9FEFB5
S11316D02CC022FF16C046815781248135814217D0
S11316E0530744F4A081B1819D012F5F3F4F3183A3
S11316F020838C93268137812F5F3F4F3783268346
S113170014C08B01EC01FB010084F185E02D0995E7
S1131710892BE1F6D80116968D919C911797019625
S113172017969C938E931697CE01DF91CF911F91BC
S11317300F910895FA01AA27283051F1203181F13F
S1131740E8946F936E7F6E5F7F4F8F4F9F4FAF4FC5
S1131750B1E03ED0B4E03CD0670F781F891F9A1FD8
S1131760A11D680F791F8A1F911DA11D6A0F711D8C
S1131770811D911DA11D20D009F468943F912AE098
S1131780269F11243019305D3193DEF6CF01089580
S1131790462F4770405D4193B3E00FD0C9F7F6CFB1
S11317A0462F4F70405D4A3318F0495D31FD405279
S11317B0419302D0A9F7EACFB4E0A695979587950F
S11317C077956795BA95C9F70097610571050895EE
S11317D09B01AC010A2E069457954795379527959A
S11317E0BA95C9F7620F731F841F951FA01D089532
S11317F02F923F924F925F926F927F928F929F921D
S1131800AF92BF92CF92DF92EF92FF920F931F930A
S1131810CF93DF93CDB7DEB7CA1BDB0B0FB6F894BB
S1131820DEBF0FBECDBF09942A88398848885F84FB
S11318306E847D848C849B84AA84B984C884DF806C
S1131840EE80FD800C811B81AA81B981CE0FD11D50
S11318500FB6F894DEBF0FBECDBFED010895F89426
S1051860FFCFB4
S11318624D6F746F722025642C20616E676C652045
S11318723D202025640A0023232323232323232317
S1131882232323232323232323232300766D617815
S11318922000236E20007430200074312000537421
S10D18A265702074696D6520000074
S9030000FC
