S0100000526F626F7441726D2E73726563EE
S11300000C9434000C9451000C9451000C94510045
S11300100C9451000C9451000C9451000C94510018
S11300200C9451000C9451000C9451000C944A050A
S11300300C9451000C9451000C9451000C945100F8
S11300400C9451000C9451000C945D000C945100DC
S11300500C9453000C9451000C9451000C945100D6
S11300600C9451000C94510011241FBECFEFD8E022
S1130070DEBFCDBF11E0A0E0B1E0ECE5F1E102C0EC
S113008005900D92A037B107D9F721E0A0E7B1E0C0
S113009001C01D92AA38B207E1F70E94B5000C9482
S11300A0AC080C9400001F920F920FB60F9211240B
S11300B00F900FBE0F901F9018951F920F920FB6BE
S11300C00F9211242F933F938F939F93EF93FF935A
S11300D010928401109283019091C6008091850151
S11300E0813061F028F08230A9F0833089F132C088
S11300F09D3481F581E0809385012CC080ED890FCA
S11301008093720182E080938501109271011092B4
S1130110700120C02091700130917101F901EE0F3E
S1130120FF1FEE58FE4F892F90E092838183C9010F
S113013001969093710180937001089759F410927D
S1130140850181E090E0909384018093830102C053
S113015010928501FF91EF919F918F913F912F9183
S11301600F900FBE0F901F901895CF93DF93CDB7CC
S1130170DEB7CA56D1090FB6F894DEBF0FBECDBFA5
S113018078940E941E0580E895E20E946F055598B8
S113019052988AB1886C8AB9E0EBF0E0808183627E
S11301A08083E1EBF0E080818160808384B18F60A3
S11301B084B9EE24E39402E02CE93FED40E35DE3EF
S11301C060E070E0CE0101960E9480026894EE2403
S11301D0E2F808E022E338EA43E85EE360E070E036
S11301E0CE0183960E94800200E820E44BE250E0B6
S11301F064EB70E0CE018B5B9F4F0E94C20160965E
S11302001FAE1EAE609720E030E040E050E06AE0B0
S113021070E0CE018B5B9F4F0E94D70102E711E093
S11302200F2EF4E6FF2EF02DEE24E394D801519620
S11302308D919C915297019709F07EC052961C9221
S11302401E92519711968D919C911297C097AC0173
S1130250440F551F880F991F880F991F880F991FE6
S1130260840F951F13964D915C9114974053510937
S1130270480F591F15968D919C911697C0979C0114
S1130280220F331F880F991F880F991F880F991FFA
S1130290820F931F17966D917C9118976053710983
S11302A0680F791F1B968D919C911C97C097F89E9F
S11302B0F001F99EF00D11241D962D913C911E978D
S11302C0C901C097DC01AA0FBB1F9C01220F331F79
S11302D0220F331F220F331FCD01820F931F8E0F66
S11302E09F1FF8012785308920533109820F931FFE
S11302F0218532852D32310519F491958195910925
S1130300D8012C91213049F018F0223071F014C03A
S113031060969FAF8EAF60970FC09D838C835F877D
S11303204E877D876C87E98207C09FA38EA359AB54
S113033048AB7FA76EA7EBA20E944105AB01BC01AD
S1130340CE0101960E9483030E944105AB01BC01CA
S1130350CE0183960E9483030E944105AB01BC0138
S1130360CE018B5B9F4F0E94180289B149B169B1DC
S113037040726470CE018B5B9F4F0E9466020E94A4
S1130380410554CF0F93FC0113A212861186118AE2
S1130390128A138A148A178A108E118E128E24A33D
S11303A005A350A3478F72A361A30F910895CF9320
S11303B0DF93FC01EA0171836083538342833583B5
S11303C024836F5F7F4F24E630E0C9010E944F0809
S11303D06087BE016F5F7F4FC9010E944F0877831A
S11303E06683DF91CF910895FC0121853285838551
S11303F09485281B390B368B258B408550E042179A
S1130400530784F0519541955109241735076CF031
S113041040815181249FC001259F900D349F900DF0
S11304201124089584E690E008958CE99FEF0895DF
S1130430CF92DF92EF92FF920F931F93CF93DF93AC
S1130440FC01038D148D258D368D6A017B01C01A44
S1130450D10AE20AF30A970186010B30110521053E
S1130460310558F1EC01438F548F658F768F0E94CC
S1130470F4011816190674F4EF8DF8A130812CA13B
S1130480232B2083EF8DF8A130812DA120952323E8
S1130490208310C0EF8DF8A130812CA12095232357
S11304A02083EF8DF8A130812DA1232B20839195FA
S11304B081959109E9A1FAA18083DF91CF911F91E0
S11304C00F91FF90EF90DF90CF900895FC0183A1EE
S11304D0811112C0662399F0442331F083859485F9
S11304E001969487838705C08385948501979487B3
S11304F0838781E083A30895611101C013A2089545
S1130500EF920F93CF93DF93EC0119A27A8369835F
S113051060E070E080E89FE30E9451066D8F7E8F5B
S11305208F8F98A30B8FEC8E1F8A188E198E1A8EBC
S1130530188A1F86DF91CF910F91EF9008958F92C3
S11305409F92AF92BF92CF92DF92EF92FF920F935E
S11305501F93CF93DF93EC0195B18C8D892B85B9D3
S11305600F8518898F89988DA98DBA8D6A017B01B1
S1130570C81AD90AEA0AFB0AC801012E000CAA0B00
S1130580BB0B8C159D05AE05BF0508F0AEC04F8BA7
S1130590588F698F7A8F89A1833009F45DC08430C4
S11305A009F473C0823009F096C0B801012E000C22
S11305B0880B990B0E94FB066B017C01B801660F46
S11305C0771F072E000C880B990B0E94FB064B012A
S11305D05C0169897A89072E000C880B990B0E94AB
S11305E0FB0620E030E040E850E40E94870720E06A
S11305F030E040E85FE30E94E5059B01AC01C501E2
S1130600B4010E9451069B01AC01C701B6010E94CE
S1130610E4050E94C3066B3071051CF0788B6F876C
S113062004C08AE090E0988B8F872B893C898F8166
S113063098852817390750F080E091E00E94CB0597
S11306408F8598890E94DA0583E089A389899A892C
S113065001969A8B898B3FC02B893C8989859A8521
S113066028173907C0F184E089A389899A8991956B
S1130670819591099A8B898B89E091E00E94CB0541
S11306808F8598890E94DA0526C0C801880F991FB2
S113069069897A89660F771F660F771F6F5F7F4FAF
S11306A00E946308061B170B188B0F872B893C8944
S11306B08D819E812817390748F0188285E191E0E1
S11306C00E94CB058F8598890E94DA0589899A89C9
S11306D001969A8B898B95B18C8D8095892385B9E8
S11306E08B899C8901969C8B8B8B89A1DF91CF91FF
S11306F01F910F91FF90EF90DF90CF90BF90AF903C
S11307009F908F9008952F923F924F925F926F9295
S11307107F928F929F92AF92BF92CF92DF92EF928D
S1130720FF920F931F93CF93DF93CDB7DEB72C9730
S11307300FB6F894DEBF0FBECDBF9C878B87DC015C
S11307408C91813009F05BC182E091968C939197F2
S113075013968D919C91149711962D913C9112971B
S11307608C01021B130B12969C938E9311971016F7
S1130770110634F495B15B968C91892B85B914C01C
S113078011235CF495B1EB85FC85838D80958923D9
S113079085B911950195110907C00115110521F4B9
S11307A0AB85BC8591961C92AB85BC855D968D917D
S11307B09D910D90BC91A02D8D839E83AF83B887AE
S11307C0B801012E000C880B990B0E94FB062D81A9
S11307D03E814F8158850E9487070E94CA062B01DB
S11307E03C01EB85FC85768365832384348485858D
S11307F09685289EB001299E700D389E700D112497
S113080080E090E00E94F9066B017C01029DC0012A
S1130810039D900D129D900D11249A878987A7013D
S11308209601C701B6010E94870769837A838B8387
S11308309C8389849A84880C991C880C991CA12C0B
S1130840B12CC501B4010E94F9069B01AC01698178
S11308507A818B819C810E94E4050E94FA079B01A6
S1130860AC01C701B6010E94E40520E030E040E09D
S11308705FE30E9487070E94CA066B017C0180E047
S113088090E00E94F9064B015C01B20180E090E027
S11308900E94F90669837A838B839C83A501940162
S11308A0C501B4010E9487079B01AC0169817A816B
S11308B08B819C810E9487074B015C0169857A8545
S11308C0660F771F80E090E00E94F9069B01AC015F
S11308D0C501B4010E9451060E94CA06AB85BC85BD
S11308E018967C936E931797C201861B970B1A96E2
S11308F09C938E9319974101A12CB12CC501B4018D
S11309000E94F9062D813E814F8158850E948707F8
S11309109B01AC0160E070E080E090E40E9451062D
S11309200E94FA0720E030E44CE156E40E94870775
S11309300E94C306EB85FC85708B6787148A138A33
S113094081E090E0928B818B82E080838EE191E064
S11309500E94DF0583E391E00E94CB05C8010E9459
S1130960DA058AE391E00E94CB05AB85BC851D9630
S11309708D919C911E970E94DA0584E491E00E9477
S1130980CB05EB85FC85838594850E94DA0582E599
S113099091E00E94CB05C6010E94DA0588E591E04A
S11309A00E94CB05AB85BC8515968D919C911697BD
S11309B00E94DA058CE591E00E94CB05EB85FC856D
S11309C0878190850E94DA0580E691E00E94CB053C
S11309D0AB85BC8519968D919C911A970E94DA0576
S11309E084E691E00E94CB05EB85FC8587859089A0
S11309F00E94DA058EE191E00E94DF0506C0823094
S1130A0021F48B859C850E949F022C960FB6F89446
S1130A10DEBF0FBECDBFDF91CF911F910F91FF902D
S1130A20EF90DF90CF90BF90AF909F908F907F908A
S1130A306F905F904F903F902F9008951092800098
S1130A40E1E8F0E01082109285001092840088E1C1
S1130A5090E09093890080938800808188608083EF
S1130A60808183608083EFE6F0E080818260808310
S1130A7010928601109287011092880110928901C8
S1130A800895609186017091870180918801909109
S1130A90890108951F920F920FB60F9211248F931C
S1130AA09F93AF93BF938091860190918701A0910A
S1130AB08801B09189010196A11DB11D8093860121
S1130AC090938701A0938801B0938901BF91AF915E
S1130AD09F918F910F900FBE0F901F90189528E94A
S1130AE02093C10026E02093C200BC0180E090E086
S1130AF00E94F90620E030E040E851E40E948707B4
S1130B009B01AC0160E074E284E79BE40E9451061F
S1130B1020E030E040E85FE30E94E4050E94CA065A
S1130B207093C5006093C4000895E0ECF0E09081F8
S1130B3095FFFDCF8093C60008958AE00E94950535
S1130B4008950F931F93CF93DF93CDB7DEB72A9702
S1130B500FB6F894DEBF0FBECDBF4AE0BE016F5F93
S1130B607F4F0E9477088981882351F08E010E5FA0
S1130B701F4F0E949505F80181918F018111F9CFD2
S1130B802A960FB6F894DEBF0FBECDBFDF91CF918A
S1130B901F910F910895CF93DF93EC0188818823EF
S1130BA031F021960E94950589918111FBCFDF9147
S1130BB0CF9108950E94A1050E949D0508950E9469
S1130BC0CB050E949D0508955058BB27AA270E9473
S1130BD0FC050C944D070E943F0738F00E9446071D
S1130BE020F039F49F3F19F426F40C943C070EF4DA
S1130BF0E095E7FB0C943607E92F0E945E0758F353
S1130C00BA17620773078407950720F079F4A6F5ED
S1130C100C9480070EF4E0950B2EBA2FA02D0B0137
S1130C20B90190010C01CA01A0011124FF27591B2D
S1130C3099F0593F50F4503E68F11A16F040A22F33
S1130C40232F342F4427585FF3CF469537952795A4
S1130C50A795F0405395C9F77EF41F16BA0B620BA3
S1130C60730B840BBAF09150A1F0FF0FBB1F661FEA
S1130C70771F881FC2F70EC0BA0F621F731F841F2D
S1130C8048F4879577956795B795F7959E3F08F053
S1130C90B0CF9395880F08F09927EE0F9795879515
S1130CA008950E9465060C944D070E94460758F06B
S1130CB00E943F0740F029F45F3F29F00C94360767
S1130CC051110C9481070C943C070E945E0768F351
S1130CD09923B1F3552391F3951B550BBB27AA27F1
S1130CE062177307840738F09F5F5F4F220F331F2B
S1130CF0441FAA1FA9F335D00E2E3AF0E0E832D0F3
S1130D0091505040E695001CCAF72BD0FE2F29D0F5
S1130D10660F771F881FBB1F261737074807AB07C7
S1130D20B0E809F0BB0B802DBF01FF2793585F4F3C
S1130D303AF09E3F510578F00C9436070C948107E5
S1130D405F3FE4F3983ED4F3869577956795B7951E
S1130D50F7959F5FC9F7880F911D9695879597F929
S1130D600895E1E0660F771F881FBB1F62177307A2
S1130D708407BA0720F0621B730B840BBA0BEE1FB7
S1130D8088F7E09508950E94CA066894B1110C94FE
S1130D90810708950E94660788F09F5798F0B92F3D
S1130DA09927B751B0F0E1F0660F771F881F991F9C
S1130DB01AF0BA95C9F714C0B13091F00E948007B7
S1130DC0B1E008950C948007672F782F8827B85FC7
S1130DD039F0B93FCCF3869577956795B395D9F7F4
S1130DE03EF490958095709561957F4F8F4F9F4FFE
S1130DF00895E89409C097FB3EF49095809570950A
S1130E0061957F4F8F4F9F4F9923A9F0F92F96E952
S1130E10BB279395F695879577956795B795F111C7
S1130E20F8CFFAF4BB0F11F460FF1BC06F5F7F4F64
S1130E308F4F9F4F16C0882311F096E911C0772376
S1130E4021F09EE8872F762F05C0662371F096E87F
S1130E50862F70E060E02AF09A95660F771F881F4E
S1130E60DAF7880F9695879597F9089597F99F670C
S1130E7080E870E060E008959FEF80EC089500241E
S1130E800A941616170618060906089500240A94EB
S1130E9012161306140605060895092E0394000C71
S1130EA011F4882352F0BB0F40F4BF2B11F460FF00
S1130EB004C06F5F7F4F8F4F9F4F089557FD905829
S1130EC0440F551F59F05F3F71F04795880F97FB0A
S1130ED0991F61F09F3F79F08795089512161306C4
S1130EE01406551FF2CF4695F1DF08C016161706F3
S1130EF01806991FF1CF8695710561050894089528
S1130F00E894BB2766277727CB0197F908950E94B9
S1130F109A070C944D070E943F0738F00E94460739
S1130F2020F0952311F00C9436070C943C071124FF
S1130F300C9481070E945E0770F3959FC1F3950F8F
S1130F4050E0551F629FF001729FBB27F00DB11D49
S1130F50639FAA27F00DB11DAA1F649F6627B00DD9
S1130F60A11D661F829F2227B00DA11D621F739FC2
S1130F70B00DA11D621F839FA00D611D221F749FD0
S1130F803327A00D611D231F849F600D211D822F17
S1130F90762F6A2F11249F5750409AF0F1F088233E
S1130FA04AF0EE0FFF1FBB1F661F771F881F91506B
S1130FB05040A9F79E3F510580F00C9436070C94DD
S1130FC081075F3FE4F3983ED4F386957795679560
S1130FD0B795F795E7959F5FC1F7FE2B880F911D95
S1130FE09695879597F9089519F416F40C943C078F
S1130FF00C943A080E946607B8F39923C9F3B6F330
S11310009F57550B87FF0E9448080024A0E640EA3A
S1131010900180585695979528F4805C660F771F49
S1131020881F20F026173707480730F4621B730B1C
S1131030840B202931294A2BA6951794079420253F
S113104031254A2758F7660F771F881F20F0261787
S11310503707480730F4620B730B840B200D311DE6
S1131060411DA09581F7B901842F9158880F969559
S1131070879508959F3F31F0915020F48795779597
S11310806795B795880F911D9695879597F908955B
S113109091505040660F771F881FD2F70895AA1BFE
S11310A0BB1B51E107C0AA1FBB1FA617B70710F04F
S11310B0A61BB70B881F991F5A95A9F78095909581
S11310C0BC01CD01089597FB072E16F4009407D0B8
S11310D077FD09D00E944F0807FC05D03EF4909597
S11310E081959F4F0895709561957F4F0895BB2713
S11310F04A3031F4992322F4BDE2909581959F4FB3
S11311000C948308BB27FB015527AA27880F991F36
S1131110AA1FA41710F0A41B83955051B9F7A05D22
S1131120AA3308F0A95DA193009779F7B111B1939F
S11311301192CB010C949C08DC01FC01672F719186
S11311407723E1F7329704C07C916D9370836291A9
S10F1150AE17BF07C8F30895F894FFCF52
S113115C535F414343454C2000535F434F4E53541C
S113116C414E542000535F444543454C20002323F7
S113117C232323232323232323232323232323232F
S113118C232300416E676C65200064757261746979
S113119C6F6E2000416363656C65726174696F6E78
S11311AC2000766D61782000236E200074302000BE
S11311BC74312000537465702074696D65200000CF
S9030000FC
