:100000000C9475000C9492000C9492000C94920045
:100010000C9492000C9492000C9492000C94920018
:100020000C9492000C9492000C9492000C94D104C5
:100030000C9492000C9492000C9492000C949200F8
:100040000C9492000C9492000C949E000C949200DC
:100050000C9494000C9492000C9492000C949200D6
:100060000C9492000C94920007634236B79BD8A779
:100070001A39685618AEBAAB558C1D3CB7CC5763CD
:10008000BD6DEDFD753EF6177231BF000000803F7B
:1000900008000000BE922449123EABAAAA2ABECD97
:1000A000CCCC4C3E00000080BEABAAAAAA3E000009
:1000B0000000BF000000803F000000000008417801
:1000C000D3BB4387D1133D190E3CC3BD4282AD2B38
:1000D0003E68EC8276BED98FE1A93E4C80EFFFBE30
:1000E00001C4FF7F3F000000000011241FBECFEFBE
:1000F000D8E0DEBFCDBF11E0A0E0B1E0EEE2F9E173
:1001000002C005900D92A638B107D9F721E0A6E804
:10011000B1E001C01D92A739B207E1F70E948D013D
:100120000C94950C0C9400001F920F920FB60F9236
:1001300011240F900FBE0F901F9018951F920F92D1
:100140000FB60F921124CF92DF92EF92FF921F937E
:100150002F933F934F935F936F937F938F939F93CF
:10016000AF93BF93CF93DF93EF93FF9310929101DF
:100170001091C600809192018130A9F028F0823060
:10018000D1F08330B1F18BC01D3409F088C081E01B
:100190008093920110928A0110928B0110928C012F
:1001A00010928D017CC060ED610F60938E0182E042
:1001B0008093920174C083E0809392011D3239F4E0
:1001C0008FEF9FEF90938901809388010BC01B32C2
:1001D00039F481E090E0909389018093880102C016
:1001E0001092920183E090E09093870180938601C2
:1001F00056C0C0918601D09187012197D093870185
:10020000C0938601BE010D2E000C880B990B0E9435
:1002100082069B01AC0160E070E080E291E40E9404
:1002200080076B017C01612F70E060537109072E1C
:10023000000C880B990B0E948206A70196010E9470
:10024000130720918A0130918B0140918C015091CC
:100250008D010E946C056B017C0160938A01709393
:100260008B0180938C0190938D01CD2BC1F4CEE84E
:10027000D1E06091880170918901072E000C880BF4
:10028000990B0E948206A70196010E9413070E9403
:100290004A067A8369831092920181E08B83FF91F1
:1002A000EF91DF91CF91BF91AF919F918F917F910E
:1002B0006F915F914F913F912F911F91FF90EF9020
:1002C000DF90CF900F900FBE0F901F901895EF9278
:1002D000FF920F93CF937A01C22F0E944A06AB017F
:1002E0001616170644F42BB1C22BCBB92BB10095CF
:1002F00002230BB90BC02BB1C095C223CBB92BB1D4
:10030000022B0BB944275527461B570BF701408397
:10031000CF910F91FF90EF900895CF93DF93CDB7DA
:10032000DEB7CF57D1090FB6F894DEBF0FBECDBFF1
:1003300078940E94A50480E895E20E94F6045598FE
:1003400052988AB1886C8AB9E0EBF0E080818362D0
:100350008083E1EBF0E080818160808384B18F60F5
:1003600084B9EE24E39402E02DEC3CEC4CE45DE334
:1003700060E070E0CE0101960E940F0210E00F2EA7
:10038000FEE8EF2EF1E0FF2EF02D0F2EF0E0AF2E65
:10039000F1E0BF2EF02D6E018EE4C80ED11C992421
:1003A0009394812CF70183818130E1F482818F93D2
:1003B00081818F9380811F928F93BF92AF92DF9242
:1003C000CF920E949B09F70113820FB6F894DEBF0B
:1003D0000FBECDBF8081813029F4818192819C83C1
:1003E0008B839B8600E820E444EB50E060E070E003
:1003F000CB010E9467010E94C804AB01BC01CE0181
:1004000001960E94720389B1111105C04A9BCACF9F
:1004100089B1192DC7CF4A99C5CF182DC3CFCF9217
:10042000DF92EF920F93CF93DF93EC01FC01E45B3B
:10043000FF4F1082798368836C0188E4C80ED11C59
:1004400060E070E080E89FE30E94D805F6016083D9
:10045000718382839383329700833196E08235974C
:1004600010821182128213821F8A188E198E1A8EA0
:10047000DF91CF910F91EF90DF90CF9008958F9201
:100480009F92AF92BF92CF92DF92EF92FF92CF9363
:10049000DF93EC016A017B0195B1FE01E95BFF4F3F
:1004A0008081892B85B98F88988CA98CBA8C3597D7
:1004B00080819181A281B3819A01AB01281B390B04
:1004C0004A0B5B0BCA01B9010E948006A501940189
:1004D0000E940E0718160CF0F7C0FE01EE5BFF4FEE
:1004E000C082D182E282F3823A968081833009F41D
:1004F0006AC0843009F493C0823009F0D8C0C501C5
:10050000B4010E944A066B017C01072E000C880B87
:10051000990B0E9482064B015C01B601660F771FA2
:10052000072E000C880B990B0E9482066B017C0140
:100530006D8D7E8D072E000C880B990B0E94820614
:1005400020E030E040E850E40E94130720E030E073
:1005500040E85FE30E946C059B01AC01C701B60156
:100560000E94D8059B01AC01C501B4010E946B0536
:100570006F8B788F898F9A8F2B8D3C8D8E819F8189
:1005800028173907D1F487E191E00E9452058B8D3D
:100590009C8D0E94610586E291E00E9452056F8960
:1005A000788D898D9A8D0E944A06CB010E94610543
:1005B00083E0FE01E45BFF4F80838D8D9E8D01966D
:1005C0009E8F8D8F74C02B8D3C8D888599852817C3
:1005D000390709F06CC082E391E00E9452058B8DCF
:1005E0009C8D0E94610586E291E00E9452056F8910
:1005F000788D898D9A8D0E944A06CB010E946105F3
:1006000084E0FE01E45BFF4F80838D8D9E8D91958C
:10061000819591099E8F8D8F0E94610548C0A5012B
:100620009401C501B4010E946C056B017C016D8DC4
:100630007E8D660F771F660F771F6F5F7F4F072EC8
:10064000000C880B990B0E9482069B01AC01C7012C
:10065000B6010E94D8059B01AC01C501B4010E94FE
:100660006B056F8B788F898F9A8F2B8D3C8D8C814A
:100670009D8128173907B1F484E491E00E94520566
:100680008B8D9C8D0E94610586E291E00E9452054F
:100690006F89788D898D9A8D0E944A06CB010E94C0
:1006A00061051A868D8D9E8D01969E8F8D8F95B1D9
:1006B000FE01E95BFF4F80818095892385B98B8D91
:1006C0009C8D01969C8F8B8FC45BDF4F8881DF915F
:1006D000CF91FF90EF90DF90CF90BF90AF909F9021
:1006E0008F9008954F925F926F927F928F929F9218
:1006F000AF92BF92CF92DF92EF92FF920F931F9330
:10070000CF93DF93EC018A85813009F008C182E044
:10071000FE01E45BFF4F80838A819B8128813981C0
:10072000821B930B9A8B898B1816190634F495B19A
:1007300036978081892B85B918C0992384F495B1A7
:10074000FE01EA5BFF4F80818095892385B9898905
:100750009A899195819591099A8B898B06C0892BED
:1007600021F4FE01E45BFF4F10828AE090E09E8757
:100770008D8709891A89FE01E85BFF4F808091808F
:10078000A280B380B801012E000C880B990B0E9447
:100790008206A50194010E9413070E9451066B0175
:1007A0007C017D836C8383E090E0988B8F87B80118
:1007B000660F771F000F111F000F111F000F111F71
:1007C000060F171F2801440C551C440C551C612CA6
:1007D000712CC301B2010E9480069B01AC0160E054
:1007E00070E081E694E40E946B050E94D6079B01AD
:1007F000AC0160E070E080EF91E40E946B0520E0C6
:1008000030E040E05FE30E9413070E9451067C87BE
:100810006B8780E090E00E9480069B01AC010E9403
:1008200013072B013C01B60180E090E00E94800696
:100830009B01AC01C301B2010E9413072B013C01D3
:10084000B801660F771F80E090E00E9480069B0150
:10085000AC01C301B2010E94D8050E9451067F83FA
:100860006E83C61AD70AD986C88620E030E040E2F7
:1008700051E4C501B4010E9413079B01AC0160E083
:1008800070E080E090E40E94D8050E94D60720E046
:1008900030E44CE156E40E9413076F8B788F898F08
:1008A0009A8F1C8E1B8E81E090E09E8F8D8F82E050
:1008B0008A8783E591E00E94660588E691E00E94C0
:1008C00052058B859C850E9461058EE691E00E9411
:1008D00052058C819D810E94610582E791E00E9412
:1008E00052058E819F810E94610586E791E00E94FA
:1008F0005205888599850E9461058AE791E00E94EA
:1009000052056F89788D898D9A8D0E944A06CB0198
:100910000E94610583E591E00E94660505C0823072
:1009200019F4CE010E943F02DF91CF911F910F91E8
:10093000FF90EF90DF90CF90BF90AF909F908F90FF
:100940007F906F905F904F90089510928000E1E843
:10095000F0E01082109285001092840088E190E00F
:100960009093890080938800808188608083808153
:1009700083608083EFE6F0E0808182608083109264
:10098000930110929401109295011092960108958E
:1009900060919301709194018091950190919601DD
:1009A00008951F920F920FB60F9211248F939F9369
:1009B000AF93BF938091930190919401A091950181
:1009C000B09196010196A11DB11D80939301909362
:1009D0009401A0939501B0939601BF91AF919F911F
:1009E0008F910F900FBE0F901F90189528E92093BC
:1009F000C10026E02093C200BC0180E090E00E948C
:100A0000800620E030E040E851E40E9413079B019B
:100A1000AC0160E074E284E79BE40E94D80520E02A
:100A200030E040E85FE30E946B050E94510670933E
:100A3000C5006093C4000895E0ECF0E0908195FF5C
:100A4000FDCF8093C60008958AE00E941C0508959A
:100A50000F931F93CF93DF93CDB7DEB72A970FB6CF
:100A6000F894DEBF0FBECDBF4AE0BE016F5F7F4F7F
:100A70000E9476098981882351F08E010E5F1F4FF5
:100A80000E941C05F80181918F018111F9CF2A96EE
:100A90000FB6F894DEBF0FBECDBFDF91CF911F918F
:100AA0000F910895CF93DF93EC018881882331F073
:100AB00021960E941C0589918111FBCFDF91CF9176
:100AC00008950E9428050E94240508950E94520559
:100AD0000E94240508955058BB27AA270E94830529
:100AE0000C94D4060E94C60638F00E94CD0620F071
:100AF00039F49F3F19F426F40C94C3060EF4E095E4
:100B0000E7FB0C94BD06E92F0E94E50658F3BA17DF
:100B1000620773078407950720F079F4A6F50C9413
:100B200007070EF4E0950B2EBA2FA02D0B01B9018B
:100B300090010C01CA01A0011124FF27591B99F053
:100B4000593F50F4503E68F11A16F040A22F232F5F
:100B5000342F4427585FF3CF469537952795A795AF
:100B6000F0405395C9F77EF41F16BA0B620B730B56
:100B7000840BBAF09150A1F0FF0FBB1F661F771FC7
:100B8000881FC2F70EC0BA0F621F731F841F48F47C
:100B9000879577956795B795F7959E3F08F0B0CF05
:100BA0009395880F08F09927EE0F979587950895EC
:100BB0000E94EC050C94D4060E94CD0658F00E94C9
:100BC000C60640F029F45F3F29F00C94BD06511190
:100BD0000C9408070C94C3060E94E50668F3992359
:100BE000B1F3552391F3951B550BBB27AA27621729
:100BF0007307840738F09F5F5F4F220F331F441F36
:100C0000AA1FA9F335D00E2E3AF0E0E832D0915069
:100C10005040E695001CCAF72BD0FE2F29D0660F56
:100C2000771F881FBB1F261737074807AB07B0E899
:100C300009F0BB0B802DBF01FF2793585F4F3AF09F
:100C40009E3F510578F00C94BD060C9408075F3F59
:100C5000E4F3983ED4F3869577956795B795F79525
:100C60009F5FC9F7880F911D9695879597F908950D
:100C7000E1E0660F771F881FBB1F621773078407A9
:100C8000BA0720F0621B730B840BBA0BEE1F88F7B8
:100C9000E09508950E9451066894B1110C940807DC
:100CA00008950E94ED0688F09F5798F0B92F992774
:100CB000B751B0F0E1F0660F771F881F991F1AF047
:100CC000BA95C9F714C0B13091F00E940707B1E09E
:100CD00008950C940707672F782F8827B85F39F09D
:100CE000B93FCCF3869577956795B395D9F73EF4E0
:100CF00090958095709561957F4F8F4F9F4F089588
:100D0000E89409C097FB3EF49095809570956195A5
:100D10007F4F8F4F9F4F9923A9F0F92F96E9BB275B
:100D20009395F695879577956795B795F111F8CFD7
:100D3000FAF4BB0F11F460FF1BC06F5F7F4F8F4F42
:100D40009F4F16C0882311F096E911C0772321F038
:100D50009EE8872F762F05C0662371F096E8862FD0
:100D600070E060E02AF09A95660F771F881FDAF727
:100D7000880F9695879597F9089597F99F6780E86A
:100D800070E060E008959FEF80EC089500240A94DD
:100D90001616170618060906089500240A94121656
:100DA0001306140605060895092E0394000C11F489
:100DB000882352F0BB0F40F4BF2B11F460FF04C036
:100DC0006F5F7F4F8F4F9F4F089557FD9058440F8F
:100DD000551F59F05F3F71F04795880F97FB991F9A
:100DE00061F09F3F79F08795089512161306140657
:100DF000551FF2CF4695F1DF08C0161617061806E4
:100E0000991FF1CF86957105610508940895E894BE
:100E1000BB2766277727CB0197F908950E945008D2
:100E200008F48FEF08950E9426070C94D4060E94C0
:100E3000C60638F00E94CD0620F0952311F00C94E0
:100E4000BD060C94C30611240C9408070E94E50605
:100E500070F3959FC1F3950F50E0551F629FF0010D
:100E6000729FBB27F00DB11D639FAA27F00DB11D26
:100E7000AA1F649F6627B00DA11D661F829F2227AF
:100E8000B00DA11D621F739FB00DA11D621F839F36
:100E9000A00D611D221F749F3327A00D611D231F0C
:100EA000849F600D211D822F762F6A2F11249F575A
:100EB00050409AF0F1F088234AF0EE0FFF1FBB1F5D
:100EC000661F771F881F91505040A9F79E3F51051C
:100ED00080F00C94BD060C9408075F3FE4F3983E45
:100EE000D4F3869577956795B795F795E7959F5FC6
:100EF000C1F7FE2B880F911D9695879597F9089558
:100F0000FA01EE0FFF1F309621053105A1F16115A1
:100F1000710561F48038BFE39B0749F1689490380C
:100F2000810561F08038BFEF9B0741F099234AF5B6
:100F3000FF3FE1053105210519F1E8940894E79593
:100F4000D901AA2329F4AB2FBE2FF85FD0F310C02C
:100F5000FF5F70F4A695E0F7F73950F019F0FF3A0B
:100F600038F49F779F930DD00F9007FC9058089509
:100F700046F00C94C30660E070E080E89FE30895BB
:100F80004FE79F775F934F933F932F930E94FA0809
:100F90002F913F914F915F910E9413070C941E086F
:100FA00019F416F40C94C3060C9474080E94ED0610
:100FB000B8F39923C9F3B6F39F57550B87FF0E94E7
:100FC00082080024A0E640EA900180585695979543
:100FD00028F4805C660F771F881F20F026173707DC
:100FE000480730F4621B730B840B202931294A2BEC
:100FF000A69517940794202531254A2758F7660FA0
:10100000771F881F20F026173707480730F4620B38
:10101000730B840B200D311D411DA09581F7B90183
:10102000842F9158880F96958795089529F416F086
:101030000C94BD060C9407070C94C3060E94ED06A1
:10104000A8F39638A0F707F80F92E8942BE33AEA52
:1010500048EB5FE70E9429070F920F920F924DB75E
:101060005EB70F920E944209E8E6F0E00E9489080C
:101070004F915F91EF91FF91E595EE1FFF1F49F0B2
:10108000FE57E0684427EE0F441FFA95E1F74195BB
:10109000550B0E94BC080F9007FE0C94B0080895F1
:1010A000990F0008550FAA0BE0E8FEEF1616170679
:1010B000E807F907C0F012161306E407F50798F0E1
:1010C000621B730B840B950B39F40A2661F0232BFA
:1010D000242B252B21F408950A2609F4A140A69576
:1010E0008FEF811D811D08959F3F31F0915020F4B5
:1010F000879577956795B795880F911D96958795F4
:1011000097F9089591505040660F771F881FD2F7C6
:101110000895DF93CF931F930F93FF92EF92DF9287
:101120007B018C01689406C0DA2EEF010E9426072D
:10113000FE01E894A5912591359145915591A6F32D
:10114000EF010E948305FE019701A801DA9469F777
:10115000DF90EF90FF900F911F91CF91DF91089555
:101160009B01AC0160E070E080E89FE30C94D8053F
:101170000C94BD060C9474080E94ED06D8F39923D4
:10118000C9F3940F511DA3F39150504094F059F0BE
:10119000882332F0660F771F881F91505040C1F7A7
:1011A0009E3F51052CF7880F911D9695879597F9CD
:1011B00008955F3FACF0983E9CF0BB2786957795ED
:1011C0006795B79508F4B1609395C1F7BB0F58F7D1
:1011D00011F460FFE8CF6F5F7F4F8F4F9F4FE3CFDA
:1011E0000C94080716F00C9474080C94C3066894C9
:1011F0000C94BD060E94ED06A8F39923C1F3AEF34B
:10120000DF93CF931F930F93FF92C92FDD2788237E
:101210002AF02197660F771F881FDAF720E030E069
:1012200040E85FEB9FE3883920F0803E38F021965C
:101230008F770E946C05E0E9F0E004C00E946C0525
:10124000EDEBF0E00E9489088B01BE01EC01FB2E62
:101250006F5771097595771F880B990B0E9482064D
:1012600028E132E741E35FE30E942607AF2D9801B2
:10127000AE01FF900F911F91CF91DF910E948305E6
:101280000C94D406FA01DC01AA0FBB1F9B01AC0130
:10129000BF5728F4222733274427507820C0B7515E
:1012A00090F4AB2F0024469537952795011CA39504
:1012B000D2F3002071F0220F331F441FB395DAF3ED
:1012C0000ED00C946B0561307105A0E88A07B94611
:1012D00030F49B01AC0166277727882790783096F9
:1012E00021F020833183428353830895BB274A3002
:1012F00031F4992322F4BDE2909581959F4F0C948F
:101300008209BB27FB015527AA27880F991FAA1F0F
:10131000A41710F0A41B83955051B9F7A05DAA3310
:1013200008F0A95DA193009779F7B111B1931192DB
:10133000CB010C94B40BAEE0B0E0E1EAF9E00C9420
:101340006C0C0D891E8986E08C831A8309838FEFCC
:101350009FE79E838D83AE01475E5F4F6F89788DD7
:10136000CE0101960E94BD09EF81F885E00FF11FC3
:1013700010822E96E4E00C94880CABE0B0E0E3EC35
:10138000F9E00C945E0C6C017B018A01FC01178270
:101390001682838181FFCCC1CE0101963C01F6010A
:1013A0009381F70193FD859193FF81917F018823BC
:1013B00009F4BAC1853239F493FD859193FF819187
:1013C0007F01853229F4B60190E00E94C40BE7CF7B
:1013D000912C212C312CFFE1F315D8F08B3279F0D0
:1013E00038F4803279F08332A1F4232D20611DC0BE
:1013F0008D3261F0803369F4232D216016C0832D76
:101400008260382EE32DE4603E2E2AC0F32DF86072
:101410001DC037FC2DC020ED280F2A3040F08E3241
:10142000B9F436FC81C1232D2064322E19C036FE5A
:1014300006C08AE0989E200D1124922E11C0EAE089
:101440002E9E200D1124222EF32DF0623F2E08C077
:101450008C3621F4832D8068382E02C0883641F402
:10146000F70193FD859193FF81917F018111B3CFA6
:10147000982F9F7D9554933028F40C5F1F4F9FE366
:1014800099830DC0833631F0833771F0833509F0CD
:1014900059C021C0F801808189830E5F1F4F8824C5
:1014A0008394912C530113C02801F2E04F0E511C7C
:1014B000F801A080B18036FE03C0692D70E002C043
:1014C0006FEF7FEFC5010E94A90B4C018201F32D44
:1014D000FF773F2E16C0280122E0420E511CF80172
:1014E000A080B18036FE03C0692D70E002C06FEFAE
:1014F0007FEFC5010E949E0B4C01F32DF0683F2E3B
:10150000820133FC1BC0822D90E088169906B0F44E
:10151000B60180E290E00E94C40B2A94F4CFF5015A
:1015200037FC859137FE81915F01B60190E00E9402
:10153000C40B21102A9421E0821A9108811491048D
:1015400071F7E8C0843611F0893641F5F80137FEAD
:1015500007C060817181828193810C5F1F4F08C039
:1015600060817181072E000C880B990B0E5F1F4F55
:10157000F32DFF763F2E97FF09C0909580957095CB
:1015800061957F4F8F4F9F4FF0683F2E2AE030E0EC
:10159000A3010E94000C882E861845C0853731F4BF
:1015A000232D2F7EB22E2AE030E025C0932D997F87
:1015B000B92E8F36C1F018F4883579F0B5C0803770
:1015C00019F0883721F0B0C0E92FE061BE2EB4FEDB
:1015D0000DC0FB2DF460BF2E09C034FE0AC0292FB8
:1015E0002660B22E06C028E030E005C020E130E0E1
:1015F00002C020E132E0F801B7FE07C060817181CE
:10160000828193810C5F1F4F06C06081718180E0F1
:1016100090E00E5F1F4FA3010E94000C882E8618D9
:10162000FB2DFF773F2E36FE0DC0232D2E7FA22EE1
:10163000891458F434FE0BC032FC09C0832D8E7E11
:10164000A82E05C0B82CA32C03C0B82C01C0B92CFF
:10165000A4FE0FC0FE01E80DF11D8081803321F44E
:101660009A2D997EA92E09C0A2FE06C0B394B39408
:1016700004C08A2D867809F0B394A3FC11C0A0FEA3
:1016800006C0B21488F4280C922C9B180EC0B21419
:1016900060F4B60180E290E00E94C40BB394F7CFEF
:1016A000B21418F42B1802C0982C212CA4FE10C0E0
:1016B000B60180E390E00E94C40BA2FE17C0A1FC1B
:1016C00003C088E790E002C088E590E0B6010CC056
:1016D0008A2D867859F0A1FE02C08BE201C080E21B
:1016E000A7FC8DE2B60190E00E94C40B891438F487
:1016F000B60180E390E00E94C40B9A94F7CF8A94DD
:10170000F301E80DF11D8081B60190E00E94C40B49
:101710008110F5CF222009F442CEB60180E290E09C
:101720000E94C40B2A94F6CFF6018681978102C0ED
:101730008FEF9FEF2B96E2E10C947A0CFC01059061
:10174000615070400110D8F7809590958E0F9F1FC3
:101750000895FC016150704001900110D8F7809508
:1017600090958E0F9F1F0895DC01FC01672F7191EA
:101770007723E1F7329704C07C916D937083629177
:10178000AE17BF07C8F308950F931F93CF93DF934E
:10179000FB01238121FD03C08FEF9FEF2CC022FFAF
:1017A00016C046815781248135814217530744F47E
:1017B000A081B1819D012F5F3F4F318320838C93A6
:1017C000268137812F5F3F4F3783268314C08B01DB
:1017D000EC01FB010084F185E02D0995892BE1F6F0
:1017E000D80116968D919C911797019617969C9308
:1017F0008E931697CE01DF91CF911F910F9108958F
:10180000FA01AA27283051F1203181F1E8946F9331
:101810006E7F6E5F7F4F8F4F9F4FAF4FB1E03ED0D7
:10182000B4E03CD0670F781F891F9A1FA11D680F75
:10183000791F8A1F911DA11D6A0F711D811D911DA8
:10184000A11D20D009F468943F912AE0269F11241D
:101850003019305D3193DEF6CF010895462F477081
:10186000405D4193B3E00FD0C9F7F6CF462F4F70DC
:10187000405D4A3318F0495D31FD4052419302D03A
:10188000A9F7EACFB4E0A6959795879577956795E0
:10189000BA95C9F700976105710508959B01AC01E0
:1018A0000A2E06945795479537952795BA95C9F707
:1018B000620F731F841F951FA01D08952F923F92E2
:1018C0004F925F926F927F928F929F92AF92BF9250
:1018D000CF92DF92EF92FF920F931F93CF93DF93FC
:1018E000CDB7DEB7CA1BDB0B0FB6F894DEBF0FBE59
:1018F000CDBF09942A88398848885F846E847D84A6
:101900008C849B84AA84B984C884DF80EE80FD80A7
:101910000C811B81AA81B981CE0FD11D0FB6F8941D
:0E192000DEBF0FBECDBFED010895F894FFCFDE
:10192E004D6F746F722025642C20616E676C65207C
:10193E003D202025640A005354415445203A20414D
:10194E004343454C200050756C73652074696D657A
:10195E0020005354415445203A20434F4E53544196
:10196E004E5420005354415445203A20446563653B
:10197E006C20002323232323232323232323232306
:10198E002323232323232300766D61782000236EE7
:10199E002000743020007431200053746570207460
:0619AE00696D65200000D8
:00000001FF
